{
  "contractName": "AvatarNFT",
  "abi": [
    {
      "inputs": [
        {
          "internalType": "string",
          "name": "_baseUri",
          "type": "string"
        },
        {
          "internalType": "string",
          "name": "_tokenName",
          "type": "string"
        },
        {
          "internalType": "string",
          "name": "_symbol",
          "type": "string"
        },
        {
          "internalType": "contract CaoToken",
          "name": "_caoToken",
          "type": "address"
        }
      ],
      "stateMutability": "nonpayable",
      "type": "constructor"
    },
    {
      "anonymous": false,
      "inputs": [
        {
          "indexed": true,
          "internalType": "address",
          "name": "owner",
          "type": "address"
        },
        {
          "indexed": true,
          "internalType": "address",
          "name": "approved",
          "type": "address"
        },
        {
          "indexed": true,
          "internalType": "uint256",
          "name": "tokenId",
          "type": "uint256"
        }
      ],
      "name": "Approval",
      "type": "event"
    },
    {
      "anonymous": false,
      "inputs": [
        {
          "indexed": true,
          "internalType": "address",
          "name": "owner",
          "type": "address"
        },
        {
          "indexed": true,
          "internalType": "address",
          "name": "operator",
          "type": "address"
        },
        {
          "indexed": false,
          "internalType": "bool",
          "name": "approved",
          "type": "bool"
        }
      ],
      "name": "ApprovalForAll",
      "type": "event"
    },
    {
      "anonymous": false,
      "inputs": [
        {
          "indexed": true,
          "internalType": "address",
          "name": "previousOwner",
          "type": "address"
        },
        {
          "indexed": true,
          "internalType": "address",
          "name": "newOwner",
          "type": "address"
        }
      ],
      "name": "OwnershipTransferred",
      "type": "event"
    },
    {
      "anonymous": false,
      "inputs": [
        {
          "indexed": true,
          "internalType": "address",
          "name": "from",
          "type": "address"
        },
        {
          "indexed": true,
          "internalType": "address",
          "name": "to",
          "type": "address"
        },
        {
          "indexed": true,
          "internalType": "uint256",
          "name": "tokenId",
          "type": "uint256"
        }
      ],
      "name": "Transfer",
      "type": "event"
    },
    {
      "inputs": [
        {
          "internalType": "address",
          "name": "to",
          "type": "address"
        },
        {
          "internalType": "uint256",
          "name": "tokenId",
          "type": "uint256"
        }
      ],
      "name": "approve",
      "outputs": [],
      "stateMutability": "nonpayable",
      "type": "function"
    },
    {
      "inputs": [
        {
          "internalType": "uint256",
          "name": "",
          "type": "uint256"
        }
      ],
      "name": "avatarById",
      "outputs": [
        {
          "internalType": "enum AvatarNFT.Rank",
          "name": "rank",
          "type": "uint8"
        },
        {
          "internalType": "uint256",
          "name": "arrivalDate",
          "type": "uint256"
        }
      ],
      "stateMutability": "view",
      "type": "function"
    },
    {
      "inputs": [
        {
          "internalType": "address",
          "name": "owner",
          "type": "address"
        }
      ],
      "name": "balanceOf",
      "outputs": [
        {
          "internalType": "uint256",
          "name": "",
          "type": "uint256"
        }
      ],
      "stateMutability": "view",
      "type": "function"
    },
    {
      "inputs": [],
      "name": "baseTokenURI",
      "outputs": [
        {
          "internalType": "string",
          "name": "",
          "type": "string"
        }
      ],
      "stateMutability": "view",
      "type": "function"
    },
    {
      "inputs": [
        {
          "internalType": "uint256",
          "name": "tokenId",
          "type": "uint256"
        }
      ],
      "name": "getApproved",
      "outputs": [
        {
          "internalType": "address",
          "name": "",
          "type": "address"
        }
      ],
      "stateMutability": "view",
      "type": "function"
    },
    {
      "inputs": [],
      "name": "governanceToken",
      "outputs": [
        {
          "internalType": "contract CaoToken",
          "name": "",
          "type": "address"
        }
      ],
      "stateMutability": "view",
      "type": "function"
    },
    {
      "inputs": [
        {
          "internalType": "address",
          "name": "owner",
          "type": "address"
        },
        {
          "internalType": "address",
          "name": "operator",
          "type": "address"
        }
      ],
      "name": "isApprovedForAll",
      "outputs": [
        {
          "internalType": "bool",
          "name": "",
          "type": "bool"
        }
      ],
      "stateMutability": "view",
      "type": "function"
    },
    {
      "inputs": [],
      "name": "name",
      "outputs": [
        {
          "internalType": "string",
          "name": "",
          "type": "string"
        }
      ],
      "stateMutability": "view",
      "type": "function"
    },
    {
      "inputs": [],
      "name": "owner",
      "outputs": [
        {
          "internalType": "address",
          "name": "",
          "type": "address"
        }
      ],
      "stateMutability": "view",
      "type": "function"
    },
    {
      "inputs": [
        {
          "internalType": "uint256",
          "name": "tokenId",
          "type": "uint256"
        }
      ],
      "name": "ownerOf",
      "outputs": [
        {
          "internalType": "address",
          "name": "",
          "type": "address"
        }
      ],
      "stateMutability": "view",
      "type": "function"
    },
    {
      "inputs": [],
      "name": "renounceOwnership",
      "outputs": [],
      "stateMutability": "nonpayable",
      "type": "function"
    },
    {
      "inputs": [
        {
          "internalType": "address",
          "name": "from",
          "type": "address"
        },
        {
          "internalType": "address",
          "name": "to",
          "type": "address"
        },
        {
          "internalType": "uint256",
          "name": "tokenId",
          "type": "uint256"
        }
      ],
      "name": "safeTransferFrom",
      "outputs": [],
      "stateMutability": "nonpayable",
      "type": "function"
    },
    {
      "inputs": [
        {
          "internalType": "address",
          "name": "from",
          "type": "address"
        },
        {
          "internalType": "address",
          "name": "to",
          "type": "address"
        },
        {
          "internalType": "uint256",
          "name": "tokenId",
          "type": "uint256"
        },
        {
          "internalType": "bytes",
          "name": "_data",
          "type": "bytes"
        }
      ],
      "name": "safeTransferFrom",
      "outputs": [],
      "stateMutability": "nonpayable",
      "type": "function"
    },
    {
      "inputs": [
        {
          "internalType": "address",
          "name": "operator",
          "type": "address"
        },
        {
          "internalType": "bool",
          "name": "approved",
          "type": "bool"
        }
      ],
      "name": "setApprovalForAll",
      "outputs": [],
      "stateMutability": "nonpayable",
      "type": "function"
    },
    {
      "inputs": [
        {
          "internalType": "bytes4",
          "name": "interfaceId",
          "type": "bytes4"
        }
      ],
      "name": "supportsInterface",
      "outputs": [
        {
          "internalType": "bool",
          "name": "",
          "type": "bool"
        }
      ],
      "stateMutability": "view",
      "type": "function"
    },
    {
      "inputs": [],
      "name": "symbol",
      "outputs": [
        {
          "internalType": "string",
          "name": "",
          "type": "string"
        }
      ],
      "stateMutability": "view",
      "type": "function"
    },
    {
      "inputs": [
        {
          "internalType": "uint256",
          "name": "index",
          "type": "uint256"
        }
      ],
      "name": "tokenByIndex",
      "outputs": [
        {
          "internalType": "uint256",
          "name": "",
          "type": "uint256"
        }
      ],
      "stateMutability": "view",
      "type": "function"
    },
    {
      "inputs": [
        {
          "internalType": "address",
          "name": "owner",
          "type": "address"
        },
        {
          "internalType": "uint256",
          "name": "index",
          "type": "uint256"
        }
      ],
      "name": "tokenOfOwnerByIndex",
      "outputs": [
        {
          "internalType": "uint256",
          "name": "",
          "type": "uint256"
        }
      ],
      "stateMutability": "view",
      "type": "function"
    },
    {
      "inputs": [
        {
          "internalType": "uint256",
          "name": "tokenId",
          "type": "uint256"
        }
      ],
      "name": "tokenURI",
      "outputs": [
        {
          "internalType": "string",
          "name": "",
          "type": "string"
        }
      ],
      "stateMutability": "view",
      "type": "function"
    },
    {
      "inputs": [],
      "name": "totalSupply",
      "outputs": [
        {
          "internalType": "uint256",
          "name": "",
          "type": "uint256"
        }
      ],
      "stateMutability": "view",
      "type": "function"
    },
    {
      "inputs": [
        {
          "internalType": "address",
          "name": "from",
          "type": "address"
        },
        {
          "internalType": "address",
          "name": "to",
          "type": "address"
        },
        {
          "internalType": "uint256",
          "name": "tokenId",
          "type": "uint256"
        }
      ],
      "name": "transferFrom",
      "outputs": [],
      "stateMutability": "nonpayable",
      "type": "function"
    },
    {
      "inputs": [
        {
          "internalType": "address",
          "name": "newOwner",
          "type": "address"
        }
      ],
      "name": "transferOwnership",
      "outputs": [],
      "stateMutability": "nonpayable",
      "type": "function"
    },
    {
      "inputs": [
        {
          "internalType": "address",
          "name": "_receiver",
          "type": "address"
        },
        {
          "internalType": "enum AvatarNFT.Rank",
          "name": "_rank",
          "type": "uint8"
        },
        {
          "internalType": "uint256",
          "name": "_arrivalDate",
          "type": "uint256"
        }
      ],
      "name": "mint",
      "outputs": [],
      "stateMutability": "nonpayable",
      "type": "function"
    },
    {
      "inputs": [
        {
          "internalType": "string",
          "name": "_baseUri",
          "type": "string"
        }
      ],
      "name": "setBaseUri",
      "outputs": [],
      "stateMutability": "nonpayable",
      "type": "function"
    },
    {
      "inputs": [
        {
          "internalType": "uint256",
          "name": "_tokenId",
          "type": "uint256"
        }
      ],
      "name": "burn",
      "outputs": [],
      "stateMutability": "nonpayable",
      "type": "function"
    }
  ],
  "bytecode": "0x60806040523480156200001157600080fd5b50604051620046cc380380620046cc8339818101604052810190620000379190620003c5565b82828160009080519060200190620000519291906200028c565b5080600190805190602001906200006a9291906200028c565b5050506200008d62000081620000e960201b60201c565b620000f160201b60201c565b6200009e84620001b760201b60201c565b80600d60006101000a81548173ffffffffffffffffffffffffffffffffffffffff021916908373ffffffffffffffffffffffffffffffffffffffff16021790555050505050620006d1565b600033905090565b6000600a60009054906101000a900473ffffffffffffffffffffffffffffffffffffffff16905081600a60006101000a81548173ffffffffffffffffffffffffffffffffffffffff021916908373ffffffffffffffffffffffffffffffffffffffff1602179055508173ffffffffffffffffffffffffffffffffffffffff168173ffffffffffffffffffffffffffffffffffffffff167f8be0079c531659141344cd1fd0a4f28419497f9722a3daafe3b4186f6b6457e060405160405180910390a35050565b620001c7620000e960201b60201c565b73ffffffffffffffffffffffffffffffffffffffff16620001ed6200026260201b60201c565b73ffffffffffffffffffffffffffffffffffffffff161462000246576040517f08c379a00000000000000000000000000000000000000000000000000000000081526004016200023d90620004a3565b60405180910390fd5b80600c90805190602001906200025e9291906200028c565b5050565b6000600a60009054906101000a900473ffffffffffffffffffffffffffffffffffffffff16905090565b8280546200029a90620005b3565b90600052602060002090601f016020900481019282620002be57600085556200030a565b82601f10620002d957805160ff19168380011785556200030a565b828001600101855582156200030a579182015b8281111562000309578251825591602001919060010190620002ec565b5b5090506200031991906200031d565b5090565b5b80821115620003385760008160009055506001016200031e565b5090565b6000620003536200034d84620004ee565b620004c5565b9050828152602081018484840111156200036c57600080fd5b620003798482856200057d565b509392505050565b6000815190506200039281620006b7565b92915050565b600082601f830112620003aa57600080fd5b8151620003bc8482602086016200033c565b91505092915050565b60008060008060808587031215620003dc57600080fd5b600085015167ffffffffffffffff811115620003f757600080fd5b620004058782880162000398565b945050602085015167ffffffffffffffff8111156200042357600080fd5b620004318782880162000398565b935050604085015167ffffffffffffffff8111156200044f57600080fd5b6200045d8782880162000398565b9250506060620004708782880162000381565b91505092959194509250565b60006200048b60208362000524565b915062000498826200068e565b602082019050919050565b60006020820190508181036000830152620004be816200047c565b9050919050565b6000620004d1620004e4565b9050620004df8282620005e9565b919050565b6000604051905090565b600067ffffffffffffffff8211156200050c576200050b6200064e565b5b62000517826200067d565b9050602081019050919050565b600082825260208201905092915050565b600062000542826200055d565b9050919050565b6000620005568262000535565b9050919050565b600073ffffffffffffffffffffffffffffffffffffffff82169050919050565b60005b838110156200059d57808201518184015260208101905062000580565b83811115620005ad576000848401525b50505050565b60006002820490506001821680620005cc57607f821691505b60208210811415620005e357620005e26200061f565b5b50919050565b620005f4826200067d565b810181811067ffffffffffffffff821117156200061657620006156200064e565b5b80604052505050565b7f4e487b7100000000000000000000000000000000000000000000000000000000600052602260045260246000fd5b7f4e487b7100000000000000000000000000000000000000000000000000000000600052604160045260246000fd5b6000601f19601f8301169050919050565b7f4f776e61626c653a2063616c6c6572206973206e6f7420746865206f776e6572600082015250565b620006c28162000549565b8114620006ce57600080fd5b50565b613feb80620006e16000396000f3fe608060405234801561001057600080fd5b50600436106101735760003560e01c80636352211e116100de578063a22cb46511610097578063d547cfb711610071578063d547cfb71461045b578063e985e9c514610479578063f2fde38b146104a9578063f96dae0a146104c557610173565b8063a22cb465146103f3578063b88d4fde1461040f578063c87b56dd1461042b57610173565b80636352211e1461033157806370a0823114610361578063715018a6146103915780638da5cb5b1461039b57806395d89b41146103b9578063a0bcfc7f146103d757610173565b80632f745c59116101305780632f745c591461024c57806342842e0e1461027c57806342966c68146102985780634e785bb4146102b45780634ed387b2146102e55780634f6ccce71461030157610173565b806301ffc9a71461017857806306fdde03146101a8578063081812fc146101c6578063095ea7b3146101f657806318160ddd1461021257806323b872dd14610230575b600080fd5b610192600480360381019061018d9190612c0d565b6104e3565b60405161019f919061310a565b60405180910390f35b6101b061055d565b6040516101bd9190613169565b60405180910390f35b6101e060048036038101906101db9190612ca0565b6105ef565b6040516101ed919061307a565b60405180910390f35b610210600480360381019061020b9190612bd1565b610674565b005b61021a61078c565b60405161022791906133cb565b60405180910390f35b61024a60048036038101906102459190612a7c565b610799565b005b61026660048036038101906102619190612bd1565b6107f9565b60405161027391906133cb565b60405180910390f35b61029660048036038101906102919190612a7c565b61089e565b005b6102b260048036038101906102ad9190612ca0565b6108be565b005b6102ce60048036038101906102c99190612ca0565b610946565b6040516102dc929190613140565b60405180910390f35b6102ff60048036038101906102fa9190612b82565b610977565b005b61031b60048036038101906103169190612ca0565b610c67565b60405161032891906133cb565b60405180910390f35b61034b60048036038101906103469190612ca0565b610cfe565b604051610358919061307a565b60405180910390f35b61037b60048036038101906103769190612a17565b610db0565b60405161038891906133cb565b60405180910390f35b610399610e68565b005b6103a3610ef0565b6040516103b0919061307a565b60405180910390f35b6103c1610f1a565b6040516103ce9190613169565b60405180910390f35b6103f160048036038101906103ec9190612c5f565b610fac565b005b61040d60048036038101906104089190612b46565b611042565b005b61042960048036038101906104249190612acb565b611058565b005b61044560048036038101906104409190612ca0565b6110ba565b6040516104529190613169565b60405180910390f35b610463611161565b6040516104709190613169565b60405180910390f35b610493600480360381019061048e9190612a40565b6111ef565b6040516104a0919061310a565b60405180910390f35b6104c360048036038101906104be9190612a17565b611283565b005b6104cd61137b565b6040516104da9190613125565b60405180910390f35b60007f780e9d63000000000000000000000000000000000000000000000000000000007bffffffffffffffffffffffffffffffffffffffffffffffffffffffff1916827bffffffffffffffffffffffffffffffffffffffffffffffffffffffff191614806105565750610555826113a1565b5b9050919050565b60606000805461056c90613842565b80601f016020809104026020016040519081016040528092919081815260200182805461059890613842565b80156105e55780601f106105ba576101008083540402835291602001916105e5565b820191906000526020600020905b8154815290600101906020018083116105c857829003601f168201915b5050505050905090565b60006105fa82611483565b610639576040517f08c379a00000000000000000000000000000000000000000000000000000000081526004016106309061330b565b60405180910390fd5b6004600083815260200190815260200160002060009054906101000a900473ffffffffffffffffffffffffffffffffffffffff169050919050565b600061067f82610cfe565b90508073ffffffffffffffffffffffffffffffffffffffff168373ffffffffffffffffffffffffffffffffffffffff1614156106f0576040517f08c379a00000000000000000000000000000000000000000000000000000000081526004016106e79061336b565b60405180910390fd5b8073ffffffffffffffffffffffffffffffffffffffff1661070f6114ef565b73ffffffffffffffffffffffffffffffffffffffff16148061073e575061073d816107386114ef565b6111ef565b5b61077d576040517f08c379a00000000000000000000000000000000000000000000000000000000081526004016107749061328b565b60405180910390fd5b61078783836114f7565b505050565b6000600880549050905090565b6107aa6107a46114ef565b826115b0565b6107e9576040517f08c379a00000000000000000000000000000000000000000000000000000000081526004016107e09061338b565b60405180910390fd5b6107f483838361168e565b505050565b600061080483610db0565b8210610845576040517f08c379a000000000000000000000000000000000000000000000000000000000815260040161083c9061318b565b60405180910390fd5b600660008473ffffffffffffffffffffffffffffffffffffffff1673ffffffffffffffffffffffffffffffffffffffff168152602001908152602001600020600083815260200190815260200160002054905092915050565b6108b983838360405180602001604052806000815250611058565b505050565b6108c66114ef565b73ffffffffffffffffffffffffffffffffffffffff166108e4610ef0565b73ffffffffffffffffffffffffffffffffffffffff161461093a576040517f08c379a00000000000000000000000000000000000000000000000000000000081526004016109319061332b565b60405180910390fd5b610943816118f5565b50565b600b6020528060005260406000206000915090508060000160009054906101000a900460ff16908060010154905082565b61097f6114ef565b73ffffffffffffffffffffffffffffffffffffffff1661099d610ef0565b73ffffffffffffffffffffffffffffffffffffffff16146109f3576040517f08c379a00000000000000000000000000000000000000000000000000000000081526004016109ea9061332b565b60405180910390fd5b60006109ff600e611a12565b9050610a0b600e611a20565b610a158482611a36565b6040518060400160405280846005811115610a59577f4e487b7100000000000000000000000000000000000000000000000000000000600052602160045260246000fd5b815260200183815250600b600083815260200190815260200160002060008201518160000160006101000a81548160ff02191690836005811115610ac6577f4e487b7100000000000000000000000000000000000000000000000000000000600052602160045260246000fd5b021790555060208201518160010155905050600d60009054906101000a900473ffffffffffffffffffffffffffffffffffffffff1673ffffffffffffffffffffffffffffffffffffffff166340c10f1985600d60009054906101000a900473ffffffffffffffffffffffffffffffffffffffff1673ffffffffffffffffffffffffffffffffffffffff1663313ce5676040518163ffffffff1660e01b815260040160206040518083038186803b158015610b7f57600080fd5b505afa158015610b93573d6000803e3d6000fd5b505050506040513d601f19601f82011682018060405250810190610bb79190612cc9565b600a610bc3919061358a565b6005876005811115610bfe577f4e487b7100000000000000000000000000000000000000000000000000000000600052602160045260246000fd5b610c0891906134b0565b610c1291906136a8565b6040518363ffffffff1660e01b8152600401610c2f9291906130e1565b600060405180830381600087803b158015610c4957600080fd5b505af1158015610c5d573d6000803e3d6000fd5b5050505050505050565b6000610c7161078c565b8210610cb2576040517f08c379a0000000000000000000000000000000000000000000000000000000008152600401610ca9906133ab565b60405180910390fd5b60088281548110610cec577f4e487b7100000000000000000000000000000000000000000000000000000000600052603260045260246000fd5b90600052602060002001549050919050565b6000806002600084815260200190815260200160002060009054906101000a900473ffffffffffffffffffffffffffffffffffffffff169050600073ffffffffffffffffffffffffffffffffffffffff168173ffffffffffffffffffffffffffffffffffffffff161415610da7576040517f08c379a0000000000000000000000000000000000000000000000000000000008152600401610d9e906132cb565b60405180910390fd5b80915050919050565b60008073ffffffffffffffffffffffffffffffffffffffff168273ffffffffffffffffffffffffffffffffffffffff161415610e21576040517f08c379a0000000000000000000000000000000000000000000000000000000008152600401610e18906132ab565b60405180910390fd5b600360008373ffffffffffffffffffffffffffffffffffffffff1673ffffffffffffffffffffffffffffffffffffffff168152602001908152602001600020549050919050565b610e706114ef565b73ffffffffffffffffffffffffffffffffffffffff16610e8e610ef0565b73ffffffffffffffffffffffffffffffffffffffff1614610ee4576040517f08c379a0000000000000000000000000000000000000000000000000000000008152600401610edb9061332b565b60405180910390fd5b610eee6000611a54565b565b6000600a60009054906101000a900473ffffffffffffffffffffffffffffffffffffffff16905090565b606060018054610f2990613842565b80601f0160208091040260200160405190810160405280929190818152602001828054610f5590613842565b8015610fa25780601f10610f7757610100808354040283529160200191610fa2565b820191906000526020600020905b815481529060010190602001808311610f8557829003601f168201915b5050505050905090565b610fb46114ef565b73ffffffffffffffffffffffffffffffffffffffff16610fd2610ef0565b73ffffffffffffffffffffffffffffffffffffffff1614611028576040517f08c379a000000000000000000000000000000000000000000000000000000000815260040161101f9061332b565b60405180910390fd5b80600c908051906020019061103e929190612811565b5050565b61105461104d6114ef565b8383611b1a565b5050565b6110696110636114ef565b836115b0565b6110a8576040517f08c379a000000000000000000000000000000000000000000000000000000000815260040161109f9061338b565b60405180910390fd5b6110b484848484611c87565b50505050565b60606110c582611483565b611104576040517f08c379a00000000000000000000000000000000000000000000000000000000081526004016110fb9061334b565b60405180910390fd5b600061110e611ce3565b9050600081511161112e5760405180602001604052806000815250611159565b8061113884611d75565b604051602001611149929190613056565b6040516020818303038152906040525b915050919050565b600c805461116e90613842565b80601f016020809104026020016040519081016040528092919081815260200182805461119a90613842565b80156111e75780601f106111bc576101008083540402835291602001916111e7565b820191906000526020600020905b8154815290600101906020018083116111ca57829003601f168201915b505050505081565b6000600560008473ffffffffffffffffffffffffffffffffffffffff1673ffffffffffffffffffffffffffffffffffffffff16815260200190815260200160002060008373ffffffffffffffffffffffffffffffffffffffff1673ffffffffffffffffffffffffffffffffffffffff16815260200190815260200160002060009054906101000a900460ff16905092915050565b61128b6114ef565b73ffffffffffffffffffffffffffffffffffffffff166112a9610ef0565b73ffffffffffffffffffffffffffffffffffffffff16146112ff576040517f08c379a00000000000000000000000000000000000000000000000000000000081526004016112f69061332b565b60405180910390fd5b600073ffffffffffffffffffffffffffffffffffffffff168173ffffffffffffffffffffffffffffffffffffffff16141561136f576040517f08c379a0000000000000000000000000000000000000000000000000000000008152600401611366906131cb565b60405180910390fd5b61137881611a54565b50565b600d60009054906101000a900473ffffffffffffffffffffffffffffffffffffffff1681565b60007f80ac58cd000000000000000000000000000000000000000000000000000000007bffffffffffffffffffffffffffffffffffffffffffffffffffffffff1916827bffffffffffffffffffffffffffffffffffffffffffffffffffffffff1916148061146c57507f5b5e139f000000000000000000000000000000000000000000000000000000007bffffffffffffffffffffffffffffffffffffffffffffffffffffffff1916827bffffffffffffffffffffffffffffffffffffffffffffffffffffffff1916145b8061147c575061147b82611f22565b5b9050919050565b60008073ffffffffffffffffffffffffffffffffffffffff166002600084815260200190815260200160002060009054906101000a900473ffffffffffffffffffffffffffffffffffffffff1673ffffffffffffffffffffffffffffffffffffffff1614159050919050565b600033905090565b816004600083815260200190815260200160002060006101000a81548173ffffffffffffffffffffffffffffffffffffffff021916908373ffffffffffffffffffffffffffffffffffffffff160217905550808273ffffffffffffffffffffffffffffffffffffffff1661156a83610cfe565b73ffffffffffffffffffffffffffffffffffffffff167f8c5be1e5ebec7d5bd14f71427d1e84f3dd0314c0f7b2291e5b200ac8c7c3b92560405160405180910390a45050565b60006115bb82611483565b6115fa576040517f08c379a00000000000000000000000000000000000000000000000000000000081526004016115f19061326b565b60405180910390fd5b600061160583610cfe565b90508073ffffffffffffffffffffffffffffffffffffffff168473ffffffffffffffffffffffffffffffffffffffff16148061167457508373ffffffffffffffffffffffffffffffffffffffff1661165c846105ef565b73ffffffffffffffffffffffffffffffffffffffff16145b80611685575061168481856111ef565b5b91505092915050565b8273ffffffffffffffffffffffffffffffffffffffff166116ae82610cfe565b73ffffffffffffffffffffffffffffffffffffffff1614611704576040517f08c379a00000000000000000000000000000000000000000000000000000000081526004016116fb906131eb565b60405180910390fd5b600073ffffffffffffffffffffffffffffffffffffffff168273ffffffffffffffffffffffffffffffffffffffff161415611774576040517f08c379a000000000000000000000000000000000000000000000000000000000815260040161176b9061322b565b60405180910390fd5b61177f838383611f8c565b61178a6000826114f7565b6001600360008573ffffffffffffffffffffffffffffffffffffffff1673ffffffffffffffffffffffffffffffffffffffff16815260200190815260200160002060008282546117da9190613702565b925050819055506001600360008473ffffffffffffffffffffffffffffffffffffffff1673ffffffffffffffffffffffffffffffffffffffff168152602001908152602001600020600082825461183191906134b0565b92505081905550816002600083815260200190815260200160002060006101000a81548173ffffffffffffffffffffffffffffffffffffffff021916908373ffffffffffffffffffffffffffffffffffffffff160217905550808273ffffffffffffffffffffffffffffffffffffffff168473ffffffffffffffffffffffffffffffffffffffff167fddf252ad1be2c89b69c2b068fc378daa952ba7f163c4a11628f55a4df523b3ef60405160405180910390a46118f08383836120a0565b505050565b600061190082610cfe565b905061190e81600084611f8c565b6119196000836114f7565b6001600360008373ffffffffffffffffffffffffffffffffffffffff1673ffffffffffffffffffffffffffffffffffffffff16815260200190815260200160002060008282546119699190613702565b925050819055506002600083815260200190815260200160002060006101000a81549073ffffffffffffffffffffffffffffffffffffffff021916905581600073ffffffffffffffffffffffffffffffffffffffff168273ffffffffffffffffffffffffffffffffffffffff167fddf252ad1be2c89b69c2b068fc378daa952ba7f163c4a11628f55a4df523b3ef60405160405180910390a4611a0e816000846120a0565b5050565b600081600001549050919050565b6001816000016000828254019250508190555050565b611a508282604051806020016040528060008152506120a5565b5050565b6000600a60009054906101000a900473ffffffffffffffffffffffffffffffffffffffff16905081600a60006101000a81548173ffffffffffffffffffffffffffffffffffffffff021916908373ffffffffffffffffffffffffffffffffffffffff1602179055508173ffffffffffffffffffffffffffffffffffffffff168173ffffffffffffffffffffffffffffffffffffffff167f8be0079c531659141344cd1fd0a4f28419497f9722a3daafe3b4186f6b6457e060405160405180910390a35050565b8173ffffffffffffffffffffffffffffffffffffffff168373ffffffffffffffffffffffffffffffffffffffff161415611b89576040517f08c379a0000000000000000000000000000000000000000000000000000000008152600401611b809061324b565b60405180910390fd5b80600560008573ffffffffffffffffffffffffffffffffffffffff1673ffffffffffffffffffffffffffffffffffffffff16815260200190815260200160002060008473ffffffffffffffffffffffffffffffffffffffff1673ffffffffffffffffffffffffffffffffffffffff16815260200190815260200160002060006101000a81548160ff0219169083151502179055508173ffffffffffffffffffffffffffffffffffffffff168373ffffffffffffffffffffffffffffffffffffffff167f17307eab39ab6107e8899845ad3d59bd9653f200f220920489ca2b5937696c3183604051611c7a919061310a565b60405180910390a3505050565b611c9284848461168e565b611c9e84848484612100565b611cdd576040517f08c379a0000000000000000000000000000000000000000000000000000000008152600401611cd4906131ab565b60405180910390fd5b50505050565b6060600c8054611cf290613842565b80601f0160208091040260200160405190810160405280929190818152602001828054611d1e90613842565b8015611d6b5780601f10611d4057610100808354040283529160200191611d6b565b820191906000526020600020905b815481529060010190602001808311611d4e57829003601f168201915b5050505050905090565b60606000821415611dbd576040518060400160405280600181526020017f30000000000000000000000000000000000000000000000000000000000000008152509050611f1d565b600082905060005b60008214611def578080611dd8906138a5565b915050600a82611de89190613506565b9150611dc5565b60008167ffffffffffffffff811115611e31577f4e487b7100000000000000000000000000000000000000000000000000000000600052604160045260246000fd5b6040519080825280601f01601f191660200182016040528015611e635781602001600182028036833780820191505090505b5090505b60008514611f1657600182611e7c9190613702565b9150600a85611e8b91906138ee565b6030611e9791906134b0565b60f81b818381518110611ed3577f4e487b7100000000000000000000000000000000000000000000000000000000600052603260045260246000fd5b60200101907effffffffffffffffffffffffffffffffffffffffffffffffffffffffffffff1916908160001a905350600a85611f0f9190613506565b9450611e67565b8093505050505b919050565b60007f01ffc9a7000000000000000000000000000000000000000000000000000000007bffffffffffffffffffffffffffffffffffffffffffffffffffffffff1916827bffffffffffffffffffffffffffffffffffffffffffffffffffffffff1916149050919050565b611f97838383612297565b600073ffffffffffffffffffffffffffffffffffffffff168373ffffffffffffffffffffffffffffffffffffffff161415611fda57611fd58161229c565b612019565b8173ffffffffffffffffffffffffffffffffffffffff168373ffffffffffffffffffffffffffffffffffffffff16146120185761201783826122e5565b5b5b600073ffffffffffffffffffffffffffffffffffffffff168273ffffffffffffffffffffffffffffffffffffffff16141561205c5761205781612452565b61209b565b8273ffffffffffffffffffffffffffffffffffffffff168273ffffffffffffffffffffffffffffffffffffffff161461209a576120998282612595565b5b5b505050565b505050565b6120af8383612614565b6120bc6000848484612100565b6120fb576040517f08c379a00000000000000000000000000000000000000000000000000000000081526004016120f2906131ab565b60405180910390fd5b505050565b60006121218473ffffffffffffffffffffffffffffffffffffffff166127ee565b1561228a578373ffffffffffffffffffffffffffffffffffffffff1663150b7a0261214a6114ef565b8786866040518563ffffffff1660e01b815260040161216c9493929190613095565b602060405180830381600087803b15801561218657600080fd5b505af19250505080156121b757506040513d601f19601f820116820180604052508101906121b49190612c36565b60015b61223a573d80600081146121e7576040519150601f19603f3d011682016040523d82523d6000602084013e6121ec565b606091505b50600081511415612232576040517f08c379a0000000000000000000000000000000000000000000000000000000008152600401612229906131ab565b60405180910390fd5b805181602001fd5b63150b7a0260e01b7bffffffffffffffffffffffffffffffffffffffffffffffffffffffff1916817bffffffffffffffffffffffffffffffffffffffffffffffffffffffff19161491505061228f565b600190505b949350505050565b505050565b6008805490506009600083815260200190815260200160002081905550600881908060018154018082558091505060019003906000526020600020016000909190919091505550565b600060016122f284610db0565b6122fc9190613702565b90506000600760008481526020019081526020016000205490508181146123e1576000600660008673ffffffffffffffffffffffffffffffffffffffff1673ffffffffffffffffffffffffffffffffffffffff168152602001908152602001600020600084815260200190815260200160002054905080600660008773ffffffffffffffffffffffffffffffffffffffff1673ffffffffffffffffffffffffffffffffffffffff168152602001908152602001600020600084815260200190815260200160002081905550816007600083815260200190815260200160002081905550505b6007600084815260200190815260200160002060009055600660008573ffffffffffffffffffffffffffffffffffffffff1673ffffffffffffffffffffffffffffffffffffffff16815260200190815260200160002060008381526020019081526020016000206000905550505050565b600060016008805490506124669190613702565b90506000600960008481526020019081526020016000205490506000600883815481106124bc577f4e487b7100000000000000000000000000000000000000000000000000000000600052603260045260246000fd5b906000526020600020015490508060088381548110612504577f4e487b7100000000000000000000000000000000000000000000000000000000600052603260045260246000fd5b906000526020600020018190555081600960008381526020019081526020016000208190555060096000858152602001908152602001600020600090556008805480612579577f4e487b7100000000000000000000000000000000000000000000000000000000600052603160045260246000fd5b6001900381819060005260206000200160009055905550505050565b60006125a083610db0565b905081600660008573ffffffffffffffffffffffffffffffffffffffff1673ffffffffffffffffffffffffffffffffffffffff168152602001908152602001600020600083815260200190815260200160002081905550806007600084815260200190815260200160002081905550505050565b600073ffffffffffffffffffffffffffffffffffffffff168273ffffffffffffffffffffffffffffffffffffffff161415612684576040517f08c379a000000000000000000000000000000000000000000000000000000000815260040161267b906132eb565b60405180910390fd5b61268d81611483565b156126cd576040517f08c379a00000000000000000000000000000000000000000000000000000000081526004016126c49061320b565b60405180910390fd5b6126d960008383611f8c565b6001600360008473ffffffffffffffffffffffffffffffffffffffff1673ffffffffffffffffffffffffffffffffffffffff168152602001908152602001600020600082825461272991906134b0565b92505081905550816002600083815260200190815260200160002060006101000a81548173ffffffffffffffffffffffffffffffffffffffff021916908373ffffffffffffffffffffffffffffffffffffffff160217905550808273ffffffffffffffffffffffffffffffffffffffff16600073ffffffffffffffffffffffffffffffffffffffff167fddf252ad1be2c89b69c2b068fc378daa952ba7f163c4a11628f55a4df523b3ef60405160405180910390a46127ea600083836120a0565b5050565b6000808273ffffffffffffffffffffffffffffffffffffffff163b119050919050565b82805461281d90613842565b90600052602060002090601f01602090048101928261283f5760008555612886565b82601f1061285857805160ff1916838001178555612886565b82800160010185558215612886579182015b8281111561288557825182559160200191906001019061286a565b5b5090506128939190612897565b5090565b5b808211156128b0576000816000905550600101612898565b5090565b60006128c76128c28461340b565b6133e6565b9050828152602081018484840111156128df57600080fd5b6128ea848285613800565b509392505050565b60006129056129008461343c565b6133e6565b90508281526020810184848401111561291d57600080fd5b612928848285613800565b509392505050565b60008135905061293f81613f32565b92915050565b60008135905061295481613f49565b92915050565b60008135905061296981613f60565b92915050565b60008151905061297e81613f60565b92915050565b600082601f83011261299557600080fd5b81356129a58482602086016128b4565b91505092915050565b6000813590506129bd81613f77565b92915050565b600082601f8301126129d457600080fd5b81356129e48482602086016128f2565b91505092915050565b6000813590506129fc81613f87565b92915050565b600081519050612a1181613f9e565b92915050565b600060208284031215612a2957600080fd5b6000612a3784828501612930565b91505092915050565b60008060408385031215612a5357600080fd5b6000612a6185828601612930565b9250506020612a7285828601612930565b9150509250929050565b600080600060608486031215612a9157600080fd5b6000612a9f86828701612930565b9350506020612ab086828701612930565b9250506040612ac1868287016129ed565b9150509250925092565b60008060008060808587031215612ae157600080fd5b6000612aef87828801612930565b9450506020612b0087828801612930565b9350506040612b11878288016129ed565b925050606085013567ffffffffffffffff811115612b2e57600080fd5b612b3a87828801612984565b91505092959194509250565b60008060408385031215612b5957600080fd5b6000612b6785828601612930565b9250506020612b7885828601612945565b9150509250929050565b600080600060608486031215612b9757600080fd5b6000612ba586828701612930565b9350506020612bb6868287016129ae565b9250506040612bc7868287016129ed565b9150509250925092565b60008060408385031215612be457600080fd5b6000612bf285828601612930565b9250506020612c03858286016129ed565b9150509250929050565b600060208284031215612c1f57600080fd5b6000612c2d8482850161295a565b91505092915050565b600060208284031215612c4857600080fd5b6000612c568482850161296f565b91505092915050565b600060208284031215612c7157600080fd5b600082013567ffffffffffffffff811115612c8b57600080fd5b612c97848285016129c3565b91505092915050565b600060208284031215612cb257600080fd5b6000612cc0848285016129ed565b91505092915050565b600060208284031215612cdb57600080fd5b6000612ce984828501612a02565b91505092915050565b612cfb81613736565b82525050565b612d0a81613748565b82525050565b6000612d1b8261346d565b612d258185613483565b9350612d3581856020860161380f565b612d3e81613a0a565b840191505092915050565b612d52816137ca565b82525050565b612d61816137ee565b82525050565b6000612d7282613478565b612d7c8185613494565b9350612d8c81856020860161380f565b612d9581613a0a565b840191505092915050565b6000612dab82613478565b612db581856134a5565b9350612dc581856020860161380f565b80840191505092915050565b6000612dde602b83613494565b9150612de982613a28565b604082019050919050565b6000612e01603283613494565b9150612e0c82613a77565b604082019050919050565b6000612e24602683613494565b9150612e2f82613ac6565b604082019050919050565b6000612e47602583613494565b9150612e5282613b15565b604082019050919050565b6000612e6a601c83613494565b9150612e7582613b64565b602082019050919050565b6000612e8d602483613494565b9150612e9882613b8d565b604082019050919050565b6000612eb0601983613494565b9150612ebb82613bdc565b602082019050919050565b6000612ed3602c83613494565b9150612ede82613c05565b604082019050919050565b6000612ef6603883613494565b9150612f0182613c54565b604082019050919050565b6000612f19602a83613494565b9150612f2482613ca3565b604082019050919050565b6000612f3c602983613494565b9150612f4782613cf2565b604082019050919050565b6000612f5f602083613494565b9150612f6a82613d41565b602082019050919050565b6000612f82602c83613494565b9150612f8d82613d6a565b604082019050919050565b6000612fa5602083613494565b9150612fb082613db9565b602082019050919050565b6000612fc8602f83613494565b9150612fd382613de2565b604082019050919050565b6000612feb602183613494565b9150612ff682613e31565b604082019050919050565b600061300e603183613494565b915061301982613e80565b604082019050919050565b6000613031602c83613494565b915061303c82613ecf565b604082019050919050565b613050816137b3565b82525050565b60006130628285612da0565b915061306e8284612da0565b91508190509392505050565b600060208201905061308f6000830184612cf2565b92915050565b60006080820190506130aa6000830187612cf2565b6130b76020830186612cf2565b6130c46040830185613047565b81810360608301526130d68184612d10565b905095945050505050565b60006040820190506130f66000830185612cf2565b6131036020830184613047565b9392505050565b600060208201905061311f6000830184612d01565b92915050565b600060208201905061313a6000830184612d49565b92915050565b60006040820190506131556000830185612d58565b6131626020830184613047565b9392505050565b600060208201905081810360008301526131838184612d67565b905092915050565b600060208201905081810360008301526131a481612dd1565b9050919050565b600060208201905081810360008301526131c481612df4565b9050919050565b600060208201905081810360008301526131e481612e17565b9050919050565b6000602082019050818103600083015261320481612e3a565b9050919050565b6000602082019050818103600083015261322481612e5d565b9050919050565b6000602082019050818103600083015261324481612e80565b9050919050565b6000602082019050818103600083015261326481612ea3565b9050919050565b6000602082019050818103600083015261328481612ec6565b9050919050565b600060208201905081810360008301526132a481612ee9565b9050919050565b600060208201905081810360008301526132c481612f0c565b9050919050565b600060208201905081810360008301526132e481612f2f565b9050919050565b6000602082019050818103600083015261330481612f52565b9050919050565b6000602082019050818103600083015261332481612f75565b9050919050565b6000602082019050818103600083015261334481612f98565b9050919050565b6000602082019050818103600083015261336481612fbb565b9050919050565b6000602082019050818103600083015261338481612fde565b9050919050565b600060208201905081810360008301526133a481613001565b9050919050565b600060208201905081810360008301526133c481613024565b9050919050565b60006020820190506133e06000830184613047565b92915050565b60006133f0613401565b90506133fc8282613874565b919050565b6000604051905090565b600067ffffffffffffffff821115613426576134256139db565b5b61342f82613a0a565b9050602081019050919050565b600067ffffffffffffffff821115613457576134566139db565b5b61346082613a0a565b9050602081019050919050565b600081519050919050565b600081519050919050565b600082825260208201905092915050565b600082825260208201905092915050565b600081905092915050565b60006134bb826137b3565b91506134c6836137b3565b9250827fffffffffffffffffffffffffffffffffffffffffffffffffffffffffffffffff038211156134fb576134fa61391f565b5b828201905092915050565b6000613511826137b3565b915061351c836137b3565b92508261352c5761352b61394e565b5b828204905092915050565b6000808291508390505b60018511156135815780860481111561355d5761355c61391f565b5b600185161561356c5780820291505b808102905061357a85613a1b565b9450613541565b94509492505050565b6000613595826137b3565b91506135a0836137bd565b92506135cd7fffffffffffffffffffffffffffffffffffffffffffffffffffffffffffffffff84846135d5565b905092915050565b6000826135e557600190506136a1565b816135f357600090506136a1565b8160018114613609576002811461361357613642565b60019150506136a1565b60ff8411156136255761362461391f565b5b8360020a91508482111561363c5761363b61391f565b5b506136a1565b5060208310610133831016604e8410600b84101617156136775782820a9050838111156136725761367161391f565b5b6136a1565b6136848484846001613537565b9250905081840481111561369b5761369a61391f565b5b81810290505b9392505050565b60006136b3826137b3565b91506136be836137b3565b9250817fffffffffffffffffffffffffffffffffffffffffffffffffffffffffffffffff04831182151516156136f7576136f661391f565b5b828202905092915050565b600061370d826137b3565b9150613718836137b3565b92508282101561372b5761372a61391f565b5b828203905092915050565b600061374182613793565b9050919050565b60008115159050919050565b60007fffffffff0000000000000000000000000000000000000000000000000000000082169050919050565b600081905061378e82613f1e565b919050565b600073ffffffffffffffffffffffffffffffffffffffff82169050919050565b6000819050919050565b600060ff82169050919050565b60006137d5826137dc565b9050919050565b60006137e782613793565b9050919050565b60006137f982613780565b9050919050565b82818337600083830152505050565b60005b8381101561382d578082015181840152602081019050613812565b8381111561383c576000848401525b50505050565b6000600282049050600182168061385a57607f821691505b6020821081141561386e5761386d6139ac565b5b50919050565b61387d82613a0a565b810181811067ffffffffffffffff8211171561389c5761389b6139db565b5b80604052505050565b60006138b0826137b3565b91507fffffffffffffffffffffffffffffffffffffffffffffffffffffffffffffffff8214156138e3576138e261391f565b5b600182019050919050565b60006138f9826137b3565b9150613904836137b3565b9250826139145761391361394e565b5b828206905092915050565b7f4e487b7100000000000000000000000000000000000000000000000000000000600052601160045260246000fd5b7f4e487b7100000000000000000000000000000000000000000000000000000000600052601260045260246000fd5b7f4e487b7100000000000000000000000000000000000000000000000000000000600052602160045260246000fd5b7f4e487b7100000000000000000000000000000000000000000000000000000000600052602260045260246000fd5b7f4e487b7100000000000000000000000000000000000000000000000000000000600052604160045260246000fd5b6000601f19601f8301169050919050565b60008160011c9050919050565b7f455243373231456e756d657261626c653a206f776e657220696e646578206f7560008201527f74206f6620626f756e6473000000000000000000000000000000000000000000602082015250565b7f4552433732313a207472616e7366657220746f206e6f6e20455243373231526560008201527f63656976657220696d706c656d656e7465720000000000000000000000000000602082015250565b7f4f776e61626c653a206e6577206f776e657220697320746865207a65726f206160008201527f6464726573730000000000000000000000000000000000000000000000000000602082015250565b7f4552433732313a207472616e736665722066726f6d20696e636f72726563742060008201527f6f776e6572000000000000000000000000000000000000000000000000000000602082015250565b7f4552433732313a20746f6b656e20616c7265616479206d696e74656400000000600082015250565b7f4552433732313a207472616e7366657220746f20746865207a65726f2061646460008201527f7265737300000000000000000000000000000000000000000000000000000000602082015250565b7f4552433732313a20617070726f766520746f2063616c6c657200000000000000600082015250565b7f4552433732313a206f70657261746f7220717565727920666f72206e6f6e657860008201527f697374656e7420746f6b656e0000000000000000000000000000000000000000602082015250565b7f4552433732313a20617070726f76652063616c6c6572206973206e6f74206f7760008201527f6e6572206e6f7220617070726f76656420666f7220616c6c0000000000000000602082015250565b7f4552433732313a2062616c616e636520717565727920666f7220746865207a6560008201527f726f206164647265737300000000000000000000000000000000000000000000602082015250565b7f4552433732313a206f776e657220717565727920666f72206e6f6e657869737460008201527f656e7420746f6b656e0000000000000000000000000000000000000000000000602082015250565b7f4552433732313a206d696e7420746f20746865207a65726f2061646472657373600082015250565b7f4552433732313a20617070726f76656420717565727920666f72206e6f6e657860008201527f697374656e7420746f6b656e0000000000000000000000000000000000000000602082015250565b7f4f776e61626c653a2063616c6c6572206973206e6f7420746865206f776e6572600082015250565b7f4552433732314d657461646174613a2055524920717565727920666f72206e6f60008201527f6e6578697374656e7420746f6b656e0000000000000000000000000000000000602082015250565b7f4552433732313a20617070726f76616c20746f2063757272656e74206f776e6560008201527f7200000000000000000000000000000000000000000000000000000000000000602082015250565b7f4552433732313a207472616e736665722063616c6c6572206973206e6f74206f60008201527f776e6572206e6f7220617070726f766564000000000000000000000000000000602082015250565b7f455243373231456e756d657261626c653a20676c6f62616c20696e646578206f60008201527f7574206f6620626f756e64730000000000000000000000000000000000000000602082015250565b60068110613f2f57613f2e61397d565b5b50565b613f3b81613736565b8114613f4657600080fd5b50565b613f5281613748565b8114613f5d57600080fd5b50565b613f6981613754565b8114613f7457600080fd5b50565b60068110613f8457600080fd5b50565b613f90816137b3565b8114613f9b57600080fd5b50565b613fa7816137bd565b8114613fb257600080fd5b5056fea26469706673582212200989ea5901c780c6ef260120656ef9c9f6ff152ead868ea0bb865779522fa0f064736f6c63430008010033",
  "immutableReferences": {},
  "source": "// SPDX-License-Identifier: MIT\npragma solidity ^0.8.0;\nimport \"@openzeppelin/contracts/token/ERC721/extensions/ERC721Enumerable.sol\";\nimport \"@openzeppelin/contracts/access/Ownable.sol\";\nimport \"@openzeppelin/contracts/utils/Counters.sol\";\nimport \"./CaoToken.sol\";\n\ncontract AvatarNFT is ERC721Enumerable, Ownable {\n    using Counters for Counters.Counter;\n    struct Avatar {\n        Rank rank;\n        uint256 arrivalDate;\n    }\n    enum Rank {\n        junior1,\n        junior2,\n        senior,\n        senior2,\n        manager,\n        partner\n    }\n    mapping(uint256 => Avatar) public avatarById;\n\n    string public baseTokenURI;\n    CaoToken public governanceToken;\n    Counters.Counter private _tokenIdCounter;\n\n    constructor(\n        string memory _baseUri,\n        string memory _tokenName,\n        string memory _symbol,\n        CaoToken _caoToken\n    ) ERC721(_tokenName, _symbol) {\n        setBaseUri(_baseUri);\n        governanceToken = _caoToken;\n    }\n\n    function mint(\n        address _receiver,\n        Rank _rank,\n        uint256 _arrivalDate\n    ) public onlyOwner {\n        uint256 tokenId = _tokenIdCounter.current();\n        _tokenIdCounter.increment();\n        _safeMint(_receiver, tokenId);\n        avatarById[tokenId] = Avatar(_rank, _arrivalDate);\n        governanceToken.mint(\n            _receiver,\n            (uint256(_rank) + 5) * 10**governanceToken.decimals()\n        );\n    }\n\n    function _baseURI() internal view virtual override returns (string memory) {\n        return baseTokenURI;\n    }\n\n    function setBaseUri(string memory _baseUri) public onlyOwner {\n        baseTokenURI = _baseUri;\n    }\n\n    function burn(uint256 _tokenId) public onlyOwner {\n        _burn(_tokenId);\n    }\n}\n",
  "sourcePath": "/home/aymeric/Documents/hackathon-dao/dao-project/contracts/AvatarNFT.sol",
  "compiler": {
    "name": "solc",
    "version": "0.8.1+commit.df193b15.Emscripten.clang"
  },
  "schemaVersion": "3.4.6",
  "updatedAt": "2022-04-10T10:12:45.914Z",
  "networkType": "ethereum",
  "devdoc": {
    "kind": "dev",
    "methods": {
      "approve(address,uint256)": {
        "details": "See {IERC721-approve}."
      },
      "balanceOf(address)": {
        "details": "See {IERC721-balanceOf}."
      },
      "getApproved(uint256)": {
        "details": "See {IERC721-getApproved}."
      },
      "isApprovedForAll(address,address)": {
        "details": "See {IERC721-isApprovedForAll}."
      },
      "name()": {
        "details": "See {IERC721Metadata-name}."
      },
      "owner()": {
        "details": "Returns the address of the current owner."
      },
      "ownerOf(uint256)": {
        "details": "See {IERC721-ownerOf}."
      },
      "renounceOwnership()": {
        "details": "Leaves the contract without owner. It will not be possible to call `onlyOwner` functions anymore. Can only be called by the current owner. NOTE: Renouncing ownership will leave the contract without an owner, thereby removing any functionality that is only available to the owner."
      },
      "safeTransferFrom(address,address,uint256)": {
        "details": "See {IERC721-safeTransferFrom}."
      },
      "safeTransferFrom(address,address,uint256,bytes)": {
        "details": "See {IERC721-safeTransferFrom}."
      },
      "setApprovalForAll(address,bool)": {
        "details": "See {IERC721-setApprovalForAll}."
      },
      "supportsInterface(bytes4)": {
        "details": "See {IERC165-supportsInterface}."
      },
      "symbol()": {
        "details": "See {IERC721Metadata-symbol}."
      },
      "tokenByIndex(uint256)": {
        "details": "See {IERC721Enumerable-tokenByIndex}."
      },
      "tokenOfOwnerByIndex(address,uint256)": {
        "details": "See {IERC721Enumerable-tokenOfOwnerByIndex}."
      },
      "tokenURI(uint256)": {
        "details": "See {IERC721Metadata-tokenURI}."
      },
      "totalSupply()": {
        "details": "See {IERC721Enumerable-totalSupply}."
      },
      "transferFrom(address,address,uint256)": {
        "details": "See {IERC721-transferFrom}."
      },
      "transferOwnership(address)": {
        "details": "Transfers ownership of the contract to a new account (`newOwner`). Can only be called by the current owner."
      }
    },
    "version": 1
  },
  "userdoc": {
    "kind": "user",
    "methods": {},
    "version": 1
  }
}