{
  "contractName": "Cao",
  "abi": [
    {
      "inputs": [
        {
          "internalType": "contract IVotes",
          "name": "_token",
          "type": "address"
        }
      ],
      "stateMutability": "nonpayable",
      "type": "constructor"
    },
    {
      "anonymous": false,
      "inputs": [
        {
          "indexed": false,
          "internalType": "uint256",
          "name": "proposalId",
          "type": "uint256"
        }
      ],
      "name": "ProposalCanceled",
      "type": "event"
    },
    {
      "anonymous": false,
      "inputs": [
        {
          "indexed": false,
          "internalType": "uint256",
          "name": "proposalId",
          "type": "uint256"
        },
        {
          "indexed": false,
          "internalType": "address",
          "name": "proposer",
          "type": "address"
        },
        {
          "indexed": false,
          "internalType": "address[]",
          "name": "targets",
          "type": "address[]"
        },
        {
          "indexed": false,
          "internalType": "uint256[]",
          "name": "values",
          "type": "uint256[]"
        },
        {
          "indexed": false,
          "internalType": "string[]",
          "name": "signatures",
          "type": "string[]"
        },
        {
          "indexed": false,
          "internalType": "bytes[]",
          "name": "calldatas",
          "type": "bytes[]"
        },
        {
          "indexed": false,
          "internalType": "uint256",
          "name": "startBlock",
          "type": "uint256"
        },
        {
          "indexed": false,
          "internalType": "uint256",
          "name": "endBlock",
          "type": "uint256"
        },
        {
          "indexed": false,
          "internalType": "string",
          "name": "description",
          "type": "string"
        }
      ],
      "name": "ProposalCreated",
      "type": "event"
    },
    {
      "anonymous": false,
      "inputs": [
        {
          "indexed": false,
          "internalType": "uint256",
          "name": "proposalId",
          "type": "uint256"
        }
      ],
      "name": "ProposalExecuted",
      "type": "event"
    },
    {
      "anonymous": false,
      "inputs": [
        {
          "indexed": false,
          "internalType": "uint256",
          "name": "oldProposalThreshold",
          "type": "uint256"
        },
        {
          "indexed": false,
          "internalType": "uint256",
          "name": "newProposalThreshold",
          "type": "uint256"
        }
      ],
      "name": "ProposalThresholdSet",
      "type": "event"
    },
    {
      "anonymous": false,
      "inputs": [
        {
          "indexed": false,
          "internalType": "uint256",
          "name": "oldQuorumNumerator",
          "type": "uint256"
        },
        {
          "indexed": false,
          "internalType": "uint256",
          "name": "newQuorumNumerator",
          "type": "uint256"
        }
      ],
      "name": "QuorumNumeratorUpdated",
      "type": "event"
    },
    {
      "anonymous": false,
      "inputs": [
        {
          "indexed": true,
          "internalType": "address",
          "name": "voter",
          "type": "address"
        },
        {
          "indexed": false,
          "internalType": "uint256",
          "name": "proposalId",
          "type": "uint256"
        },
        {
          "indexed": false,
          "internalType": "uint8",
          "name": "support",
          "type": "uint8"
        },
        {
          "indexed": false,
          "internalType": "uint256",
          "name": "weight",
          "type": "uint256"
        },
        {
          "indexed": false,
          "internalType": "string",
          "name": "reason",
          "type": "string"
        }
      ],
      "name": "VoteCast",
      "type": "event"
    },
    {
      "anonymous": false,
      "inputs": [
        {
          "indexed": false,
          "internalType": "uint256",
          "name": "oldVotingDelay",
          "type": "uint256"
        },
        {
          "indexed": false,
          "internalType": "uint256",
          "name": "newVotingDelay",
          "type": "uint256"
        }
      ],
      "name": "VotingDelaySet",
      "type": "event"
    },
    {
      "anonymous": false,
      "inputs": [
        {
          "indexed": false,
          "internalType": "uint256",
          "name": "oldVotingPeriod",
          "type": "uint256"
        },
        {
          "indexed": false,
          "internalType": "uint256",
          "name": "newVotingPeriod",
          "type": "uint256"
        }
      ],
      "name": "VotingPeriodSet",
      "type": "event"
    },
    {
      "inputs": [],
      "name": "BALLOT_TYPEHASH",
      "outputs": [
        {
          "internalType": "bytes32",
          "name": "",
          "type": "bytes32"
        }
      ],
      "stateMutability": "view",
      "type": "function",
      "constant": true
    },
    {
      "inputs": [],
      "name": "COUNTING_MODE",
      "outputs": [
        {
          "internalType": "string",
          "name": "",
          "type": "string"
        }
      ],
      "stateMutability": "pure",
      "type": "function",
      "constant": true
    },
    {
      "inputs": [
        {
          "internalType": "uint256",
          "name": "proposalId",
          "type": "uint256"
        },
        {
          "internalType": "uint8",
          "name": "support",
          "type": "uint8"
        }
      ],
      "name": "castVote",
      "outputs": [
        {
          "internalType": "uint256",
          "name": "",
          "type": "uint256"
        }
      ],
      "stateMutability": "nonpayable",
      "type": "function"
    },
    {
      "inputs": [
        {
          "internalType": "uint256",
          "name": "proposalId",
          "type": "uint256"
        },
        {
          "internalType": "uint8",
          "name": "support",
          "type": "uint8"
        },
        {
          "internalType": "uint8",
          "name": "v",
          "type": "uint8"
        },
        {
          "internalType": "bytes32",
          "name": "r",
          "type": "bytes32"
        },
        {
          "internalType": "bytes32",
          "name": "s",
          "type": "bytes32"
        }
      ],
      "name": "castVoteBySig",
      "outputs": [
        {
          "internalType": "uint256",
          "name": "",
          "type": "uint256"
        }
      ],
      "stateMutability": "nonpayable",
      "type": "function"
    },
    {
      "inputs": [
        {
          "internalType": "uint256",
          "name": "proposalId",
          "type": "uint256"
        },
        {
          "internalType": "uint8",
          "name": "support",
          "type": "uint8"
        },
        {
          "internalType": "string",
          "name": "reason",
          "type": "string"
        }
      ],
      "name": "castVoteWithReason",
      "outputs": [
        {
          "internalType": "uint256",
          "name": "",
          "type": "uint256"
        }
      ],
      "stateMutability": "nonpayable",
      "type": "function"
    },
    {
      "inputs": [
        {
          "internalType": "address[]",
          "name": "targets",
          "type": "address[]"
        },
        {
          "internalType": "uint256[]",
          "name": "values",
          "type": "uint256[]"
        },
        {
          "internalType": "bytes[]",
          "name": "calldatas",
          "type": "bytes[]"
        },
        {
          "internalType": "bytes32",
          "name": "descriptionHash",
          "type": "bytes32"
        }
      ],
      "name": "execute",
      "outputs": [
        {
          "internalType": "uint256",
          "name": "",
          "type": "uint256"
        }
      ],
      "stateMutability": "payable",
      "type": "function",
      "payable": true
    },
    {
      "inputs": [
        {
          "internalType": "uint256",
          "name": "proposalId",
          "type": "uint256"
        },
        {
          "internalType": "address",
          "name": "account",
          "type": "address"
        }
      ],
      "name": "hasVoted",
      "outputs": [
        {
          "internalType": "bool",
          "name": "",
          "type": "bool"
        }
      ],
      "stateMutability": "view",
      "type": "function",
      "constant": true
    },
    {
      "inputs": [
        {
          "internalType": "address[]",
          "name": "targets",
          "type": "address[]"
        },
        {
          "internalType": "uint256[]",
          "name": "values",
          "type": "uint256[]"
        },
        {
          "internalType": "bytes[]",
          "name": "calldatas",
          "type": "bytes[]"
        },
        {
          "internalType": "bytes32",
          "name": "descriptionHash",
          "type": "bytes32"
        }
      ],
      "name": "hashProposal",
      "outputs": [
        {
          "internalType": "uint256",
          "name": "",
          "type": "uint256"
        }
      ],
      "stateMutability": "pure",
      "type": "function",
      "constant": true
    },
    {
      "inputs": [],
      "name": "name",
      "outputs": [
        {
          "internalType": "string",
          "name": "",
          "type": "string"
        }
      ],
      "stateMutability": "view",
      "type": "function",
      "constant": true
    },
    {
      "inputs": [
        {
          "internalType": "uint256",
          "name": "proposalId",
          "type": "uint256"
        }
      ],
      "name": "proposalDeadline",
      "outputs": [
        {
          "internalType": "uint256",
          "name": "",
          "type": "uint256"
        }
      ],
      "stateMutability": "view",
      "type": "function",
      "constant": true
    },
    {
      "inputs": [
        {
          "internalType": "uint256",
          "name": "proposalId",
          "type": "uint256"
        }
      ],
      "name": "proposalSnapshot",
      "outputs": [
        {
          "internalType": "uint256",
          "name": "",
          "type": "uint256"
        }
      ],
      "stateMutability": "view",
      "type": "function",
      "constant": true
    },
    {
      "inputs": [
        {
          "internalType": "uint256",
          "name": "proposalId",
          "type": "uint256"
        }
      ],
      "name": "proposalVotes",
      "outputs": [
        {
          "internalType": "uint256",
          "name": "againstVotes",
          "type": "uint256"
        },
        {
          "internalType": "uint256",
          "name": "forVotes",
          "type": "uint256"
        },
        {
          "internalType": "uint256",
          "name": "abstainVotes",
          "type": "uint256"
        }
      ],
      "stateMutability": "view",
      "type": "function",
      "constant": true
    },
    {
      "inputs": [
        {
          "internalType": "address[]",
          "name": "targets",
          "type": "address[]"
        },
        {
          "internalType": "uint256[]",
          "name": "values",
          "type": "uint256[]"
        },
        {
          "internalType": "bytes[]",
          "name": "calldatas",
          "type": "bytes[]"
        },
        {
          "internalType": "string",
          "name": "description",
          "type": "string"
        }
      ],
      "name": "propose",
      "outputs": [
        {
          "internalType": "uint256",
          "name": "",
          "type": "uint256"
        }
      ],
      "stateMutability": "nonpayable",
      "type": "function"
    },
    {
      "inputs": [],
      "name": "quorumDenominator",
      "outputs": [
        {
          "internalType": "uint256",
          "name": "",
          "type": "uint256"
        }
      ],
      "stateMutability": "view",
      "type": "function",
      "constant": true
    },
    {
      "inputs": [],
      "name": "quorumNumerator",
      "outputs": [
        {
          "internalType": "uint256",
          "name": "",
          "type": "uint256"
        }
      ],
      "stateMutability": "view",
      "type": "function",
      "constant": true
    },
    {
      "inputs": [
        {
          "internalType": "address",
          "name": "target",
          "type": "address"
        },
        {
          "internalType": "uint256",
          "name": "value",
          "type": "uint256"
        },
        {
          "internalType": "bytes",
          "name": "data",
          "type": "bytes"
        }
      ],
      "name": "relay",
      "outputs": [],
      "stateMutability": "nonpayable",
      "type": "function"
    },
    {
      "inputs": [
        {
          "internalType": "uint256",
          "name": "newProposalThreshold",
          "type": "uint256"
        }
      ],
      "name": "setProposalThreshold",
      "outputs": [],
      "stateMutability": "nonpayable",
      "type": "function"
    },
    {
      "inputs": [
        {
          "internalType": "uint256",
          "name": "newVotingDelay",
          "type": "uint256"
        }
      ],
      "name": "setVotingDelay",
      "outputs": [],
      "stateMutability": "nonpayable",
      "type": "function"
    },
    {
      "inputs": [
        {
          "internalType": "uint256",
          "name": "newVotingPeriod",
          "type": "uint256"
        }
      ],
      "name": "setVotingPeriod",
      "outputs": [],
      "stateMutability": "nonpayable",
      "type": "function"
    },
    {
      "inputs": [
        {
          "internalType": "uint256",
          "name": "proposalId",
          "type": "uint256"
        }
      ],
      "name": "state",
      "outputs": [
        {
          "internalType": "enum IGovernor.ProposalState",
          "name": "",
          "type": "uint8"
        }
      ],
      "stateMutability": "view",
      "type": "function",
      "constant": true
    },
    {
      "inputs": [
        {
          "internalType": "bytes4",
          "name": "interfaceId",
          "type": "bytes4"
        }
      ],
      "name": "supportsInterface",
      "outputs": [
        {
          "internalType": "bool",
          "name": "",
          "type": "bool"
        }
      ],
      "stateMutability": "view",
      "type": "function",
      "constant": true
    },
    {
      "inputs": [],
      "name": "token",
      "outputs": [
        {
          "internalType": "contract IVotes",
          "name": "",
          "type": "address"
        }
      ],
      "stateMutability": "view",
      "type": "function",
      "constant": true
    },
    {
      "inputs": [
        {
          "internalType": "uint256",
          "name": "newQuorumNumerator",
          "type": "uint256"
        }
      ],
      "name": "updateQuorumNumerator",
      "outputs": [],
      "stateMutability": "nonpayable",
      "type": "function"
    },
    {
      "inputs": [],
      "name": "version",
      "outputs": [
        {
          "internalType": "string",
          "name": "",
          "type": "string"
        }
      ],
      "stateMutability": "view",
      "type": "function",
      "constant": true
    },
    {
      "stateMutability": "payable",
      "type": "receive",
      "payable": true
    },
    {
      "inputs": [],
      "name": "votingDelay",
      "outputs": [
        {
          "internalType": "uint256",
          "name": "",
          "type": "uint256"
        }
      ],
      "stateMutability": "view",
      "type": "function",
      "constant": true
    },
    {
      "inputs": [],
      "name": "votingPeriod",
      "outputs": [
        {
          "internalType": "uint256",
          "name": "",
          "type": "uint256"
        }
      ],
      "stateMutability": "view",
      "type": "function",
      "constant": true
    },
    {
      "inputs": [
        {
          "internalType": "uint256",
          "name": "blockNumber",
          "type": "uint256"
        }
      ],
      "name": "quorum",
      "outputs": [
        {
          "internalType": "uint256",
          "name": "",
          "type": "uint256"
        }
      ],
      "stateMutability": "view",
      "type": "function",
      "constant": true
    },
    {
      "inputs": [
        {
          "internalType": "address",
          "name": "account",
          "type": "address"
        },
        {
          "internalType": "uint256",
          "name": "blockNumber",
          "type": "uint256"
        }
      ],
      "name": "getVotes",
      "outputs": [
        {
          "internalType": "uint256",
          "name": "",
          "type": "uint256"
        }
      ],
      "stateMutability": "view",
      "type": "function",
      "constant": true
    },
    {
      "inputs": [],
      "name": "proposalThreshold",
      "outputs": [
        {
          "internalType": "uint256",
          "name": "",
          "type": "uint256"
        }
      ],
      "stateMutability": "view",
      "type": "function",
      "constant": true
    }
  ],
  "bytecode": "0x6101606040523480156200001257600080fd5b50604051620051ad380380620051ad8339818101604052810190620000389190620004e5565b6003816001608860006040518060400160405280600381526020017f43616f00000000000000000000000000000000000000000000000000000000008152508062000088620001df60201b60201c565b60008280519060200120905060008280519060200120905060007f8b73c3c69bb8fe3d512ecc4cf759cc79239f7b179b0ffacaa9a75d522b39400f90508260e081815250508161010081815250504660a08181525050620000f18184846200021c60201b60201c565b608081815250503073ffffffffffffffffffffffffffffffffffffffff1660c08173ffffffffffffffffffffffffffffffffffffffff1660601b8152505080610120818152505050505050508060009080519060200190620001559291906200041e565b505062000168836200025860201b60201c565b62000179826200029f60201b60201c565b6200018a816200032c60201b60201c565b5050508073ffffffffffffffffffffffffffffffffffffffff166101408173ffffffffffffffffffffffffffffffffffffffff1660601b8152505050620001d7816200037360201b60201c565b505062000810565b60606040518060400160405280600181526020017f3100000000000000000000000000000000000000000000000000000000000000815250905090565b600083838346306040516020016200023995949392919062000592565b6040516020818303038152906040528051906020012090509392505050565b7fc565b045403dc03c2eea82b81a0465edad9e2e7fc4d97e11421c209da93d7a93600254826040516200028d92919062000633565b60405180910390a18060028190555050565b60008111620002e5576040517f08c379a0000000000000000000000000000000000000000000000000000000008152600401620002dc9062000611565b60405180910390fd5b7f7e3f7f0708a84de9203036abaa450dccc85ad5ff52f78c170f3edb55cf5e8828600354826040516200031a92919062000633565b60405180910390a18060038190555050565b7fccb45da8d5717e6c4544694297c4ba5cf151d455c9bb0ed4fc7a38411bc05461600454826040516200036192919062000633565b60405180910390a18060048190555050565b620003836200041560201b60201c565b811115620003c8576040517f08c379a0000000000000000000000000000000000000000000000000000000008152600401620003bf90620005ef565b60405180910390fd5b60006006549050816006819055507f0553476bf02ef2726e8ce5ced78d63e26e602e4a2257b1f559418e24b463399781836040516200040992919062000633565b60405180910390a15050565b60006064905090565b8280546200042c90620006cd565b90600052602060002090601f0160209004810192826200045057600085556200049c565b82601f106200046b57805160ff19168380011785556200049c565b828001600101855582156200049c579182015b828111156200049b5782518255916020019190600101906200047e565b5b509050620004ab9190620004af565b5090565b5b80821115620004ca576000816000905550600101620004b0565b5090565b600081519050620004df81620007f6565b92915050565b600060208284031215620004f857600080fd5b60006200050884828501620004ce565b91505092915050565b6200051c8162000671565b82525050565b6200052d8162000685565b82525050565b60006200054260438362000660565b91506200054f8262000732565b606082019050919050565b60006200056960278362000660565b91506200057682620007a7565b604082019050919050565b6200058c81620006c3565b82525050565b600060a082019050620005a9600083018862000522565b620005b8602083018762000522565b620005c7604083018662000522565b620005d6606083018562000581565b620005e5608083018462000511565b9695505050505050565b600060208201905081810360008301526200060a8162000533565b9050919050565b600060208201905081810360008301526200062c816200055a565b9050919050565b60006040820190506200064a600083018562000581565b62000659602083018462000581565b9392505050565b600082825260208201905092915050565b60006200067e82620006a3565b9050919050565b6000819050919050565b60006200069c8262000671565b9050919050565b600073ffffffffffffffffffffffffffffffffffffffff82169050919050565b6000819050919050565b60006002820490506001821680620006e657607f821691505b60208210811415620006fd57620006fc62000703565b5b50919050565b7f4e487b7100000000000000000000000000000000000000000000000000000000600052602260045260246000fd5b7f476f7665726e6f72566f74657351756f72756d4672616374696f6e3a2071756f60008201527f72756d4e756d657261746f72206f7665722071756f72756d44656e6f6d696e6160208201527f746f720000000000000000000000000000000000000000000000000000000000604082015250565b7f476f7665726e6f7253657474696e67733a20766f74696e6720706572696f642060008201527f746f6f206c6f7700000000000000000000000000000000000000000000000000602082015250565b62000801816200068f565b81146200080d57600080fd5b50565b60805160a05160c05160601c60e05161010051610120516101405160601c61492e6200087f600039600081816115c701528181611c940152611d9e01526000611f7501526000611fb701526000611f9601526000611ecb01526000611f2101526000611f4a015261492e6000f3fe6080604052600436106101c65760003560e01c80637b3c71d3116100f7578063c59057e411610095578063eb9019d411610064578063eb9019d414610709578063ece40cc114610746578063f8ce560a1461076f578063fc0c546a146107ac5761020c565b8063c59057e41461064d578063dd4e2ba51461068a578063deaaa7cc146106b5578063ea0217cf146106e05761020c565b8063a7713a70116100d1578063a7713a7014610591578063b58131b0146105bc578063c01f9e37146105e7578063c28bc2fa146106245761020c565b80637b3c71d3146104ec5780637d5e81e21461052957806397c3d334146105665761020c565b80633bccf4fd11610164578063544ffc9c1161013e578063544ffc9c1461041c57806354fd4d501461045b578063567813881461048657806370b0f660146104c35761020c565b80633bccf4fd146103655780633e4f49e6146103a257806343859632146103df5761020c565b806306fdde03116101a057806306fdde03146102a25780632656227d146102cd5780632d63f693146102fd5780633932abb11461033a5761020c565b806301ffc9a71461021157806302a251a31461024e57806306f3f9e6146102795761020c565b3661020c573073ffffffffffffffffffffffffffffffffffffffff166101ea6107d7565b73ffffffffffffffffffffffffffffffffffffffff161461020a57600080fd5b005b600080fd5b34801561021d57600080fd5b5061023860048036038101906102339190612e06565b6107df565b60405161024591906136f0565b60405180910390f35b34801561025a57600080fd5b50610263610859565b6040516102709190613aad565b60405180910390f35b34801561028557600080fd5b506102a0600480360381019061029b9190612e2f565b610868565b005b3480156102ae57600080fd5b506102b76108f0565b6040516102c4919061382b565b60405180910390f35b6102e760048036038101906102e29190612c98565b610982565b6040516102f49190613aad565b60405180910390f35b34801561030957600080fd5b50610324600480360381019061031f9190612e2f565b610b4d565b6040516103319190613aad565b60405180910390f35b34801561034657600080fd5b5061034f610bbb565b60405161035c9190613aad565b60405180910390f35b34801561037157600080fd5b5061038c60048036038101906103879190612f65565b610bca565b6040516103999190613aad565b60405180910390f35b3480156103ae57600080fd5b506103c960048036038101906103c49190612e2f565b610c54565b6040516103d69190613810565b60405180910390f35b3480156103eb57600080fd5b5061040660048036038101906104019190612e81565b610d69565b60405161041391906136f0565b60405180910390f35b34801561042857600080fd5b50610443600480360381019061043e9190612e2f565b610dd4565b60405161045293929190613ba1565b60405180910390f35b34801561046757600080fd5b50610470610e0c565b60405161047d919061382b565b60405180910390f35b34801561049257600080fd5b506104ad60048036038101906104a89190612ebd565b610e49565b6040516104ba9190613aad565b60405180910390f35b3480156104cf57600080fd5b506104ea60048036038101906104e59190612e2f565b610e7a565b005b3480156104f857600080fd5b50610513600480360381019061050e9190612ef9565b610f02565b6040516105209190613aad565b60405180910390f35b34801561053557600080fd5b50610550600480360381019061054b9190612d43565b610f6a565b60405161055d9190613aad565b60405180910390f35b34801561057257600080fd5b5061057b611290565b6040516105889190613aad565b60405180910390f35b34801561059d57600080fd5b506105a6611299565b6040516105b39190613aad565b60405180910390f35b3480156105c857600080fd5b506105d16112a3565b6040516105de9190613aad565b60405180910390f35b3480156105f357600080fd5b5061060e60048036038101906106099190612e2f565b6112b2565b60405161061b9190613aad565b60405180910390f35b34801561063057600080fd5b5061064b60048036038101906106469190612c2c565b611320565b005b34801561065957600080fd5b50610674600480360381019061066f9190612c98565b6113f2565b6040516106819190613aad565b60405180910390f35b34801561069657600080fd5b5061069f61142e565b6040516106ac919061382b565b60405180910390f35b3480156106c157600080fd5b506106ca61146b565b6040516106d7919061370b565b60405180910390f35b3480156106ec57600080fd5b5061070760048036038101906107029190612e2f565b61148f565b005b34801561071557600080fd5b50610730600480360381019061072b9190612bf0565b611517565b60405161073d9190613aad565b60405180910390f35b34801561075257600080fd5b5061076d60048036038101906107689190612e2f565b61152b565b005b34801561077b57600080fd5b5061079660048036038101906107919190612e2f565b6115b3565b6040516107a39190613aad565b60405180910390f35b3480156107b857600080fd5b506107c16115c5565b6040516107ce91906137f5565b60405180910390f35b600030905090565b60007fbf26d897000000000000000000000000000000000000000000000000000000007bffffffffffffffffffffffffffffffffffffffffffffffffffffffff1916827bffffffffffffffffffffffffffffffffffffffffffffffffffffffff191614806108525750610851826115e9565b5b9050919050565b6000610863611653565b905090565b6108706107d7565b73ffffffffffffffffffffffffffffffffffffffff1661088e61165d565b73ffffffffffffffffffffffffffffffffffffffff16146108e4576040517f08c379a00000000000000000000000000000000000000000000000000000000081526004016108db9061386d565b60405180910390fd5b6108ed81611665565b50565b6060600080546108ff90614101565b80601f016020809104026020016040519081016040528092919081815260200182805461092b90614101565b80156109785780601f1061094d57610100808354040283529160200191610978565b820191906000526020600020905b81548152906001019060200180831161095b57829003601f168201915b5050505050905090565b600080610991868686866113f2565b9050600061099e82610c54565b9050600460078111156109da577f4e487b7100000000000000000000000000000000000000000000000000000000600052602160045260246000fd5b816007811115610a13577f4e487b7100000000000000000000000000000000000000000000000000000000600052602160045260246000fd5b1480610a8f575060056007811115610a54577f4e487b7100000000000000000000000000000000000000000000000000000000600052602160045260246000fd5b816007811115610a8d577f4e487b7100000000000000000000000000000000000000000000000000000000600052602160045260246000fd5b145b610ace576040517f08c379a0000000000000000000000000000000000000000000000000000000008152600401610ac590613a0d565b60405180910390fd5b600180600084815260200190815260200160002060020160006101000a81548160ff0219169083151502179055507f712ae1383f79ac853f8d882153778e0260ef8f03b504e2866e0593e04d2b291f82604051610b2b9190613aad565b60405180910390a1610b4082888888886116fa565b8192505050949350505050565b6000610baa600160008481526020019081526020016000206000016040518060200160405290816000820160009054906101000a900467ffffffffffffffff1667ffffffffffffffff1667ffffffffffffffff168152505061187b565b67ffffffffffffffff169050919050565b6000610bc5611889565b905090565b600080610c2b610c237f150214d74d59b7d1e90c73fc22ef3d991dd0a76b046543d4d80ab92d2a50328f8989604051602001610c0893929190613779565b60405160208183030381529060405280519060200120611893565b8686866118ad565b9050610c48878288604051806020016040528060008152506118d8565b91505095945050505050565b6000806001600084815260200190815260200160002090508060020160009054906101000a900460ff1615610c8d576007915050610d64565b8060020160019054906101000a900460ff1615610cae576002915050610d64565b6000610cb984610b4d565b90506000811415610cff576040517f08c379a0000000000000000000000000000000000000000000000000000000008152600401610cf690613a2d565b60405180910390fd5b438110610d1157600092505050610d64565b6000610d1c856112b2565b9050438110610d315760019350505050610d64565b610d3a85611a78565b8015610d4b5750610d4a85611abf565b5b15610d5c5760049350505050610d64565b600393505050505b919050565b60006005600084815260200190815260200160002060030160008373ffffffffffffffffffffffffffffffffffffffff1673ffffffffffffffffffffffffffffffffffffffff16815260200190815260200160002060009054906101000a900460ff16905092915050565b600080600080600560008681526020019081526020016000209050806000015481600101548260020154935093509350509193909250565b60606040518060400160405280600181526020017f3100000000000000000000000000000000000000000000000000000000000000815250905090565b600080610e5461165d565b9050610e71848285604051806020016040528060008152506118d8565b91505092915050565b610e826107d7565b73ffffffffffffffffffffffffffffffffffffffff16610ea061165d565b73ffffffffffffffffffffffffffffffffffffffff1614610ef6576040517f08c379a0000000000000000000000000000000000000000000000000000000008152600401610eed9061386d565b60405180910390fd5b610eff81611aea565b50565b600080610f0d61165d565b9050610f5f86828787878080601f016020809104026020016040519081016040528093929190818152602001838380828437600081840152601f19601f820116905080830192505050505050506118d8565b915050949350505050565b6000610f746112a3565b610f8a33600143610f859190613f91565b611517565b1015610fcb576040517f08c379a0000000000000000000000000000000000000000000000000000000008152600401610fc2906138ad565b60405180910390fd5b6000610fe086868686805190602001206113f2565b90508451865114611026576040517f08c379a000000000000000000000000000000000000000000000000000000000815260040161101d906138ed565b60405180910390fd5b835186511461106a576040517f08c379a0000000000000000000000000000000000000000000000000000000008152600401611061906138ed565b60405180910390fd5b60008651116110ae576040517f08c379a00000000000000000000000000000000000000000000000000000000081526004016110a5906139ad565b60405180910390fd5b600060016000838152602001908152602001600020905061110e816000016040518060200160405290816000820160009054906101000a900467ffffffffffffffff1667ffffffffffffffff1667ffffffffffffffff1681525050611b2f565b61114d576040517f08c379a000000000000000000000000000000000000000000000000000000000815260040161114490613a6d565b60405180910390fd5b600061115f61115a610bbb565b611b49565b61116843611b49565b6111729190613ec8565b90506000611186611181610859565b611b49565b826111919190613ec8565b90506111a98284600001611ba090919063ffffffff16565b6111bf8184600101611ba090919063ffffffff16565b7f7d84a6263ae0d98d3329bd7b46bb4e8d6f98cd35a7adb45c274c8b7fd5ebd5e0846111e961165d565b8b8b8d5167ffffffffffffffff81111561122c577f4e487b7100000000000000000000000000000000000000000000000000000000600052604160045260246000fd5b60405190808252806020026020018201604052801561125f57816020015b606081526020019060019003908161124a5790505b508c88888e60405161127999989796959493929190613ac8565b60405180910390a183945050505050949350505050565b60006064905090565b6000600654905090565b60006112ad611bcf565b905090565b600061130f600160008481526020019081526020016000206001016040518060200160405290816000820160009054906101000a900467ffffffffffffffff1667ffffffffffffffff1667ffffffffffffffff168152505061187b565b67ffffffffffffffff169050919050565b6113286107d7565b73ffffffffffffffffffffffffffffffffffffffff1661134661165d565b73ffffffffffffffffffffffffffffffffffffffff161461139c576040517f08c379a00000000000000000000000000000000000000000000000000000000081526004016113939061386d565b60405180910390fd5b6113eb8483838080601f016020809104026020016040519081016040528093929190818152602001838380828437600081840152601f19601f8201169050808301925050505050505085611bd9565b5050505050565b60008484848460405160200161140b9493929190613696565b6040516020818303038152906040528051906020012060001c9050949350505050565b60606040518060400160405280602081526020017f737570706f72743d627261766f2671756f72756d3d666f722c6162737461696e815250905090565b7f150214d74d59b7d1e90c73fc22ef3d991dd0a76b046543d4d80ab92d2a50328f81565b6114976107d7565b73ffffffffffffffffffffffffffffffffffffffff166114b561165d565b73ffffffffffffffffffffffffffffffffffffffff161461150b576040517f08c379a00000000000000000000000000000000000000000000000000000000081526004016115029061386d565b60405180910390fd5b61151481611c08565b50565b60006115238383611c90565b905092915050565b6115336107d7565b73ffffffffffffffffffffffffffffffffffffffff1661155161165d565b73ffffffffffffffffffffffffffffffffffffffff16146115a7576040517f08c379a000000000000000000000000000000000000000000000000000000000815260040161159e9061386d565b60405180910390fd5b6115b081611d45565b50565b60006115be82611d8a565b9050919050565b7f000000000000000000000000000000000000000000000000000000000000000081565b60007f01ffc9a7000000000000000000000000000000000000000000000000000000007bffffffffffffffffffffffffffffffffffffffffffffffffffffffff1916827bffffffffffffffffffffffffffffffffffffffffffffffffffffffff1916149050919050565b6000600354905090565b600033905090565b61166d611290565b8111156116af576040517f08c379a00000000000000000000000000000000000000000000000000000000081526004016116a69061388d565b60405180910390fd5b60006006549050816006819055507f0553476bf02ef2726e8ce5ced78d63e26e602e4a2257b1f559418e24b463399781836040516116ee929190613b78565b60405180910390a15050565b60006040518060600160405280602781526020016148a960279139905060005b85518110156118725760008087838151811061175f577f4e487b7100000000000000000000000000000000000000000000000000000000600052603260045260246000fd5b602002602001015173ffffffffffffffffffffffffffffffffffffffff168784815181106117b6577f4e487b7100000000000000000000000000000000000000000000000000000000600052603260045260246000fd5b60200260200101518785815181106117f7577f4e487b7100000000000000000000000000000000000000000000000000000000600052603260045260246000fd5b602002602001015160405161180c919061361f565b60006040518083038185875af1925050503d8060008114611849576040519150601f19603f3d011682016040523d82523d6000602084013e61184e565b606091505b509150915061185e828286611e60565b5050508061186b90614164565b905061171a565b50505050505050565b600081600001519050919050565b6000600254905090565b60006118a66118a0611ec7565b83611fe1565b9050919050565b60008060006118be87878787612014565b915091506118cb81612121565b8192505050949350505050565b6000806001600087815260200190815260200160002090506001600781111561192a577f4e487b7100000000000000000000000000000000000000000000000000000000600052602160045260246000fd5b61193387610c54565b600781111561196b577f4e487b7100000000000000000000000000000000000000000000000000000000600052602160045260246000fd5b146119ab576040517f08c379a00000000000000000000000000000000000000000000000000000000081526004016119a29061398d565b60405180910390fd5b6000611a09866119fa846000016040518060200160405290816000820160009054906101000a900467ffffffffffffffff1667ffffffffffffffff1667ffffffffffffffff168152505061187b565b67ffffffffffffffff16611517565b9050611a1787878784612472565b8573ffffffffffffffffffffffffffffffffffffffff167fb8e138887d0aa13bab447e82de9d5c1777041ecd21ca36ba824ff1e6c07ddda488878488604051611a639493929190613bd8565b60405180910390a28092505050949350505050565b60008060056000848152602001908152602001600020905080600201548160010154611aa49190613e72565b611ab5611ab085610b4d565b6115b3565b1115915050919050565b6000806005600084815260200190815260200160002090508060000154816001015411915050919050565b7fc565b045403dc03c2eea82b81a0465edad9e2e7fc4d97e11421c209da93d7a9360025482604051611b1d929190613b78565b60405180910390a18060028190555050565b600080826000015167ffffffffffffffff16149050919050565b600067ffffffffffffffff8016821115611b98576040517f08c379a0000000000000000000000000000000000000000000000000000000008152600401611b8f906139ed565b60405180910390fd5b819050919050565b808260000160006101000a81548167ffffffffffffffff021916908367ffffffffffffffff1602179055505050565b6000600454905090565b6060611bff8484846040518060600160405280602981526020016148d0602991396126ea565b90509392505050565b60008111611c4b576040517f08c379a0000000000000000000000000000000000000000000000000000000008152600401611c429061390d565b60405180910390fd5b7f7e3f7f0708a84de9203036abaa450dccc85ad5ff52f78c170f3edb55cf5e882860035482604051611c7e929190613b78565b60405180910390a18060038190555050565b60007f000000000000000000000000000000000000000000000000000000000000000073ffffffffffffffffffffffffffffffffffffffff16633a46b1a884846040518363ffffffff1660e01b8152600401611ced92919061366d565b60206040518083038186803b158015611d0557600080fd5b505afa158015611d19573d6000803e3d6000fd5b505050506040513d601f19601f82011682018060405250810190611d3d9190612e58565b905092915050565b7fccb45da8d5717e6c4544694297c4ba5cf151d455c9bb0ed4fc7a38411bc0546160045482604051611d78929190613b78565b60405180910390a18060048190555050565b6000611d94611290565b611d9c611299565b7f000000000000000000000000000000000000000000000000000000000000000073ffffffffffffffffffffffffffffffffffffffff16638e539e8c856040518263ffffffff1660e01b8152600401611df59190613aad565b60206040518083038186803b158015611e0d57600080fd5b505afa158015611e21573d6000803e3d6000fd5b505050506040513d601f19601f82011682018060405250810190611e459190612e58565b611e4f9190613f37565b611e599190613f06565b9050919050565b60608315611e7057829050611ec0565b600083511115611e835782518084602001fd5b816040517f08c379a0000000000000000000000000000000000000000000000000000000008152600401611eb7919061382b565b60405180910390fd5b9392505050565b60007f000000000000000000000000000000000000000000000000000000000000000073ffffffffffffffffffffffffffffffffffffffff163073ffffffffffffffffffffffffffffffffffffffff16148015611f4357507f000000000000000000000000000000000000000000000000000000000000000046145b15611f70577f00000000000000000000000000000000000000000000000000000000000000009050611fde565b611fdb7f00000000000000000000000000000000000000000000000000000000000000007f00000000000000000000000000000000000000000000000000000000000000007f00000000000000000000000000000000000000000000000000000000000000006127fe565b90505b90565b60008282604051602001611ff6929190613636565b60405160208183030381529060405280519060200120905092915050565b6000807f7fffffffffffffffffffffffffffffff5d576e7357a4501ddfe92f46681b20a08360001c111561204f576000600391509150612118565b601b8560ff16141580156120675750601c8560ff1614155b15612079576000600491509150612118565b60006001878787876040516000815260200160405260405161209e94939291906137b0565b6020604051602081039080840390855afa1580156120c0573d6000803e3d6000fd5b505050602060405103519050600073ffffffffffffffffffffffffffffffffffffffff168173ffffffffffffffffffffffffffffffffffffffff16141561210f57600060019250925050612118565b80600092509250505b94509492505050565b6000600481111561215b577f4e487b7100000000000000000000000000000000000000000000000000000000600052602160045260246000fd5b816004811115612194577f4e487b7100000000000000000000000000000000000000000000000000000000600052602160045260246000fd5b141561219f5761246f565b600160048111156121d9577f4e487b7100000000000000000000000000000000000000000000000000000000600052602160045260246000fd5b816004811115612212577f4e487b7100000000000000000000000000000000000000000000000000000000600052602160045260246000fd5b1415612253576040517f08c379a000000000000000000000000000000000000000000000000000000000815260040161224a9061384d565b60405180910390fd5b6002600481111561228d577f4e487b7100000000000000000000000000000000000000000000000000000000600052602160045260246000fd5b8160048111156122c6577f4e487b7100000000000000000000000000000000000000000000000000000000600052602160045260246000fd5b1415612307576040517f08c379a00000000000000000000000000000000000000000000000000000000081526004016122fe906138cd565b60405180910390fd5b60036004811115612341577f4e487b7100000000000000000000000000000000000000000000000000000000600052602160045260246000fd5b81600481111561237a577f4e487b7100000000000000000000000000000000000000000000000000000000600052602160045260246000fd5b14156123bb576040517f08c379a00000000000000000000000000000000000000000000000000000000081526004016123b29061392d565b60405180910390fd5b6004808111156123f4577f4e487b7100000000000000000000000000000000000000000000000000000000600052602160045260246000fd5b81600481111561242d577f4e487b7100000000000000000000000000000000000000000000000000000000600052602160045260246000fd5b141561246e576040517f08c379a0000000000000000000000000000000000000000000000000000000008152600401612465906139cd565b60405180910390fd5b5b50565b60006005600086815260200190815260200160002090508060030160008573ffffffffffffffffffffffffffffffffffffffff1673ffffffffffffffffffffffffffffffffffffffff16815260200190815260200160002060009054906101000a900460ff1615612518576040517f08c379a000000000000000000000000000000000000000000000000000000000815260040161250f9061394d565b60405180910390fd5b60018160030160008673ffffffffffffffffffffffffffffffffffffffff1673ffffffffffffffffffffffffffffffffffffffff16815260200190815260200160002060006101000a81548160ff021916908315150217905550600060028111156125ac577f4e487b7100000000000000000000000000000000000000000000000000000000600052602160045260246000fd5b60ff168360ff1614156125d957818160000160008282546125cd9190613e72565b925050819055506126e3565b60016002811115612613577f4e487b7100000000000000000000000000000000000000000000000000000000600052602160045260246000fd5b60ff168360ff16141561264057818160010160008282546126349190613e72565b925050819055506126e2565b600280811115612679577f4e487b7100000000000000000000000000000000000000000000000000000000600052602160045260246000fd5b60ff168360ff1614156126a6578181600201600082825461269a9190613e72565b925050819055506126e1565b6040517f08c379a00000000000000000000000000000000000000000000000000000000081526004016126d890613a4d565b60405180910390fd5b5b5b5050505050565b60608247101561272f576040517f08c379a00000000000000000000000000000000000000000000000000000000081526004016127269061396d565b60405180910390fd5b61273885612838565b612777576040517f08c379a000000000000000000000000000000000000000000000000000000000815260040161276e90613a8d565b60405180910390fd5b6000808673ffffffffffffffffffffffffffffffffffffffff1685876040516127a0919061361f565b60006040518083038185875af1925050503d80600081146127dd576040519150601f19603f3d011682016040523d82523d6000602084013e6127e2565b606091505b50915091506127f2828286611e60565b92505050949350505050565b60008383834630604051602001612819959493929190613726565b6040516020818303038152906040528051906020012090509392505050565b6000808273ffffffffffffffffffffffffffffffffffffffff163b119050919050565b600061286e61286984613c49565b613c24565b9050808382526020820190508285602086028201111561288d57600080fd5b60005b858110156128bd57816128a38882612a0c565b845260208401935060208301925050600181019050612890565b5050509392505050565b60006128da6128d584613c75565b613c24565b9050808382526020820190508260005b8581101561291a57813585016129008882612b13565b8452602084019350602083019250506001810190506128ea565b5050509392505050565b600061293761293284613ca1565b613c24565b9050808382526020820190508285602086028201111561295657600080fd5b60005b85811015612986578161296c8882612bb1565b845260208401935060208301925050600181019050612959565b5050509392505050565b60006129a361299e84613ccd565b613c24565b9050828152602081018484840111156129bb57600080fd5b6129c68482856140bf565b509392505050565b60006129e16129dc84613cfe565b613c24565b9050828152602081018484840111156129f957600080fd5b612a048482856140bf565b509392505050565b600081359050612a1b81614835565b92915050565b600082601f830112612a3257600080fd5b8135612a4284826020860161285b565b91505092915050565b600082601f830112612a5c57600080fd5b8135612a6c8482602086016128c7565b91505092915050565b600082601f830112612a8657600080fd5b8135612a96848260208601612924565b91505092915050565b600081359050612aae8161484c565b92915050565b600081359050612ac381614863565b92915050565b60008083601f840112612adb57600080fd5b8235905067ffffffffffffffff811115612af457600080fd5b602083019150836001820283011115612b0c57600080fd5b9250929050565b600082601f830112612b2457600080fd5b8135612b34848260208601612990565b91505092915050565b60008083601f840112612b4f57600080fd5b8235905067ffffffffffffffff811115612b6857600080fd5b602083019150836001820283011115612b8057600080fd5b9250929050565b600082601f830112612b9857600080fd5b8135612ba88482602086016129ce565b91505092915050565b600081359050612bc08161487a565b92915050565b600081519050612bd58161487a565b92915050565b600081359050612bea81614891565b92915050565b60008060408385031215612c0357600080fd5b6000612c1185828601612a0c565b9250506020612c2285828601612bb1565b9150509250929050565b60008060008060608587031215612c4257600080fd5b6000612c5087828801612a0c565b9450506020612c6187828801612bb1565b935050604085013567ffffffffffffffff811115612c7e57600080fd5b612c8a87828801612ac9565b925092505092959194509250565b60008060008060808587031215612cae57600080fd5b600085013567ffffffffffffffff811115612cc857600080fd5b612cd487828801612a21565b945050602085013567ffffffffffffffff811115612cf157600080fd5b612cfd87828801612a75565b935050604085013567ffffffffffffffff811115612d1a57600080fd5b612d2687828801612a4b565b9250506060612d3787828801612a9f565b91505092959194509250565b60008060008060808587031215612d5957600080fd5b600085013567ffffffffffffffff811115612d7357600080fd5b612d7f87828801612a21565b945050602085013567ffffffffffffffff811115612d9c57600080fd5b612da887828801612a75565b935050604085013567ffffffffffffffff811115612dc557600080fd5b612dd187828801612a4b565b925050606085013567ffffffffffffffff811115612dee57600080fd5b612dfa87828801612b87565b91505092959194509250565b600060208284031215612e1857600080fd5b6000612e2684828501612ab4565b91505092915050565b600060208284031215612e4157600080fd5b6000612e4f84828501612bb1565b91505092915050565b600060208284031215612e6a57600080fd5b6000612e7884828501612bc6565b91505092915050565b60008060408385031215612e9457600080fd5b6000612ea285828601612bb1565b9250506020612eb385828601612a0c565b9150509250929050565b60008060408385031215612ed057600080fd5b6000612ede85828601612bb1565b9250506020612eef85828601612bdb565b9150509250929050565b60008060008060608587031215612f0f57600080fd5b6000612f1d87828801612bb1565b9450506020612f2e87828801612bdb565b935050604085013567ffffffffffffffff811115612f4b57600080fd5b612f5787828801612b3d565b925092505092959194509250565b600080600080600060a08688031215612f7d57600080fd5b6000612f8b88828901612bb1565b9550506020612f9c88828901612bdb565b9450506040612fad88828901612bdb565b9350506060612fbe88828901612a9f565b9250506080612fcf88828901612a9f565b9150509295509295909350565b6000612fe88383613034565b60208301905092915050565b6000613000838361322d565b905092915050565b600061301483836132b5565b905092915050565b600061302883836135e3565b60208301905092915050565b61303d81613fc5565b82525050565b61304c81613fc5565b82525050565b600061305d82613d6f565b6130678185613de5565b935061307283613d2f565b8060005b838110156130a357815161308a8882612fdc565b975061309583613db1565b925050600181019050613076565b5085935050505092915050565b60006130bb82613d7a565b6130c58185613df6565b9350836020820285016130d785613d3f565b8060005b8581101561311357848403895281516130f48582612ff4565b94506130ff83613dbe565b925060208a019950506001810190506130db565b50829750879550505050505092915050565b600061313082613d85565b61313a8185613e07565b93508360208202850161314c85613d4f565b8060005b8581101561318857848403895281516131698582613008565b945061317483613dcb565b925060208a01995050600181019050613150565b50829750879550505050505092915050565b60006131a582613d90565b6131af8185613e18565b93506131ba83613d5f565b8060005b838110156131eb5781516131d2888261301c565b97506131dd83613dd8565b9250506001810190506131be565b5085935050505092915050565b61320181613fd7565b82525050565b61321081613fe3565b82525050565b61322761322282613fe3565b6141ad565b82525050565b600061323882613d9b565b6132428185613e29565b93506132528185602086016140ce565b61325b816142a2565b840191505092915050565b600061327182613d9b565b61327b8185613e3a565b935061328b8185602086016140ce565b80840191505092915050565b6132a081614077565b82525050565b6132af8161409b565b82525050565b60006132c082613da6565b6132ca8185613e45565b93506132da8185602086016140ce565b6132e3816142a2565b840191505092915050565b60006132f982613da6565b6133038185613e56565b93506133138185602086016140ce565b61331c816142a2565b840191505092915050565b6000613334601883613e56565b915061333f826142b3565b602082019050919050565b6000613357601883613e56565b9150613362826142dc565b602082019050919050565b600061337a604383613e56565b915061338582614305565b606082019050919050565b600061339d604383613e56565b91506133a88261437a565b606082019050919050565b60006133c0601f83613e56565b91506133cb826143ef565b602082019050919050565b60006133e3600283613e67565b91506133ee82614418565b600282019050919050565b6000613406602183613e56565b915061341182614441565b604082019050919050565b6000613429602783613e56565b915061343482614490565b604082019050919050565b600061344c602283613e56565b9150613457826144df565b604082019050919050565b600061346f602783613e56565b915061347a8261452e565b604082019050919050565b6000613492602683613e56565b915061349d8261457d565b604082019050919050565b60006134b5602383613e56565b91506134c0826145cc565b604082019050919050565b60006134d8601883613e56565b91506134e38261461b565b602082019050919050565b60006134fb602283613e56565b915061350682614644565b604082019050919050565b600061351e602683613e56565b915061352982614693565b604082019050919050565b6000613541602183613e56565b915061354c826146e2565b604082019050919050565b6000613564601d83613e56565b915061356f82614731565b602082019050919050565b6000613587603583613e56565b91506135928261475a565b604082019050919050565b60006135aa602183613e56565b91506135b5826147a9565b604082019050919050565b60006135cd601d83613e56565b91506135d8826147f8565b602082019050919050565b6135ec8161404c565b82525050565b6135fb8161404c565b82525050565b61360a816140ad565b82525050565b6136198161406a565b82525050565b600061362b8284613266565b915081905092915050565b6000613641826133d6565b915061364d8285613216565b60208201915061365d8284613216565b6020820191508190509392505050565b60006040820190506136826000830185613043565b61368f60208301846135f2565b9392505050565b600060808201905081810360008301526136b08187613052565b905081810360208301526136c4818661319a565b905081810360408301526136d881856130b0565b90506136e76060830184613207565b95945050505050565b600060208201905061370560008301846131f8565b92915050565b60006020820190506137206000830184613207565b92915050565b600060a08201905061373b6000830188613207565b6137486020830187613207565b6137556040830186613207565b61376260608301856135f2565b61376f6080830184613043565b9695505050505050565b600060608201905061378e6000830186613207565b61379b60208301856135f2565b6137a86040830184613610565b949350505050565b60006080820190506137c56000830187613207565b6137d26020830186613610565b6137df6040830185613207565b6137ec6060830184613207565b95945050505050565b600060208201905061380a6000830184613297565b92915050565b600060208201905061382560008301846132a6565b92915050565b6000602082019050818103600083015261384581846132ee565b905092915050565b6000602082019050818103600083015261386681613327565b9050919050565b600060208201905081810360008301526138868161334a565b9050919050565b600060208201905081810360008301526138a68161336d565b9050919050565b600060208201905081810360008301526138c681613390565b9050919050565b600060208201905081810360008301526138e6816133b3565b9050919050565b60006020820190508181036000830152613906816133f9565b9050919050565b600060208201905081810360008301526139268161341c565b9050919050565b600060208201905081810360008301526139468161343f565b9050919050565b6000602082019050818103600083015261396681613462565b9050919050565b6000602082019050818103600083015261398681613485565b9050919050565b600060208201905081810360008301526139a6816134a8565b9050919050565b600060208201905081810360008301526139c6816134cb565b9050919050565b600060208201905081810360008301526139e6816134ee565b9050919050565b60006020820190508181036000830152613a0681613511565b9050919050565b60006020820190508181036000830152613a2681613534565b9050919050565b60006020820190508181036000830152613a4681613557565b9050919050565b60006020820190508181036000830152613a668161357a565b9050919050565b60006020820190508181036000830152613a868161359d565b9050919050565b60006020820190508181036000830152613aa6816135c0565b9050919050565b6000602082019050613ac260008301846135f2565b92915050565b600061012082019050613ade600083018c6135f2565b613aeb602083018b613043565b8181036040830152613afd818a613052565b90508181036060830152613b11818961319a565b90508181036080830152613b258188613125565b905081810360a0830152613b3981876130b0565b9050613b4860c0830186613601565b613b5560e0830185613601565b818103610100830152613b6881846132ee565b90509a9950505050505050505050565b6000604082019050613b8d60008301856135f2565b613b9a60208301846135f2565b9392505050565b6000606082019050613bb660008301866135f2565b613bc360208301856135f2565b613bd060408301846135f2565b949350505050565b6000608082019050613bed60008301876135f2565b613bfa6020830186613610565b613c0760408301856135f2565b8181036060830152613c1981846132ee565b905095945050505050565b6000613c2e613c3f565b9050613c3a8282614133565b919050565b6000604051905090565b600067ffffffffffffffff821115613c6457613c63614273565b5b602082029050602081019050919050565b600067ffffffffffffffff821115613c9057613c8f614273565b5b602082029050602081019050919050565b600067ffffffffffffffff821115613cbc57613cbb614273565b5b602082029050602081019050919050565b600067ffffffffffffffff821115613ce857613ce7614273565b5b613cf1826142a2565b9050602081019050919050565b600067ffffffffffffffff821115613d1957613d18614273565b5b613d22826142a2565b9050602081019050919050565b6000819050602082019050919050565b6000819050602082019050919050565b6000819050602082019050919050565b6000819050602082019050919050565b600081519050919050565b600081519050919050565b600081519050919050565b600081519050919050565b600081519050919050565b600081519050919050565b6000602082019050919050565b6000602082019050919050565b6000602082019050919050565b6000602082019050919050565b600082825260208201905092915050565b600082825260208201905092915050565b600082825260208201905092915050565b600082825260208201905092915050565b600082825260208201905092915050565b600081905092915050565b600082825260208201905092915050565b600082825260208201905092915050565b600081905092915050565b6000613e7d8261404c565b9150613e888361404c565b9250827fffffffffffffffffffffffffffffffffffffffffffffffffffffffffffffffff03821115613ebd57613ebc6141b7565b5b828201905092915050565b6000613ed382614056565b9150613ede83614056565b92508267ffffffffffffffff03821115613efb57613efa6141b7565b5b828201905092915050565b6000613f118261404c565b9150613f1c8361404c565b925082613f2c57613f2b6141e6565b5b828204905092915050565b6000613f428261404c565b9150613f4d8361404c565b9250817fffffffffffffffffffffffffffffffffffffffffffffffffffffffffffffffff0483118215151615613f8657613f856141b7565b5b828202905092915050565b6000613f9c8261404c565b9150613fa78361404c565b925082821015613fba57613fb96141b7565b5b828203905092915050565b6000613fd08261402c565b9050919050565b60008115159050919050565b6000819050919050565b60007fffffffff0000000000000000000000000000000000000000000000000000000082169050919050565b600081905061402782614821565b919050565b600073ffffffffffffffffffffffffffffffffffffffff82169050919050565b6000819050919050565b600067ffffffffffffffff82169050919050565b600060ff82169050919050565b600061408282614089565b9050919050565b60006140948261402c565b9050919050565b60006140a682614019565b9050919050565b60006140b882614056565b9050919050565b82818337600083830152505050565b60005b838110156140ec5780820151818401526020810190506140d1565b838111156140fb576000848401525b50505050565b6000600282049050600182168061411957607f821691505b6020821081141561412d5761412c614244565b5b50919050565b61413c826142a2565b810181811067ffffffffffffffff8211171561415b5761415a614273565b5b80604052505050565b600061416f8261404c565b91507fffffffffffffffffffffffffffffffffffffffffffffffffffffffffffffffff8214156141a2576141a16141b7565b5b600182019050919050565b6000819050919050565b7f4e487b7100000000000000000000000000000000000000000000000000000000600052601160045260246000fd5b7f4e487b7100000000000000000000000000000000000000000000000000000000600052601260045260246000fd5b7f4e487b7100000000000000000000000000000000000000000000000000000000600052602160045260246000fd5b7f4e487b7100000000000000000000000000000000000000000000000000000000600052602260045260246000fd5b7f4e487b7100000000000000000000000000000000000000000000000000000000600052604160045260246000fd5b6000601f19601f8301169050919050565b7f45434453413a20696e76616c6964207369676e61747572650000000000000000600082015250565b7f476f7665726e6f723a206f6e6c79476f7665726e616e63650000000000000000600082015250565b7f476f7665726e6f72566f74657351756f72756d4672616374696f6e3a2071756f60008201527f72756d4e756d657261746f72206f7665722071756f72756d44656e6f6d696e6160208201527f746f720000000000000000000000000000000000000000000000000000000000604082015250565b7f476f7665726e6f72436f6d7061746962696c697479427261766f3a2070726f7060008201527f6f73657220766f7465732062656c6f772070726f706f73616c2074687265736860208201527f6f6c640000000000000000000000000000000000000000000000000000000000604082015250565b7f45434453413a20696e76616c6964207369676e6174757265206c656e67746800600082015250565b7f1901000000000000000000000000000000000000000000000000000000000000600082015250565b7f476f7665726e6f723a20696e76616c69642070726f706f73616c206c656e677460008201527f6800000000000000000000000000000000000000000000000000000000000000602082015250565b7f476f7665726e6f7253657474696e67733a20766f74696e6720706572696f642060008201527f746f6f206c6f7700000000000000000000000000000000000000000000000000602082015250565b7f45434453413a20696e76616c6964207369676e6174757265202773272076616c60008201527f7565000000000000000000000000000000000000000000000000000000000000602082015250565b7f476f7665726e6f72566f74696e6753696d706c653a20766f746520616c72656160008201527f6479206361737400000000000000000000000000000000000000000000000000602082015250565b7f416464726573733a20696e73756666696369656e742062616c616e636520666f60008201527f722063616c6c0000000000000000000000000000000000000000000000000000602082015250565b7f476f7665726e6f723a20766f7465206e6f742063757272656e746c792061637460008201527f6976650000000000000000000000000000000000000000000000000000000000602082015250565b7f476f7665726e6f723a20656d7074792070726f706f73616c0000000000000000600082015250565b7f45434453413a20696e76616c6964207369676e6174757265202776272076616c60008201527f7565000000000000000000000000000000000000000000000000000000000000602082015250565b7f53616665436173743a2076616c756520646f65736e27742066697420696e203660008201527f3420626974730000000000000000000000000000000000000000000000000000602082015250565b7f476f7665726e6f723a2070726f706f73616c206e6f742073756363657373667560008201527f6c00000000000000000000000000000000000000000000000000000000000000602082015250565b7f476f7665726e6f723a20756e6b6e6f776e2070726f706f73616c206964000000600082015250565b7f476f7665726e6f72566f74696e6753696d706c653a20696e76616c696420766160008201527f6c756520666f7220656e756d20566f7465547970650000000000000000000000602082015250565b7f476f7665726e6f723a2070726f706f73616c20616c726561647920657869737460008201527f7300000000000000000000000000000000000000000000000000000000000000602082015250565b7f416464726573733a2063616c6c20746f206e6f6e2d636f6e7472616374000000600082015250565b6008811061483257614831614215565b5b50565b61483e81613fc5565b811461484957600080fd5b50565b61485581613fe3565b811461486057600080fd5b50565b61486c81613fed565b811461487757600080fd5b50565b6148838161404c565b811461488e57600080fd5b50565b61489a8161406a565b81146148a557600080fd5b5056fe476f7665726e6f723a2063616c6c20726576657274656420776974686f7574206d657373616765416464726573733a206c6f772d6c6576656c2063616c6c20776974682076616c7565206661696c6564a264697066735822122012cc93e99907aa28be300434ba62b0d1d724bc8c21d9e15c440765cc86e7a69664736f6c63430008010033",
  "immutableReferences": {
    "1607": [
      {
        "length": 32,
        "start": 5575
      },
      {
        "length": 32,
        "start": 7316
      },
      {
        "length": 32,
        "start": 7582
      }
    ],
    "6100": [
      {
        "length": 32,
        "start": 8010
      }
    ],
    "6102": [
      {
        "length": 32,
        "start": 7969
      }
    ],
    "6104": [
      {
        "length": 32,
        "start": 7883
      }
    ],
    "6106": [
      {
        "length": 32,
        "start": 8086
      }
    ],
    "6108": [
      {
        "length": 32,
        "start": 8119
      }
    ],
    "6110": [
      {
        "length": 32,
        "start": 8053
      }
    ]
  },
  "source": "// SPDX-License-Identifier: MIT\npragma solidity ^0.8.0;\n\nimport \"@openzeppelin/contracts/governance/Governor.sol\";\nimport \"@openzeppelin/contracts/governance/extensions/GovernorSettings.sol\";\nimport \"@openzeppelin/contracts/governance/extensions/GovernorCountingSimple.sol\";\nimport \"@openzeppelin/contracts/governance/extensions/GovernorVotes.sol\";\nimport \"@openzeppelin/contracts/governance/extensions/GovernorVotesQuorumFraction.sol\";\n\ncontract Cao is Governor, GovernorSettings, GovernorCountingSimple, GovernorVotes, GovernorVotesQuorumFraction {\n    constructor(IVotes _token)\n        Governor(\"Cao\")\n        GovernorSettings(1 /* 1 block */, 136 /* 30 minutes */, 0)\n        GovernorVotes(_token)\n        GovernorVotesQuorumFraction(3)\n         // solhint-disable-next-line no-empty-blocks\n    {}\n\n    // The following functions are overrides required by Solidity.\n\n    function votingDelay()\n        public\n        view\n        override(IGovernor, GovernorSettings)\n        returns (uint256)\n    {\n        return super.votingDelay();\n    }\n\n    function votingPeriod()\n        public\n        view\n        override(IGovernor, GovernorSettings)\n        returns (uint256)\n    {\n        return super.votingPeriod();\n    }\n\n    function quorum(uint256 blockNumber)\n        public\n        view\n        override(IGovernor, GovernorVotesQuorumFraction)\n        returns (uint256)\n    {\n        return super.quorum(blockNumber);\n    }\n\n    function getVotes(address account, uint256 blockNumber)\n        public\n        view\n        override(IGovernor, GovernorVotes)\n        returns (uint256)\n    {\n        return super.getVotes(account, blockNumber);\n    }\n\n    function proposalThreshold()\n        public\n        view\n        override(Governor, GovernorSettings)\n        returns (uint256)\n    {\n        return super.proposalThreshold();\n    }\n}",
  "sourcePath": "/home/aymeric/Documents/hackathon-dao/dao-project/contracts/Cao.sol",
  "compiler": {
    "name": "solc",
    "version": "0.8.1+commit.df193b15.Emscripten.clang"
  },
  "schemaVersion": "3.4.6",
  "updatedAt": "2022-04-10T10:12:45.932Z",
  "networkType": "ethereum",
  "devdoc": {
    "kind": "dev",
    "methods": {
      "COUNTING_MODE()": {
        "details": "See {IGovernor-COUNTING_MODE}."
      },
      "castVote(uint256,uint8)": {
        "details": "See {IGovernor-castVote}."
      },
      "castVoteBySig(uint256,uint8,uint8,bytes32,bytes32)": {
        "details": "See {IGovernor-castVoteBySig}."
      },
      "castVoteWithReason(uint256,uint8,string)": {
        "details": "See {IGovernor-castVoteWithReason}."
      },
      "execute(address[],uint256[],bytes[],bytes32)": {
        "details": "See {IGovernor-execute}."
      },
      "hasVoted(uint256,address)": {
        "details": "See {IGovernor-hasVoted}."
      },
      "hashProposal(address[],uint256[],bytes[],bytes32)": {
        "details": "See {IGovernor-hashProposal}. The proposal id is produced by hashing the RLC encoded `targets` array, the `values` array, the `calldatas` array and the descriptionHash (bytes32 which itself is the keccak256 hash of the description string). This proposal id can be produced from the proposal data which is part of the {ProposalCreated} event. It can even be computed in advance, before the proposal is submitted. Note that the chainId and the governor address are not part of the proposal id computation. Consequently, the same proposal (with same operation and same description) will have the same id if submitted on multiple governors accross multiple networks. This also means that in order to execute the same operation twice (on the same governor) the proposer will have to change the description in order to avoid proposal id conflicts."
      },
      "name()": {
        "details": "See {IGovernor-name}."
      },
      "proposalDeadline(uint256)": {
        "details": "See {IGovernor-proposalDeadline}."
      },
      "proposalSnapshot(uint256)": {
        "details": "See {IGovernor-proposalSnapshot}."
      },
      "proposalVotes(uint256)": {
        "details": "Accessor to the internal vote counts."
      },
      "propose(address[],uint256[],bytes[],string)": {
        "details": "See {IGovernor-propose}."
      },
      "quorumDenominator()": {
        "details": "Returns the quorum denominator. Defaults to 100, but may be overridden."
      },
      "quorumNumerator()": {
        "details": "Returns the current quorum numerator. See {quorumDenominator}."
      },
      "relay(address,uint256,bytes)": {
        "details": "Relays a transaction or function call to an arbitrary target. In cases where the governance executor is some contract other than the governor itself, like when using a timelock, this function can be invoked in a governance proposal to recover tokens or Ether that was sent to the governor contract by mistake. Note that if the executor is simply the governor itself, use of `relay` is redundant."
      },
      "setProposalThreshold(uint256)": {
        "details": "Update the proposal threshold. This operation can only be performed through a governance proposal. Emits a {ProposalThresholdSet} event."
      },
      "setVotingDelay(uint256)": {
        "details": "Update the voting delay. This operation can only be performed through a governance proposal. Emits a {VotingDelaySet} event."
      },
      "setVotingPeriod(uint256)": {
        "details": "Update the voting period. This operation can only be performed through a governance proposal. Emits a {VotingPeriodSet} event."
      },
      "state(uint256)": {
        "details": "See {IGovernor-state}."
      },
      "supportsInterface(bytes4)": {
        "details": "See {IERC165-supportsInterface}."
      },
      "updateQuorumNumerator(uint256)": {
        "details": "Changes the quorum numerator. Emits a {QuorumNumeratorUpdated} event. Requirements: - Must be called through a governance proposal. - New numerator must be smaller or equal to the denominator."
      },
      "version()": {
        "details": "See {IGovernor-version}."
      }
    },
    "version": 1
  },
  "userdoc": {
    "kind": "user",
    "methods": {},
    "version": 1
  }
}