{
  "contractName": "CaoToken",
  "abi": [
    {
      "inputs": [
        {
          "internalType": "string",
          "name": "_tokenName",
          "type": "string"
        },
        {
          "internalType": "string",
          "name": "_symbol",
          "type": "string"
        },
        {
          "internalType": "address[]",
          "name": "_minters",
          "type": "address[]"
        }
      ],
      "stateMutability": "nonpayable",
      "type": "constructor"
    },
    {
      "anonymous": false,
      "inputs": [
        {
          "indexed": true,
          "internalType": "address",
          "name": "owner",
          "type": "address"
        },
        {
          "indexed": true,
          "internalType": "address",
          "name": "spender",
          "type": "address"
        },
        {
          "indexed": false,
          "internalType": "uint256",
          "name": "value",
          "type": "uint256"
        }
      ],
      "name": "Approval",
      "type": "event"
    },
    {
      "anonymous": false,
      "inputs": [
        {
          "indexed": true,
          "internalType": "address",
          "name": "delegator",
          "type": "address"
        },
        {
          "indexed": true,
          "internalType": "address",
          "name": "fromDelegate",
          "type": "address"
        },
        {
          "indexed": true,
          "internalType": "address",
          "name": "toDelegate",
          "type": "address"
        }
      ],
      "name": "DelegateChanged",
      "type": "event"
    },
    {
      "anonymous": false,
      "inputs": [
        {
          "indexed": true,
          "internalType": "address",
          "name": "delegate",
          "type": "address"
        },
        {
          "indexed": false,
          "internalType": "uint256",
          "name": "previousBalance",
          "type": "uint256"
        },
        {
          "indexed": false,
          "internalType": "uint256",
          "name": "newBalance",
          "type": "uint256"
        }
      ],
      "name": "DelegateVotesChanged",
      "type": "event"
    },
    {
      "anonymous": false,
      "inputs": [
        {
          "indexed": false,
          "internalType": "address",
          "name": "minter",
          "type": "address"
        }
      ],
      "name": "MinterAdded",
      "type": "event"
    },
    {
      "anonymous": false,
      "inputs": [
        {
          "indexed": false,
          "internalType": "address",
          "name": "minter",
          "type": "address"
        }
      ],
      "name": "MinterRemoved",
      "type": "event"
    },
    {
      "anonymous": false,
      "inputs": [
        {
          "indexed": true,
          "internalType": "address",
          "name": "previousOwner",
          "type": "address"
        },
        {
          "indexed": true,
          "internalType": "address",
          "name": "newOwner",
          "type": "address"
        }
      ],
      "name": "OwnershipTransferred",
      "type": "event"
    },
    {
      "anonymous": false,
      "inputs": [
        {
          "indexed": true,
          "internalType": "address",
          "name": "from",
          "type": "address"
        },
        {
          "indexed": true,
          "internalType": "address",
          "name": "to",
          "type": "address"
        },
        {
          "indexed": false,
          "internalType": "uint256",
          "name": "value",
          "type": "uint256"
        }
      ],
      "name": "Transfer",
      "type": "event"
    },
    {
      "inputs": [],
      "name": "DOMAIN_SEPARATOR",
      "outputs": [
        {
          "internalType": "bytes32",
          "name": "",
          "type": "bytes32"
        }
      ],
      "stateMutability": "view",
      "type": "function",
      "constant": true
    },
    {
      "inputs": [
        {
          "internalType": "address",
          "name": "owner",
          "type": "address"
        },
        {
          "internalType": "address",
          "name": "spender",
          "type": "address"
        }
      ],
      "name": "allowance",
      "outputs": [
        {
          "internalType": "uint256",
          "name": "",
          "type": "uint256"
        }
      ],
      "stateMutability": "view",
      "type": "function",
      "constant": true
    },
    {
      "inputs": [
        {
          "internalType": "address",
          "name": "spender",
          "type": "address"
        },
        {
          "internalType": "uint256",
          "name": "amount",
          "type": "uint256"
        }
      ],
      "name": "approve",
      "outputs": [
        {
          "internalType": "bool",
          "name": "",
          "type": "bool"
        }
      ],
      "stateMutability": "nonpayable",
      "type": "function"
    },
    {
      "inputs": [
        {
          "internalType": "address",
          "name": "",
          "type": "address"
        }
      ],
      "name": "authorizedMinters",
      "outputs": [
        {
          "internalType": "bool",
          "name": "",
          "type": "bool"
        }
      ],
      "stateMutability": "view",
      "type": "function",
      "constant": true
    },
    {
      "inputs": [
        {
          "internalType": "address",
          "name": "account",
          "type": "address"
        }
      ],
      "name": "balanceOf",
      "outputs": [
        {
          "internalType": "uint256",
          "name": "",
          "type": "uint256"
        }
      ],
      "stateMutability": "view",
      "type": "function",
      "constant": true
    },
    {
      "inputs": [
        {
          "internalType": "address",
          "name": "account",
          "type": "address"
        },
        {
          "internalType": "uint32",
          "name": "pos",
          "type": "uint32"
        }
      ],
      "name": "checkpoints",
      "outputs": [
        {
          "components": [
            {
              "internalType": "uint32",
              "name": "fromBlock",
              "type": "uint32"
            },
            {
              "internalType": "uint224",
              "name": "votes",
              "type": "uint224"
            }
          ],
          "internalType": "struct ERC20Votes.Checkpoint",
          "name": "",
          "type": "tuple"
        }
      ],
      "stateMutability": "view",
      "type": "function",
      "constant": true
    },
    {
      "inputs": [],
      "name": "decimals",
      "outputs": [
        {
          "internalType": "uint8",
          "name": "",
          "type": "uint8"
        }
      ],
      "stateMutability": "view",
      "type": "function",
      "constant": true
    },
    {
      "inputs": [
        {
          "internalType": "address",
          "name": "spender",
          "type": "address"
        },
        {
          "internalType": "uint256",
          "name": "subtractedValue",
          "type": "uint256"
        }
      ],
      "name": "decreaseAllowance",
      "outputs": [
        {
          "internalType": "bool",
          "name": "",
          "type": "bool"
        }
      ],
      "stateMutability": "nonpayable",
      "type": "function"
    },
    {
      "inputs": [
        {
          "internalType": "address",
          "name": "delegatee",
          "type": "address"
        }
      ],
      "name": "delegate",
      "outputs": [],
      "stateMutability": "nonpayable",
      "type": "function"
    },
    {
      "inputs": [
        {
          "internalType": "address",
          "name": "delegatee",
          "type": "address"
        },
        {
          "internalType": "uint256",
          "name": "nonce",
          "type": "uint256"
        },
        {
          "internalType": "uint256",
          "name": "expiry",
          "type": "uint256"
        },
        {
          "internalType": "uint8",
          "name": "v",
          "type": "uint8"
        },
        {
          "internalType": "bytes32",
          "name": "r",
          "type": "bytes32"
        },
        {
          "internalType": "bytes32",
          "name": "s",
          "type": "bytes32"
        }
      ],
      "name": "delegateBySig",
      "outputs": [],
      "stateMutability": "nonpayable",
      "type": "function"
    },
    {
      "inputs": [
        {
          "internalType": "address",
          "name": "account",
          "type": "address"
        }
      ],
      "name": "delegates",
      "outputs": [
        {
          "internalType": "address",
          "name": "",
          "type": "address"
        }
      ],
      "stateMutability": "view",
      "type": "function",
      "constant": true
    },
    {
      "inputs": [
        {
          "internalType": "uint256",
          "name": "blockNumber",
          "type": "uint256"
        }
      ],
      "name": "getPastTotalSupply",
      "outputs": [
        {
          "internalType": "uint256",
          "name": "",
          "type": "uint256"
        }
      ],
      "stateMutability": "view",
      "type": "function",
      "constant": true
    },
    {
      "inputs": [
        {
          "internalType": "address",
          "name": "account",
          "type": "address"
        },
        {
          "internalType": "uint256",
          "name": "blockNumber",
          "type": "uint256"
        }
      ],
      "name": "getPastVotes",
      "outputs": [
        {
          "internalType": "uint256",
          "name": "",
          "type": "uint256"
        }
      ],
      "stateMutability": "view",
      "type": "function",
      "constant": true
    },
    {
      "inputs": [
        {
          "internalType": "address",
          "name": "account",
          "type": "address"
        }
      ],
      "name": "getVotes",
      "outputs": [
        {
          "internalType": "uint256",
          "name": "",
          "type": "uint256"
        }
      ],
      "stateMutability": "view",
      "type": "function",
      "constant": true
    },
    {
      "inputs": [
        {
          "internalType": "address",
          "name": "spender",
          "type": "address"
        },
        {
          "internalType": "uint256",
          "name": "addedValue",
          "type": "uint256"
        }
      ],
      "name": "increaseAllowance",
      "outputs": [
        {
          "internalType": "bool",
          "name": "",
          "type": "bool"
        }
      ],
      "stateMutability": "nonpayable",
      "type": "function"
    },
    {
      "inputs": [],
      "name": "name",
      "outputs": [
        {
          "internalType": "string",
          "name": "",
          "type": "string"
        }
      ],
      "stateMutability": "view",
      "type": "function",
      "constant": true
    },
    {
      "inputs": [
        {
          "internalType": "address",
          "name": "owner",
          "type": "address"
        }
      ],
      "name": "nonces",
      "outputs": [
        {
          "internalType": "uint256",
          "name": "",
          "type": "uint256"
        }
      ],
      "stateMutability": "view",
      "type": "function",
      "constant": true
    },
    {
      "inputs": [
        {
          "internalType": "address",
          "name": "account",
          "type": "address"
        }
      ],
      "name": "numCheckpoints",
      "outputs": [
        {
          "internalType": "uint32",
          "name": "",
          "type": "uint32"
        }
      ],
      "stateMutability": "view",
      "type": "function",
      "constant": true
    },
    {
      "inputs": [],
      "name": "owner",
      "outputs": [
        {
          "internalType": "address",
          "name": "",
          "type": "address"
        }
      ],
      "stateMutability": "view",
      "type": "function",
      "constant": true
    },
    {
      "inputs": [
        {
          "internalType": "address",
          "name": "owner",
          "type": "address"
        },
        {
          "internalType": "address",
          "name": "spender",
          "type": "address"
        },
        {
          "internalType": "uint256",
          "name": "value",
          "type": "uint256"
        },
        {
          "internalType": "uint256",
          "name": "deadline",
          "type": "uint256"
        },
        {
          "internalType": "uint8",
          "name": "v",
          "type": "uint8"
        },
        {
          "internalType": "bytes32",
          "name": "r",
          "type": "bytes32"
        },
        {
          "internalType": "bytes32",
          "name": "s",
          "type": "bytes32"
        }
      ],
      "name": "permit",
      "outputs": [],
      "stateMutability": "nonpayable",
      "type": "function"
    },
    {
      "inputs": [],
      "name": "renounceOwnership",
      "outputs": [],
      "stateMutability": "nonpayable",
      "type": "function"
    },
    {
      "inputs": [],
      "name": "symbol",
      "outputs": [
        {
          "internalType": "string",
          "name": "",
          "type": "string"
        }
      ],
      "stateMutability": "view",
      "type": "function",
      "constant": true
    },
    {
      "inputs": [],
      "name": "totalSupply",
      "outputs": [
        {
          "internalType": "uint256",
          "name": "",
          "type": "uint256"
        }
      ],
      "stateMutability": "view",
      "type": "function",
      "constant": true
    },
    {
      "inputs": [
        {
          "internalType": "address",
          "name": "to",
          "type": "address"
        },
        {
          "internalType": "uint256",
          "name": "amount",
          "type": "uint256"
        }
      ],
      "name": "transfer",
      "outputs": [
        {
          "internalType": "bool",
          "name": "",
          "type": "bool"
        }
      ],
      "stateMutability": "nonpayable",
      "type": "function"
    },
    {
      "inputs": [
        {
          "internalType": "address",
          "name": "from",
          "type": "address"
        },
        {
          "internalType": "address",
          "name": "to",
          "type": "address"
        },
        {
          "internalType": "uint256",
          "name": "amount",
          "type": "uint256"
        }
      ],
      "name": "transferFrom",
      "outputs": [
        {
          "internalType": "bool",
          "name": "",
          "type": "bool"
        }
      ],
      "stateMutability": "nonpayable",
      "type": "function"
    },
    {
      "inputs": [
        {
          "internalType": "address",
          "name": "newOwner",
          "type": "address"
        }
      ],
      "name": "transferOwnership",
      "outputs": [],
      "stateMutability": "nonpayable",
      "type": "function"
    },
    {
      "inputs": [
        {
          "internalType": "address",
          "name": "_minter",
          "type": "address"
        }
      ],
      "name": "addMinter",
      "outputs": [],
      "stateMutability": "nonpayable",
      "type": "function"
    },
    {
      "inputs": [
        {
          "internalType": "address",
          "name": "_minter",
          "type": "address"
        }
      ],
      "name": "removeMinter",
      "outputs": [],
      "stateMutability": "nonpayable",
      "type": "function"
    },
    {
      "inputs": [
        {
          "internalType": "address",
          "name": "to",
          "type": "address"
        },
        {
          "internalType": "uint256",
          "name": "amount",
          "type": "uint256"
        }
      ],
      "name": "mint",
      "outputs": [],
      "stateMutability": "nonpayable",
      "type": "function"
    }
  ],
  "bytecode": "0x6101606040527f6e71edae12b1b97f4d1f60370fef10105fa2faae0126114a169c64845d6126c9610140908152503480156200003a57600080fd5b5060405162005ade38038062005ade833981810160405281019062000060919062000f66565b82806040518060400160405280600181526020017f310000000000000000000000000000000000000000000000000000000000000081525085858160039080519060200190620000b292919062000d8b565b508060049080519060200190620000cb92919062000d8b565b50505060008280519060200120905060008280519060200120905060007f8b73c3c69bb8fe3d512ecc4cf759cc79239f7b179b0ffacaa9a75d522b39400f90508260e081815250508161010081815250504660a0818152505062000137818484620002e460201b60201c565b608081815250503073ffffffffffffffffffffffffffffffffffffffff1660c08173ffffffffffffffffffffffffffffffffffffffff1660601b81525050806101208181525050505050505050620001a4620001986200032060201b60201c565b6200032860201b60201c565b60005b815181101562000260576001600a6000848481518110620001f1577f4e487b7100000000000000000000000000000000000000000000000000000000600052603260045260246000fd5b602002602001015173ffffffffffffffffffffffffffffffffffffffff1673ffffffffffffffffffffffffffffffffffffffff16815260200190815260200160002060006101000a81548160ff021916908315150217905550808062000257906200162c565b915050620001a7565b506200029e3362000276620003ee60201b60201c565b600a6200028491906200135c565b609662000292919062001499565b620003f760201b60201c565b620002db30620002b3620003ee60201b60201c565b600a620002c191906200135c565b6096620002cf919062001499565b620003f760201b60201c565b50505062001855565b6000838383463060405160200162000301959493929190620010d6565b6040516020818303038152906040528051906020012090509392505050565b600033905090565b6000600960009054906101000a900473ffffffffffffffffffffffffffffffffffffffff16905081600960006101000a81548173ffffffffffffffffffffffffffffffffffffffff021916908373ffffffffffffffffffffffffffffffffffffffff1602179055508173ffffffffffffffffffffffffffffffffffffffff168173ffffffffffffffffffffffffffffffffffffffff167f8be0079c531659141344cd1fd0a4f28419497f9722a3daafe3b4186f6b6457e060405160405180910390a35050565b60006012905090565b6200040e82826200041260201b620015821760201c565b5050565b620004298282620004d060201b6200160f1760201c565b620004396200064960201b60201c565b7bffffffffffffffffffffffffffffffffffffffffffffffffffffffff16620004676200066d60201b60201c565b1115620004ab576040517f08c379a0000000000000000000000000000000000000000000000000000000008152600401620004a29062001133565b60405180910390fd5b620004ca60086200067760201b6200176f17836200068f60201b60201c565b50505050565b600073ffffffffffffffffffffffffffffffffffffffff168273ffffffffffffffffffffffffffffffffffffffff16141562000543576040517f08c379a00000000000000000000000000000000000000000000000000000000081526004016200053a9062001199565b60405180910390fd5b6200055760008383620009ac60201b60201c565b80600260008282546200056b9190620012a4565b92505081905550806000808473ffffffffffffffffffffffffffffffffffffffff1673ffffffffffffffffffffffffffffffffffffffff1681526020019081526020016000206000828254620005c29190620012a4565b925050819055508173ffffffffffffffffffffffffffffffffffffffff16600073ffffffffffffffffffffffffffffffffffffffff167fddf252ad1be2c89b69c2b068fc378daa952ba7f163c4a11628f55a4df523b3ef83604051620006299190620011bb565b60405180910390a36200064560008383620009b160201b60201c565b5050565b60007bffffffffffffffffffffffffffffffffffffffffffffffffffffffff905090565b6000600254905090565b60008183620006879190620012a4565b905092915050565b60008060008580549050905060008114620007285785600182620006b49190620014fa565b81548110620006ec577f4e487b7100000000000000000000000000000000000000000000000000000000600052603260045260246000fd5b9060005260206000200160000160049054906101000a90047bffffffffffffffffffffffffffffffffffffffffffffffffffffffff166200072b565b60005b7bffffffffffffffffffffffffffffffffffffffffffffffffffffffff1692506200075783858760201c565b9150600081118015620007d457504386600183620007769190620014fa565b81548110620007ae577f4e487b7100000000000000000000000000000000000000000000000000000000600052603260045260246000fd5b9060005260206000200160000160009054906101000a900463ffffffff1663ffffffff16145b156200089957620007f082620009ce60201b620017851760201c565b86600183620008009190620014fa565b8154811062000838577f4e487b7100000000000000000000000000000000000000000000000000000000600052603260045260246000fd5b9060005260206000200160000160046101000a8154817bffffffffffffffffffffffffffffffffffffffffffffffffffffffff02191690837bffffffffffffffffffffffffffffffffffffffffffffffffffffffff160217905550620009a3565b856040518060400160405280620008bb4362000a3c60201b620017f01760201c565b63ffffffff168152602001620008dc85620009ce60201b620017851760201c565b7bffffffffffffffffffffffffffffffffffffffffffffffffffffffff168152509080600181540180825580915050600190039060005260206000200160009091909190915060008201518160000160006101000a81548163ffffffff021916908363ffffffff16021790555060208201518160000160046101000a8154817bffffffffffffffffffffffffffffffffffffffffffffffffffffffff02191690837bffffffffffffffffffffffffffffffffffffffffffffffffffffffff16021790555050505b50935093915050565b505050565b620009c983838362000a9260201b620018431760201c565b505050565b60007bffffffffffffffffffffffffffffffffffffffffffffffffffffffff801682111562000a34576040517f08c379a000000000000000000000000000000000000000000000000000000000815260040162000a2b9062001155565b60405180910390fd5b819050919050565b600063ffffffff801682111562000a8a576040517f08c379a000000000000000000000000000000000000000000000000000000000815260040162000a819062001177565b60405180910390fd5b819050919050565b62000aaa83838362000ae260201b6200186e1760201c565b62000add62000abf8462000ae760201b60201c565b62000ad08462000ae760201b60201c565b8362000b5060201b60201c565b505050565b505050565b6000600660008373ffffffffffffffffffffffffffffffffffffffff1673ffffffffffffffffffffffffffffffffffffffff16815260200190815260200160002060009054906101000a900473ffffffffffffffffffffffffffffffffffffffff169050919050565b8173ffffffffffffffffffffffffffffffffffffffff168373ffffffffffffffffffffffffffffffffffffffff161415801562000b8d5750600081115b1562000d6e57600073ffffffffffffffffffffffffffffffffffffffff168373ffffffffffffffffffffffffffffffffffffffff161462000c805760008062000c27600760008773ffffffffffffffffffffffffffffffffffffffff1673ffffffffffffffffffffffffffffffffffffffff16815260200190815260200160002062000d7360201b6200187317856200068f60201b60201c565b915091508473ffffffffffffffffffffffffffffffffffffffff167fdec2bacdd2f05b59de34da9b523dff8be42e5e38e818c82fdb0bae774387a724838360405162000c75929190620011d8565b60405180910390a250505b600073ffffffffffffffffffffffffffffffffffffffff168273ffffffffffffffffffffffffffffffffffffffff161462000d6d5760008062000d14600760008673ffffffffffffffffffffffffffffffffffffffff1673ffffffffffffffffffffffffffffffffffffffff1681526020019081526020016000206200067760201b6200176f17856200068f60201b60201c565b915091508373ffffffffffffffffffffffffffffffffffffffff167fdec2bacdd2f05b59de34da9b523dff8be42e5e38e818c82fdb0bae774387a724838360405162000d62929190620011d8565b60405180910390a250505b5b505050565b6000818362000d839190620014fa565b905092915050565b82805462000d9990620015c0565b90600052602060002090601f01602090048101928262000dbd576000855562000e09565b82601f1062000dd857805160ff191683800117855562000e09565b8280016001018555821562000e09579182015b8281111562000e0857825182559160200191906001019062000deb565b5b50905062000e18919062000e1c565b5090565b5b8082111562000e3757600081600090555060010162000e1d565b5090565b600062000e5262000e4c846200122e565b62001205565b9050808382526020820190508285602086028201111562000e7257600080fd5b60005b8581101562000ea6578162000e8b888262000ef5565b84526020840193506020830192505060018101905062000e75565b5050509392505050565b600062000ec762000ec1846200125d565b62001205565b90508281526020810184848401111562000ee057600080fd5b62000eed8482856200158a565b509392505050565b60008151905062000f06816200183b565b92915050565b600082601f83011262000f1e57600080fd5b815162000f3084826020860162000e3b565b91505092915050565b600082601f83011262000f4b57600080fd5b815162000f5d84826020860162000eb0565b91505092915050565b60008060006060848603121562000f7c57600080fd5b600084015167ffffffffffffffff81111562000f9757600080fd5b62000fa58682870162000f39565b935050602084015167ffffffffffffffff81111562000fc357600080fd5b62000fd18682870162000f39565b925050604084015167ffffffffffffffff81111562000fef57600080fd5b62000ffd8682870162000f0c565b9150509250925092565b620010128162001535565b82525050565b620010238162001549565b82525050565b60006200103860308362001293565b9150620010458262001725565b604082019050919050565b60006200105f60278362001293565b91506200106c8262001774565b604082019050919050565b60006200108660268362001293565b91506200109382620017c3565b604082019050919050565b6000620010ad601f8362001293565b9150620010ba8262001812565b602082019050919050565b620010d08162001573565b82525050565b600060a082019050620010ed600083018862001018565b620010fc602083018762001018565b6200110b604083018662001018565b6200111a6060830185620010c5565b62001129608083018462001007565b9695505050505050565b600060208201905081810360008301526200114e8162001029565b9050919050565b60006020820190508181036000830152620011708162001050565b9050919050565b60006020820190508181036000830152620011928162001077565b9050919050565b60006020820190508181036000830152620011b4816200109e565b9050919050565b6000602082019050620011d26000830184620010c5565b92915050565b6000604082019050620011ef6000830185620010c5565b620011fe6020830184620010c5565b9392505050565b60006200121162001224565b90506200121f8282620015f6565b919050565b6000604051905090565b600067ffffffffffffffff8211156200124c576200124b620016d8565b5b602082029050602081019050919050565b600067ffffffffffffffff8211156200127b576200127a620016d8565b5b620012868262001707565b9050602081019050919050565b600082825260208201905092915050565b6000620012b18262001573565b9150620012be8362001573565b9250827fffffffffffffffffffffffffffffffffffffffffffffffffffffffffffffffff03821115620012f657620012f56200167a565b5b828201905092915050565b6000808291508390505b600185111562001353578086048111156200132b576200132a6200167a565b5b60018516156200133b5780820291505b80810290506200134b8562001718565b94506200130b565b94509492505050565b6000620013698262001573565b915062001376836200157d565b9250620013a57fffffffffffffffffffffffffffffffffffffffffffffffffffffffffffffffff8484620013ad565b905092915050565b600082620013bf576001905062001492565b81620013cf576000905062001492565b8160018114620013e85760028114620013f35762001429565b600191505062001492565b60ff8411156200140857620014076200167a565b5b8360020a9150848211156200142257620014216200167a565b5b5062001492565b5060208310610133831016604e8410600b8410161715620014635782820a9050838111156200145d576200145c6200167a565b5b62001492565b62001472848484600162001301565b925090508184048111156200148c576200148b6200167a565b5b81810290505b9392505050565b6000620014a68262001573565b9150620014b38362001573565b9250817fffffffffffffffffffffffffffffffffffffffffffffffffffffffffffffffff0483118215151615620014ef57620014ee6200167a565b5b828202905092915050565b6000620015078262001573565b9150620015148362001573565b9250828210156200152a57620015296200167a565b5b828203905092915050565b6000620015428262001553565b9050919050565b6000819050919050565b600073ffffffffffffffffffffffffffffffffffffffff82169050919050565b6000819050919050565b600060ff82169050919050565b60005b83811015620015aa5780820151818401526020810190506200158d565b83811115620015ba576000848401525b50505050565b60006002820490506001821680620015d957607f821691505b60208210811415620015f057620015ef620016a9565b5b50919050565b620016018262001707565b810181811067ffffffffffffffff82111715620016235762001622620016d8565b5b80604052505050565b6000620016398262001573565b91507fffffffffffffffffffffffffffffffffffffffffffffffffffffffffffffffff8214156200166f576200166e6200167a565b5b600182019050919050565b7f4e487b7100000000000000000000000000000000000000000000000000000000600052601160045260246000fd5b7f4e487b7100000000000000000000000000000000000000000000000000000000600052602260045260246000fd5b7f4e487b7100000000000000000000000000000000000000000000000000000000600052604160045260246000fd5b6000601f19601f8301169050919050565b60008160011c9050919050565b7f4552433230566f7465733a20746f74616c20737570706c79207269736b73206f60008201527f766572666c6f77696e6720766f74657300000000000000000000000000000000602082015250565b7f53616665436173743a2076616c756520646f65736e27742066697420696e203260008201527f3234206269747300000000000000000000000000000000000000000000000000602082015250565b7f53616665436173743a2076616c756520646f65736e27742066697420696e203360008201527f3220626974730000000000000000000000000000000000000000000000000000602082015250565b7f45524332303a206d696e7420746f20746865207a65726f206164647265737300600082015250565b620018468162001535565b81146200185257600080fd5b50565b60805160a05160c05160601c60e05161010051610120516101405161422b620018b360003960006111d201526000611e1701526000611e5901526000611e3801526000611d6d01526000611dc301526000611dec015261422b6000f3fe608060405234801561001057600080fd5b50600436106101cf5760003560e01c8063715018a611610104578063a457c2d7116100a2578063d505accf11610071578063d505accf1461058e578063dd62ed3e146105aa578063f1127ed8146105da578063f2fde38b1461060a576101cf565b8063a457c2d7146104e2578063a9059cbb14610512578063aa2fe91b14610542578063c3cda52014610572576101cf565b80638e539e8c116100de5780638e539e8c1461044857806395d89b4114610478578063983b2d56146104965780639ab24eb0146104b2576101cf565b8063715018a6146103f05780637ecebe00146103fa5780638da5cb5b1461042a576101cf565b80633950935111610171578063587cde1e1161014b578063587cde1e146103445780635c19a95c146103745780636fcfff451461039057806370a08231146103c0576101cf565b806339509351146102c85780633a46b1a8146102f857806340c10f1914610328576101cf565b806323b872dd116101ad57806323b872dd146102405780633092afd514610270578063313ce5671461028c5780633644e515146102aa576101cf565b806306fdde03146101d4578063095ea7b3146101f257806318160ddd14610222575b600080fd5b6101dc610626565b6040516101e991906135c5565b60405180910390f35b61020c60048036038101906102079190612e96565b6106b8565b6040516102199190613451565b60405180910390f35b61022a6106db565b60405161023791906138e2565b60405180910390f35b61025a60048036038101906102559190612da9565b6106e5565b6040516102679190613451565b60405180910390f35b61028a60048036038101906102859190612d44565b610714565b005b610294610822565b6040516102a19190613941565b60405180910390f35b6102b261082b565b6040516102bf919061346c565b60405180910390f35b6102e260048036038101906102dd9190612e96565b61083a565b6040516102ef9190613451565b60405180910390f35b610312600480360381019061030d9190612e96565b6108e4565b60405161031f91906138e2565b60405180910390f35b610342600480360381019061033d9190612e96565b610978565b005b61035e60048036038101906103599190612d44565b610a12565b60405161036b9190613436565b60405180910390f35b61038e60048036038101906103899190612d44565b610a7b565b005b6103aa60048036038101906103a59190612d44565b610a8f565b6040516103b79190613926565b60405180910390f35b6103da60048036038101906103d59190612d44565b610ae3565b6040516103e791906138e2565b60405180910390f35b6103f8610b2b565b005b610414600480360381019061040f9190612d44565b610bb3565b60405161042191906138e2565b60405180910390f35b610432610c03565b60405161043f9190613436565b60405180910390f35b610462600480360381019061045d9190612f97565b610c2d565b60405161046f91906138e2565b60405180910390f35b610480610c83565b60405161048d91906135c5565b60405180910390f35b6104b060048036038101906104ab9190612d44565b610d15565b005b6104cc60048036038101906104c79190612d44565b610e23565b6040516104d991906138e2565b60405180910390f35b6104fc60048036038101906104f79190612e96565b610f5a565b6040516105099190613451565b60405180910390f35b61052c60048036038101906105279190612e96565b611044565b6040516105399190613451565b60405180910390f35b61055c60048036038101906105579190612d44565b611067565b6040516105699190613451565b60405180910390f35b61058c60048036038101906105879190612ed2565b611087565b005b6105a860048036038101906105a39190612df8565b61118b565b005b6105c460048036038101906105bf9190612d6d565b6112cd565b6040516105d191906138e2565b60405180910390f35b6105f460048036038101906105ef9190612f5b565b611354565b60405161060191906138c7565b60405180910390f35b610624600480360381019061061f9190612d44565b61148a565b005b60606003805461063590613b08565b80601f016020809104026020016040519081016040528092919081815260200182805461066190613b08565b80156106ae5780601f10610683576101008083540402835291602001916106ae565b820191906000526020600020905b81548152906001019060200180831161069157829003601f168201915b5050505050905090565b6000806106c3611889565b90506106d0818585611891565b600191505092915050565b6000600254905090565b6000806106f0611889565b90506106fd858285611a5c565b610708858585611ae8565b60019150509392505050565b61071c611889565b73ffffffffffffffffffffffffffffffffffffffff1661073a610c03565b73ffffffffffffffffffffffffffffffffffffffff1614610790576040517f08c379a0000000000000000000000000000000000000000000000000000000008152600401610787906137c7565b60405180910390fd5b6000600a60008373ffffffffffffffffffffffffffffffffffffffff1673ffffffffffffffffffffffffffffffffffffffff16815260200190815260200160002060006101000a81548160ff0219169083151502179055507fe94479a9f7e1952cc78f2d6baab678adc1b772d936c6583def489e524cb66692816040516108179190613436565b60405180910390a150565b60006012905090565b6000610835611d69565b905090565b600080610845611889565b90506108d9818585600160008673ffffffffffffffffffffffffffffffffffffffff1673ffffffffffffffffffffffffffffffffffffffff16815260200190815260200160002060008973ffffffffffffffffffffffffffffffffffffffff1673ffffffffffffffffffffffffffffffffffffffff168152602001908152602001600020546108d49190613983565b611891565b600191505092915050565b6000438210610928576040517f08c379a000000000000000000000000000000000000000000000000000000000815260040161091f90613627565b60405180910390fd5b610970600760008573ffffffffffffffffffffffffffffffffffffffff1673ffffffffffffffffffffffffffffffffffffffff16815260200190815260200160002083611e83565b905092915050565b600a60003373ffffffffffffffffffffffffffffffffffffffff1673ffffffffffffffffffffffffffffffffffffffff16815260200190815260200160002060009054906101000a900460ff16610a04576040517f08c379a00000000000000000000000000000000000000000000000000000000081526004016109fb90613867565b60405180910390fd5b610a0e8282611fdb565b5050565b6000600660008373ffffffffffffffffffffffffffffffffffffffff1673ffffffffffffffffffffffffffffffffffffffff16815260200190815260200160002060009054906101000a900473ffffffffffffffffffffffffffffffffffffffff169050919050565b610a8c610a86611889565b82611fe9565b50565b6000610adc600760008473ffffffffffffffffffffffffffffffffffffffff1673ffffffffffffffffffffffffffffffffffffffff168152602001908152602001600020805490506117f0565b9050919050565b60008060008373ffffffffffffffffffffffffffffffffffffffff1673ffffffffffffffffffffffffffffffffffffffff168152602001908152602001600020549050919050565b610b33611889565b73ffffffffffffffffffffffffffffffffffffffff16610b51610c03565b73ffffffffffffffffffffffffffffffffffffffff1614610ba7576040517f08c379a0000000000000000000000000000000000000000000000000000000008152600401610b9e906137c7565b60405180910390fd5b610bb16000612103565b565b6000610bfc600560008473ffffffffffffffffffffffffffffffffffffffff1673ffffffffffffffffffffffffffffffffffffffff1681526020019081526020016000206121c9565b9050919050565b6000600960009054906101000a900473ffffffffffffffffffffffffffffffffffffffff16905090565b6000438210610c71576040517f08c379a0000000000000000000000000000000000000000000000000000000008152600401610c6890613627565b60405180910390fd5b610c7c600883611e83565b9050919050565b606060048054610c9290613b08565b80601f0160208091040260200160405190810160405280929190818152602001828054610cbe90613b08565b8015610d0b5780601f10610ce057610100808354040283529160200191610d0b565b820191906000526020600020905b815481529060010190602001808311610cee57829003601f168201915b5050505050905090565b610d1d611889565b73ffffffffffffffffffffffffffffffffffffffff16610d3b610c03565b73ffffffffffffffffffffffffffffffffffffffff1614610d91576040517f08c379a0000000000000000000000000000000000000000000000000000000008152600401610d88906137c7565b60405180910390fd5b6001600a60008373ffffffffffffffffffffffffffffffffffffffff1673ffffffffffffffffffffffffffffffffffffffff16815260200190815260200160002060006101000a81548160ff0219169083151502179055507f6ae172837ea30b801fbfcdd4108aa1d5bf8ff775444fd70256b44e6bf3dfc3f681604051610e189190613436565b60405180910390a150565b600080600760008473ffffffffffffffffffffffffffffffffffffffff1673ffffffffffffffffffffffffffffffffffffffff16815260200190815260200160002080549050905060008114610f3157600760008473ffffffffffffffffffffffffffffffffffffffff1673ffffffffffffffffffffffffffffffffffffffff168152602001908152602001600020600182610ebf9190613a0a565b81548110610ef6577f4e487b7100000000000000000000000000000000000000000000000000000000600052603260045260246000fd5b9060005260206000200160000160049054906101000a90047bffffffffffffffffffffffffffffffffffffffffffffffffffffffff16610f34565b60005b7bffffffffffffffffffffffffffffffffffffffffffffffffffffffff16915050919050565b600080610f65611889565b90506000600160008373ffffffffffffffffffffffffffffffffffffffff1673ffffffffffffffffffffffffffffffffffffffff16815260200190815260200160002060008673ffffffffffffffffffffffffffffffffffffffff1673ffffffffffffffffffffffffffffffffffffffff1681526020019081526020016000205490508381101561102b576040517f08c379a000000000000000000000000000000000000000000000000000000000815260040161102290613887565b60405180910390fd5b6110388286868403611891565b60019250505092915050565b60008061104f611889565b905061105c818585611ae8565b600191505092915050565b600a6020528060005260406000206000915054906101000a900460ff1681565b834211156110ca576040517f08c379a00000000000000000000000000000000000000000000000000000000081526004016110c190613647565b60405180910390fd5b600061112c6111247fe48329057bfd03d55e49b547132e39cffd9c1820ad7b9d4c5307691425d15adf89898960405160200161110994939291906134e8565b604051602081830303815290604052805190602001206121d7565b8585856121f1565b90506111378161221c565b8614611178576040517f08c379a000000000000000000000000000000000000000000000000000000000815260040161116f90613687565b60405180910390fd5b6111828188611fe9565b50505050505050565b834211156111ce576040517f08c379a00000000000000000000000000000000000000000000000000000000081526004016111c590613707565b60405180910390fd5b60007f00000000000000000000000000000000000000000000000000000000000000008888886111fd8c61221c565b8960405160200161121396959493929190613487565b6040516020818303038152906040528051906020012090506000611236826121d7565b90506000611246828787876121f1565b90508973ffffffffffffffffffffffffffffffffffffffff168173ffffffffffffffffffffffffffffffffffffffff16146112b6576040517f08c379a00000000000000000000000000000000000000000000000000000000081526004016112ad90613787565b60405180910390fd5b6112c18a8a8a611891565b50505050505050505050565b6000600160008473ffffffffffffffffffffffffffffffffffffffff1673ffffffffffffffffffffffffffffffffffffffff16815260200190815260200160002060008373ffffffffffffffffffffffffffffffffffffffff1673ffffffffffffffffffffffffffffffffffffffff16815260200190815260200160002054905092915050565b61135c612c9d565b600760008473ffffffffffffffffffffffffffffffffffffffff1673ffffffffffffffffffffffffffffffffffffffff1681526020019081526020016000208263ffffffff16815481106113d9577f4e487b7100000000000000000000000000000000000000000000000000000000600052603260045260246000fd5b906000526020600020016040518060400160405290816000820160009054906101000a900463ffffffff1663ffffffff1663ffffffff1681526020016000820160049054906101000a90047bffffffffffffffffffffffffffffffffffffffffffffffffffffffff167bffffffffffffffffffffffffffffffffffffffffffffffffffffffff167bffffffffffffffffffffffffffffffffffffffffffffffffffffffff1681525050905092915050565b611492611889565b73ffffffffffffffffffffffffffffffffffffffff166114b0610c03565b73ffffffffffffffffffffffffffffffffffffffff1614611506576040517f08c379a00000000000000000000000000000000000000000000000000000000081526004016114fd906137c7565b60405180910390fd5b600073ffffffffffffffffffffffffffffffffffffffff168173ffffffffffffffffffffffffffffffffffffffff161415611576576040517f08c379a000000000000000000000000000000000000000000000000000000000815260040161156d906136a7565b60405180910390fd5b61157f81612103565b50565b61158c828261160f565b61159461227a565b7bffffffffffffffffffffffffffffffffffffffffffffffffffffffff166115ba6106db565b11156115fb576040517f08c379a00000000000000000000000000000000000000000000000000000000081526004016115f2906137a7565b60405180910390fd5b611609600861176f8361229e565b50505050565b600073ffffffffffffffffffffffffffffffffffffffff168273ffffffffffffffffffffffffffffffffffffffff16141561167f576040517f08c379a0000000000000000000000000000000000000000000000000000000008152600401611676906138a7565b60405180910390fd5b61168b60008383612588565b806002600082825461169d9190613983565b92505081905550806000808473ffffffffffffffffffffffffffffffffffffffff1673ffffffffffffffffffffffffffffffffffffffff16815260200190815260200160002060008282546116f29190613983565b925050819055508173ffffffffffffffffffffffffffffffffffffffff16600073ffffffffffffffffffffffffffffffffffffffff167fddf252ad1be2c89b69c2b068fc378daa952ba7f163c4a11628f55a4df523b3ef8360405161175791906138e2565b60405180910390a361176b6000838361258d565b5050565b6000818361177d9190613983565b905092915050565b60007bffffffffffffffffffffffffffffffffffffffffffffffffffffffff80168211156117e8576040517f08c379a00000000000000000000000000000000000000000000000000000000081526004016117df906137e7565b60405180910390fd5b819050919050565b600063ffffffff801682111561183b576040517f08c379a000000000000000000000000000000000000000000000000000000000815260040161183290613827565b60405180910390fd5b819050919050565b61184e83838361186e565b61186961185a84610a12565b61186384610a12565b8361259d565b505050565b505050565b600081836118819190613a0a565b905092915050565b600033905090565b600073ffffffffffffffffffffffffffffffffffffffff168373ffffffffffffffffffffffffffffffffffffffff161415611901576040517f08c379a00000000000000000000000000000000000000000000000000000000081526004016118f890613847565b60405180910390fd5b600073ffffffffffffffffffffffffffffffffffffffff168273ffffffffffffffffffffffffffffffffffffffff161415611971576040517f08c379a0000000000000000000000000000000000000000000000000000000008152600401611968906136c7565b60405180910390fd5b80600160008573ffffffffffffffffffffffffffffffffffffffff1673ffffffffffffffffffffffffffffffffffffffff16815260200190815260200160002060008473ffffffffffffffffffffffffffffffffffffffff1673ffffffffffffffffffffffffffffffffffffffff168152602001908152602001600020819055508173ffffffffffffffffffffffffffffffffffffffff168373ffffffffffffffffffffffffffffffffffffffff167f8c5be1e5ebec7d5bd14f71427d1e84f3dd0314c0f7b2291e5b200ac8c7c3b92583604051611a4f91906138e2565b60405180910390a3505050565b6000611a6884846112cd565b90507fffffffffffffffffffffffffffffffffffffffffffffffffffffffffffffffff8114611ae25781811015611ad4576040517f08c379a0000000000000000000000000000000000000000000000000000000008152600401611acb906136e7565b60405180910390fd5b611ae18484848403611891565b5b50505050565b600073ffffffffffffffffffffffffffffffffffffffff168373ffffffffffffffffffffffffffffffffffffffff161415611b58576040517f08c379a0000000000000000000000000000000000000000000000000000000008152600401611b4f90613807565b60405180910390fd5b600073ffffffffffffffffffffffffffffffffffffffff168273ffffffffffffffffffffffffffffffffffffffff161415611bc8576040517f08c379a0000000000000000000000000000000000000000000000000000000008152600401611bbf90613607565b60405180910390fd5b611bd3838383612588565b60008060008573ffffffffffffffffffffffffffffffffffffffff1673ffffffffffffffffffffffffffffffffffffffff16815260200190815260200160002054905081811015611c59576040517f08c379a0000000000000000000000000000000000000000000000000000000008152600401611c5090613727565b60405180910390fd5b8181036000808673ffffffffffffffffffffffffffffffffffffffff1673ffffffffffffffffffffffffffffffffffffffff16815260200190815260200160002081905550816000808573ffffffffffffffffffffffffffffffffffffffff1673ffffffffffffffffffffffffffffffffffffffff1681526020019081526020016000206000828254611cec9190613983565b925050819055508273ffffffffffffffffffffffffffffffffffffffff168473ffffffffffffffffffffffffffffffffffffffff167fddf252ad1be2c89b69c2b068fc378daa952ba7f163c4a11628f55a4df523b3ef84604051611d5091906138e2565b60405180910390a3611d6384848461258d565b50505050565b60007f000000000000000000000000000000000000000000000000000000000000000073ffffffffffffffffffffffffffffffffffffffff163073ffffffffffffffffffffffffffffffffffffffff16148015611de557507f000000000000000000000000000000000000000000000000000000000000000046145b15611e12577f00000000000000000000000000000000000000000000000000000000000000009050611e80565b611e7d7f00000000000000000000000000000000000000000000000000000000000000007f00000000000000000000000000000000000000000000000000000000000000007f0000000000000000000000000000000000000000000000000000000000000000612796565b90505b90565b6000808380549050905060005b81811015611f28576000611ea482846127d0565b905084868281548110611ee0577f4e487b7100000000000000000000000000000000000000000000000000000000600052603260045260246000fd5b9060005260206000200160000160009054906101000a900463ffffffff1663ffffffff161115611f1257809250611f22565b600181611f1f9190613983565b91505b50611e90565b60008214611fb05784600183611f3e9190613a0a565b81548110611f75577f4e487b7100000000000000000000000000000000000000000000000000000000600052603260045260246000fd5b9060005260206000200160000160049054906101000a90047bffffffffffffffffffffffffffffffffffffffffffffffffffffffff16611fb3565b60005b7bffffffffffffffffffffffffffffffffffffffffffffffffffffffff169250505092915050565b611fe58282611582565b5050565b6000611ff483610a12565b9050600061200184610ae3565b905082600660008673ffffffffffffffffffffffffffffffffffffffff1673ffffffffffffffffffffffffffffffffffffffff16815260200190815260200160002060006101000a81548173ffffffffffffffffffffffffffffffffffffffff021916908373ffffffffffffffffffffffffffffffffffffffff1602179055508273ffffffffffffffffffffffffffffffffffffffff168273ffffffffffffffffffffffffffffffffffffffff168573ffffffffffffffffffffffffffffffffffffffff167f3134e8a2e6d97e929a7e54011ea5485d7d196dd5f0ba4d4ef95803e8e3fc257f60405160405180910390a46120fd82848361259d565b50505050565b6000600960009054906101000a900473ffffffffffffffffffffffffffffffffffffffff16905081600960006101000a81548173ffffffffffffffffffffffffffffffffffffffff021916908373ffffffffffffffffffffffffffffffffffffffff1602179055508173ffffffffffffffffffffffffffffffffffffffff168173ffffffffffffffffffffffffffffffffffffffff167f8be0079c531659141344cd1fd0a4f28419497f9722a3daafe3b4186f6b6457e060405160405180910390a35050565b600081600001549050919050565b60006121ea6121e4611d69565b836127f6565b9050919050565b600080600061220287878787612829565b9150915061220f81612936565b8192505050949350505050565b600080600560008473ffffffffffffffffffffffffffffffffffffffff1673ffffffffffffffffffffffffffffffffffffffff1681526020019081526020016000209050612269816121c9565b915061227481612c87565b50919050565b60007bffffffffffffffffffffffffffffffffffffffffffffffffffffffff905090565b6000806000858054905090506000811461233257856001826122c09190613a0a565b815481106122f7577f4e487b7100000000000000000000000000000000000000000000000000000000600052603260045260246000fd5b9060005260206000200160000160049054906101000a90047bffffffffffffffffffffffffffffffffffffffffffffffffffffffff16612335565b60005b7bffffffffffffffffffffffffffffffffffffffffffffffffffffffff16925061236383858763ffffffff16565b91506000811180156123dc5750438660018361237f9190613a0a565b815481106123b6577f4e487b7100000000000000000000000000000000000000000000000000000000600052603260045260246000fd5b9060005260206000200160000160009054906101000a900463ffffffff1663ffffffff16145b1561248f576123ea82611785565b866001836123f89190613a0a565b8154811061242f577f4e487b7100000000000000000000000000000000000000000000000000000000600052603260045260246000fd5b9060005260206000200160000160046101000a8154817bffffffffffffffffffffffffffffffffffffffffffffffffffffffff02191690837bffffffffffffffffffffffffffffffffffffffffffffffffffffffff16021790555061257f565b8560405180604001604052806124a4436117f0565b63ffffffff1681526020016124b885611785565b7bffffffffffffffffffffffffffffffffffffffffffffffffffffffff168152509080600181540180825580915050600190039060005260206000200160009091909190915060008201518160000160006101000a81548163ffffffff021916908363ffffffff16021790555060208201518160000160046101000a8154817bffffffffffffffffffffffffffffffffffffffffffffffffffffffff02191690837bffffffffffffffffffffffffffffffffffffffffffffffffffffffff16021790555050505b50935093915050565b505050565b612598838383611843565b505050565b8173ffffffffffffffffffffffffffffffffffffffff168373ffffffffffffffffffffffffffffffffffffffff16141580156125d95750600081115b1561279157600073ffffffffffffffffffffffffffffffffffffffff168373ffffffffffffffffffffffffffffffffffffffff16146126b757600080612660600760008773ffffffffffffffffffffffffffffffffffffffff1673ffffffffffffffffffffffffffffffffffffffff1681526020019081526020016000206118738561229e565b915091508473ffffffffffffffffffffffffffffffffffffffff167fdec2bacdd2f05b59de34da9b523dff8be42e5e38e818c82fdb0bae774387a72483836040516126ac9291906138fd565b60405180910390a250505b600073ffffffffffffffffffffffffffffffffffffffff168273ffffffffffffffffffffffffffffffffffffffff161461279057600080612739600760008673ffffffffffffffffffffffffffffffffffffffff1673ffffffffffffffffffffffffffffffffffffffff16815260200190815260200160002061176f8561229e565b915091508373ffffffffffffffffffffffffffffffffffffffff167fdec2bacdd2f05b59de34da9b523dff8be42e5e38e818c82fdb0bae774387a72483836040516127859291906138fd565b60405180910390a250505b5b505050565b600083838346306040516020016127b195949392919061352d565b6040516020818303038152906040528051906020012090509392505050565b600060028284186127e191906139d9565b8284166127ee9190613983565b905092915050565b6000828260405160200161280b9291906133ff565b60405160208183030381529060405280519060200120905092915050565b6000807f7fffffffffffffffffffffffffffffff5d576e7357a4501ddfe92f46681b20a08360001c111561286457600060039150915061292d565b601b8560ff161415801561287c5750601c8560ff1614155b1561288e57600060049150915061292d565b6000600187878787604051600081526020016040526040516128b39493929190613580565b6020604051602081039080840390855afa1580156128d5573d6000803e3d6000fd5b505050602060405103519050600073ffffffffffffffffffffffffffffffffffffffff168173ffffffffffffffffffffffffffffffffffffffff1614156129245760006001925092505061292d565b80600092509250505b94509492505050565b60006004811115612970577f4e487b7100000000000000000000000000000000000000000000000000000000600052602160045260246000fd5b8160048111156129a9577f4e487b7100000000000000000000000000000000000000000000000000000000600052602160045260246000fd5b14156129b457612c84565b600160048111156129ee577f4e487b7100000000000000000000000000000000000000000000000000000000600052602160045260246000fd5b816004811115612a27577f4e487b7100000000000000000000000000000000000000000000000000000000600052602160045260246000fd5b1415612a68576040517f08c379a0000000000000000000000000000000000000000000000000000000008152600401612a5f906135e7565b60405180910390fd5b60026004811115612aa2577f4e487b7100000000000000000000000000000000000000000000000000000000600052602160045260246000fd5b816004811115612adb577f4e487b7100000000000000000000000000000000000000000000000000000000600052602160045260246000fd5b1415612b1c576040517f08c379a0000000000000000000000000000000000000000000000000000000008152600401612b1390613667565b60405180910390fd5b60036004811115612b56577f4e487b7100000000000000000000000000000000000000000000000000000000600052602160045260246000fd5b816004811115612b8f577f4e487b7100000000000000000000000000000000000000000000000000000000600052602160045260246000fd5b1415612bd0576040517f08c379a0000000000000000000000000000000000000000000000000000000008152600401612bc790613747565b60405180910390fd5b600480811115612c09577f4e487b7100000000000000000000000000000000000000000000000000000000600052602160045260246000fd5b816004811115612c42577f4e487b7100000000000000000000000000000000000000000000000000000000600052602160045260246000fd5b1415612c83576040517f08c379a0000000000000000000000000000000000000000000000000000000008152600401612c7a90613767565b60405180910390fd5b5b50565b6001816000016000828254019250508190555050565b6040518060400160405280600063ffffffff16815260200160007bffffffffffffffffffffffffffffffffffffffffffffffffffffffff1681525090565b600081359050612cea81614182565b92915050565b600081359050612cff81614199565b92915050565b600081359050612d14816141b0565b92915050565b600081359050612d29816141c7565b92915050565b600081359050612d3e816141de565b92915050565b600060208284031215612d5657600080fd5b6000612d6484828501612cdb565b91505092915050565b60008060408385031215612d8057600080fd5b6000612d8e85828601612cdb565b9250506020612d9f85828601612cdb565b9150509250929050565b600080600060608486031215612dbe57600080fd5b6000612dcc86828701612cdb565b9350506020612ddd86828701612cdb565b9250506040612dee86828701612d05565b9150509250925092565b600080600080600080600060e0888a031215612e1357600080fd5b6000612e218a828b01612cdb565b9750506020612e328a828b01612cdb565b9650506040612e438a828b01612d05565b9550506060612e548a828b01612d05565b9450506080612e658a828b01612d2f565b93505060a0612e768a828b01612cf0565b92505060c0612e878a828b01612cf0565b91505092959891949750929550565b60008060408385031215612ea957600080fd5b6000612eb785828601612cdb565b9250506020612ec885828601612d05565b9150509250929050565b60008060008060008060c08789031215612eeb57600080fd5b6000612ef989828a01612cdb565b9650506020612f0a89828a01612d05565b9550506040612f1b89828a01612d05565b9450506060612f2c89828a01612d2f565b9350506080612f3d89828a01612cf0565b92505060a0612f4e89828a01612cf0565b9150509295509295509295565b60008060408385031215612f6e57600080fd5b6000612f7c85828601612cdb565b9250506020612f8d85828601612d1a565b9150509250929050565b600060208284031215612fa957600080fd5b6000612fb784828501612d05565b91505092915050565b612fc981613a3e565b82525050565b612fd881613a50565b82525050565b612fe781613a5c565b82525050565b612ffe612ff982613a5c565b613b3a565b82525050565b600061300f8261395c565b6130198185613967565b9350613029818560208601613ad5565b61303281613bd1565b840191505092915050565b600061304a601883613967565b915061305582613be2565b602082019050919050565b600061306d602383613967565b915061307882613c0b565b604082019050919050565b6000613090601f83613967565b915061309b82613c5a565b602082019050919050565b60006130b3601d83613967565b91506130be82613c83565b602082019050919050565b60006130d6601f83613967565b91506130e182613cac565b602082019050919050565b60006130f9601983613967565b915061310482613cd5565b602082019050919050565b600061311c602683613967565b915061312782613cfe565b604082019050919050565b600061313f602283613967565b915061314a82613d4d565b604082019050919050565b6000613162600283613978565b915061316d82613d9c565b600282019050919050565b6000613185601d83613967565b915061319082613dc5565b602082019050919050565b60006131a8601d83613967565b91506131b382613dee565b602082019050919050565b60006131cb602683613967565b91506131d682613e17565b604082019050919050565b60006131ee602283613967565b91506131f982613e66565b604082019050919050565b6000613211602283613967565b915061321c82613eb5565b604082019050919050565b6000613234601e83613967565b915061323f82613f04565b602082019050919050565b6000613257603083613967565b915061326282613f2d565b604082019050919050565b600061327a602083613967565b915061328582613f7c565b602082019050919050565b600061329d602783613967565b91506132a882613fa5565b604082019050919050565b60006132c0602583613967565b91506132cb82613ff4565b604082019050919050565b60006132e3602683613967565b91506132ee82614043565b604082019050919050565b6000613306602483613967565b915061331182614092565b604082019050919050565b6000613329601583613967565b9150613334826140e1565b602082019050919050565b600061334c602583613967565b91506133578261410a565b604082019050919050565b600061336f601f83613967565b915061337a82614159565b602082019050919050565b60408201600082015161339b60008501826133d2565b5060208201516133ae60208501826133b4565b50505050565b6133bd81613a86565b82525050565b6133cc81613aae565b82525050565b6133db81613ab8565b82525050565b6133ea81613ab8565b82525050565b6133f981613ac8565b82525050565b600061340a82613155565b91506134168285612fed565b6020820191506134268284612fed565b6020820191508190509392505050565b600060208201905061344b6000830184612fc0565b92915050565b60006020820190506134666000830184612fcf565b92915050565b60006020820190506134816000830184612fde565b92915050565b600060c08201905061349c6000830189612fde565b6134a96020830188612fc0565b6134b66040830187612fc0565b6134c360608301866133c3565b6134d060808301856133c3565b6134dd60a08301846133c3565b979650505050505050565b60006080820190506134fd6000830187612fde565b61350a6020830186612fc0565b61351760408301856133c3565b61352460608301846133c3565b95945050505050565b600060a0820190506135426000830188612fde565b61354f6020830187612fde565b61355c6040830186612fde565b61356960608301856133c3565b6135766080830184612fc0565b9695505050505050565b60006080820190506135956000830187612fde565b6135a260208301866133f0565b6135af6040830185612fde565b6135bc6060830184612fde565b95945050505050565b600060208201905081810360008301526135df8184613004565b905092915050565b600060208201905081810360008301526136008161303d565b9050919050565b6000602082019050818103600083015261362081613060565b9050919050565b6000602082019050818103600083015261364081613083565b9050919050565b60006020820190508181036000830152613660816130a6565b9050919050565b60006020820190508181036000830152613680816130c9565b9050919050565b600060208201905081810360008301526136a0816130ec565b9050919050565b600060208201905081810360008301526136c08161310f565b9050919050565b600060208201905081810360008301526136e081613132565b9050919050565b6000602082019050818103600083015261370081613178565b9050919050565b600060208201905081810360008301526137208161319b565b9050919050565b60006020820190508181036000830152613740816131be565b9050919050565b60006020820190508181036000830152613760816131e1565b9050919050565b6000602082019050818103600083015261378081613204565b9050919050565b600060208201905081810360008301526137a081613227565b9050919050565b600060208201905081810360008301526137c08161324a565b9050919050565b600060208201905081810360008301526137e08161326d565b9050919050565b6000602082019050818103600083015261380081613290565b9050919050565b60006020820190508181036000830152613820816132b3565b9050919050565b60006020820190508181036000830152613840816132d6565b9050919050565b60006020820190508181036000830152613860816132f9565b9050919050565b600060208201905081810360008301526138808161331c565b9050919050565b600060208201905081810360008301526138a08161333f565b9050919050565b600060208201905081810360008301526138c081613362565b9050919050565b60006040820190506138dc6000830184613385565b92915050565b60006020820190506138f760008301846133c3565b92915050565b600060408201905061391260008301856133c3565b61391f60208301846133c3565b9392505050565b600060208201905061393b60008301846133e1565b92915050565b600060208201905061395660008301846133f0565b92915050565b600081519050919050565b600082825260208201905092915050565b600081905092915050565b600061398e82613aae565b915061399983613aae565b9250827fffffffffffffffffffffffffffffffffffffffffffffffffffffffffffffffff038211156139ce576139cd613b44565b5b828201905092915050565b60006139e482613aae565b91506139ef83613aae565b9250826139ff576139fe613b73565b5b828204905092915050565b6000613a1582613aae565b9150613a2083613aae565b925082821015613a3357613a32613b44565b5b828203905092915050565b6000613a4982613a66565b9050919050565b60008115159050919050565b6000819050919050565b600073ffffffffffffffffffffffffffffffffffffffff82169050919050565b60007bffffffffffffffffffffffffffffffffffffffffffffffffffffffff82169050919050565b6000819050919050565b600063ffffffff82169050919050565b600060ff82169050919050565b60005b83811015613af3578082015181840152602081019050613ad8565b83811115613b02576000848401525b50505050565b60006002820490506001821680613b2057607f821691505b60208210811415613b3457613b33613ba2565b5b50919050565b6000819050919050565b7f4e487b7100000000000000000000000000000000000000000000000000000000600052601160045260246000fd5b7f4e487b7100000000000000000000000000000000000000000000000000000000600052601260045260246000fd5b7f4e487b7100000000000000000000000000000000000000000000000000000000600052602260045260246000fd5b6000601f19601f8301169050919050565b7f45434453413a20696e76616c6964207369676e61747572650000000000000000600082015250565b7f45524332303a207472616e7366657220746f20746865207a65726f206164647260008201527f6573730000000000000000000000000000000000000000000000000000000000602082015250565b7f4552433230566f7465733a20626c6f636b206e6f7420796574206d696e656400600082015250565b7f4552433230566f7465733a207369676e61747572652065787069726564000000600082015250565b7f45434453413a20696e76616c6964207369676e6174757265206c656e67746800600082015250565b7f4552433230566f7465733a20696e76616c6964206e6f6e636500000000000000600082015250565b7f4f776e61626c653a206e6577206f776e657220697320746865207a65726f206160008201527f6464726573730000000000000000000000000000000000000000000000000000602082015250565b7f45524332303a20617070726f766520746f20746865207a65726f20616464726560008201527f7373000000000000000000000000000000000000000000000000000000000000602082015250565b7f1901000000000000000000000000000000000000000000000000000000000000600082015250565b7f45524332303a20696e73756666696369656e7420616c6c6f77616e6365000000600082015250565b7f45524332305065726d69743a206578706972656420646561646c696e65000000600082015250565b7f45524332303a207472616e7366657220616d6f756e742065786365656473206260008201527f616c616e63650000000000000000000000000000000000000000000000000000602082015250565b7f45434453413a20696e76616c6964207369676e6174757265202773272076616c60008201527f7565000000000000000000000000000000000000000000000000000000000000602082015250565b7f45434453413a20696e76616c6964207369676e6174757265202776272076616c60008201527f7565000000000000000000000000000000000000000000000000000000000000602082015250565b7f45524332305065726d69743a20696e76616c6964207369676e61747572650000600082015250565b7f4552433230566f7465733a20746f74616c20737570706c79207269736b73206f60008201527f766572666c6f77696e6720766f74657300000000000000000000000000000000602082015250565b7f4f776e61626c653a2063616c6c6572206973206e6f7420746865206f776e6572600082015250565b7f53616665436173743a2076616c756520646f65736e27742066697420696e203260008201527f3234206269747300000000000000000000000000000000000000000000000000602082015250565b7f45524332303a207472616e736665722066726f6d20746865207a65726f20616460008201527f6472657373000000000000000000000000000000000000000000000000000000602082015250565b7f53616665436173743a2076616c756520646f65736e27742066697420696e203360008201527f3220626974730000000000000000000000000000000000000000000000000000602082015250565b7f45524332303a20617070726f76652066726f6d20746865207a65726f2061646460008201527f7265737300000000000000000000000000000000000000000000000000000000602082015250565b7f4d696e746572206e6f7420617574686f72697a65640000000000000000000000600082015250565b7f45524332303a2064656372656173656420616c6c6f77616e63652062656c6f7760008201527f207a65726f000000000000000000000000000000000000000000000000000000602082015250565b7f45524332303a206d696e7420746f20746865207a65726f206164647265737300600082015250565b61418b81613a3e565b811461419657600080fd5b50565b6141a281613a5c565b81146141ad57600080fd5b50565b6141b981613aae565b81146141c457600080fd5b50565b6141d081613ab8565b81146141db57600080fd5b50565b6141e781613ac8565b81146141f257600080fd5b5056fea2646970667358221220e204c51054187e2cffe6e64caf9f780e502d2562a0052bfa21b0801cfa46c83a64736f6c63430008010033",
  "immutableReferences": {
    "3178": [
      {
        "length": 32,
        "start": 4562
      }
    ],
    "6100": [
      {
        "length": 32,
        "start": 7660
      }
    ],
    "6102": [
      {
        "length": 32,
        "start": 7619
      }
    ],
    "6104": [
      {
        "length": 32,
        "start": 7533
      }
    ],
    "6106": [
      {
        "length": 32,
        "start": 7736
      }
    ],
    "6108": [
      {
        "length": 32,
        "start": 7769
      }
    ],
    "6110": [
      {
        "length": 32,
        "start": 7703
      }
    ]
  },
  "source": "// SPDX-License-Identifier: MIT\npragma solidity ^0.8.0;\nimport \"@openzeppelin/contracts/token/ERC20/ERC20.sol\";\nimport \"@openzeppelin/contracts/token/ERC20/extensions/ERC20Votes.sol\";\nimport \"@openzeppelin/contracts/access/Ownable.sol\";\nimport \"@openzeppelin/contracts/token/ERC20/extensions/draft-ERC20Permit.sol\";\n\ncontract CaoToken is ERC20, ERC20Permit, ERC20Votes, Ownable {\n    mapping(address => bool) public authorizedMinters;\n\n    event MinterAdded(address minter);\n    event MinterRemoved(address minter);\n\n    constructor(\n        string memory _tokenName,\n        string memory _symbol,\n        address[] memory _minters\n    ) ERC20(_tokenName, _symbol) ERC20Permit(_tokenName) {\n        for (uint256 index = 0; index < _minters.length; index++) {\n            authorizedMinters[_minters[index]] = true;\n        }\n        _mint(msg.sender, 150*10**decimals());\n        _mint(address(this), 150*10**decimals()); //mint 150 CAO in order to have a flow balance\n    }\n\n    modifier onlyAuthorizedMinters() {\n        require(authorizedMinters[msg.sender], \"Minter not authorized\");\n        _;\n    }\n\n    function addMinter(address _minter) public onlyOwner {\n        authorizedMinters[_minter] = true;\n        emit MinterAdded(_minter);\n    }\n\n    function removeMinter(address _minter) public onlyOwner {\n        authorizedMinters[_minter] = false;\n        emit MinterRemoved(_minter);\n    }\n\n    function _afterTokenTransfer(\n        address from,\n        address to,\n        uint256 amount\n    ) internal override(ERC20, ERC20Votes) {\n        super._afterTokenTransfer(from, to, amount);\n    }\n\n    function _mint(address to, uint256 amount)\n        internal\n        override(ERC20, ERC20Votes)\n    {\n        super._mint(to, amount);\n    }\n\n    function _burn(address account, uint256 amount)\n        internal\n        override(ERC20, ERC20Votes)\n    {\n        super._burn(account, amount);\n    }\n\n    function mint(address to, uint256 amount) public onlyAuthorizedMinters {\n        _mint(to, amount);\n    }\n}\n",
  "sourcePath": "/home/aymeric/Documents/hackathon-dao/dao-project/contracts/CaoToken.sol",
  "compiler": {
    "name": "solc",
    "version": "0.8.1+commit.df193b15.Emscripten.clang"
  },
  "schemaVersion": "3.4.6",
  "updatedAt": "2022-04-10T10:12:45.843Z",
  "networkType": "ethereum",
  "devdoc": {
    "kind": "dev",
    "methods": {
      "DOMAIN_SEPARATOR()": {
        "details": "See {IERC20Permit-DOMAIN_SEPARATOR}."
      },
      "allowance(address,address)": {
        "details": "See {IERC20-allowance}."
      },
      "approve(address,uint256)": {
        "details": "See {IERC20-approve}. NOTE: If `amount` is the maximum `uint256`, the allowance is not updated on `transferFrom`. This is semantically equivalent to an infinite approval. Requirements: - `spender` cannot be the zero address."
      },
      "balanceOf(address)": {
        "details": "See {IERC20-balanceOf}."
      },
      "checkpoints(address,uint32)": {
        "details": "Get the `pos`-th checkpoint for `account`."
      },
      "decimals()": {
        "details": "Returns the number of decimals used to get its user representation. For example, if `decimals` equals `2`, a balance of `505` tokens should be displayed to a user as `5.05` (`505 / 10 ** 2`). Tokens usually opt for a value of 18, imitating the relationship between Ether and Wei. This is the value {ERC20} uses, unless this function is overridden; NOTE: This information is only used for _display_ purposes: it in no way affects any of the arithmetic of the contract, including {IERC20-balanceOf} and {IERC20-transfer}."
      },
      "decreaseAllowance(address,uint256)": {
        "details": "Atomically decreases the allowance granted to `spender` by the caller. This is an alternative to {approve} that can be used as a mitigation for problems described in {IERC20-approve}. Emits an {Approval} event indicating the updated allowance. Requirements: - `spender` cannot be the zero address. - `spender` must have allowance for the caller of at least `subtractedValue`."
      },
      "delegate(address)": {
        "details": "Delegate votes from the sender to `delegatee`."
      },
      "delegateBySig(address,uint256,uint256,uint8,bytes32,bytes32)": {
        "details": "Delegates votes from signer to `delegatee`"
      },
      "delegates(address)": {
        "details": "Get the address `account` is currently delegating to."
      },
      "getPastTotalSupply(uint256)": {
        "details": "Retrieve the `totalSupply` at the end of `blockNumber`. Note, this value is the sum of all balances. It is but NOT the sum of all the delegated votes! Requirements: - `blockNumber` must have been already mined"
      },
      "getPastVotes(address,uint256)": {
        "details": "Retrieve the number of votes for `account` at the end of `blockNumber`. Requirements: - `blockNumber` must have been already mined"
      },
      "getVotes(address)": {
        "details": "Gets the current votes balance for `account`"
      },
      "increaseAllowance(address,uint256)": {
        "details": "Atomically increases the allowance granted to `spender` by the caller. This is an alternative to {approve} that can be used as a mitigation for problems described in {IERC20-approve}. Emits an {Approval} event indicating the updated allowance. Requirements: - `spender` cannot be the zero address."
      },
      "name()": {
        "details": "Returns the name of the token."
      },
      "nonces(address)": {
        "details": "See {IERC20Permit-nonces}."
      },
      "numCheckpoints(address)": {
        "details": "Get number of checkpoints for `account`."
      },
      "owner()": {
        "details": "Returns the address of the current owner."
      },
      "permit(address,address,uint256,uint256,uint8,bytes32,bytes32)": {
        "details": "See {IERC20Permit-permit}."
      },
      "renounceOwnership()": {
        "details": "Leaves the contract without owner. It will not be possible to call `onlyOwner` functions anymore. Can only be called by the current owner. NOTE: Renouncing ownership will leave the contract without an owner, thereby removing any functionality that is only available to the owner."
      },
      "symbol()": {
        "details": "Returns the symbol of the token, usually a shorter version of the name."
      },
      "totalSupply()": {
        "details": "See {IERC20-totalSupply}."
      },
      "transfer(address,uint256)": {
        "details": "See {IERC20-transfer}. Requirements: - `to` cannot be the zero address. - the caller must have a balance of at least `amount`."
      },
      "transferFrom(address,address,uint256)": {
        "details": "See {IERC20-transferFrom}. Emits an {Approval} event indicating the updated allowance. This is not required by the EIP. See the note at the beginning of {ERC20}. NOTE: Does not update the allowance if the current allowance is the maximum `uint256`. Requirements: - `from` and `to` cannot be the zero address. - `from` must have a balance of at least `amount`. - the caller must have allowance for ``from``'s tokens of at least `amount`."
      },
      "transferOwnership(address)": {
        "details": "Transfers ownership of the contract to a new account (`newOwner`). Can only be called by the current owner."
      }
    },
    "version": 1
  },
  "userdoc": {
    "kind": "user",
    "methods": {},
    "version": 1
  }
}