{
  "contractName": "RewardNFT",
  "abi": [
    {
      "inputs": [
        {
          "internalType": "string",
          "name": "_tokenName",
          "type": "string"
        },
        {
          "internalType": "string",
          "name": "_symbol",
          "type": "string"
        },
        {
          "internalType": "contract CaoToken",
          "name": "_caoToken",
          "type": "address"
        }
      ],
      "stateMutability": "nonpayable",
      "type": "constructor"
    },
    {
      "anonymous": false,
      "inputs": [
        {
          "indexed": true,
          "internalType": "address",
          "name": "owner",
          "type": "address"
        },
        {
          "indexed": true,
          "internalType": "address",
          "name": "approved",
          "type": "address"
        },
        {
          "indexed": true,
          "internalType": "uint256",
          "name": "tokenId",
          "type": "uint256"
        }
      ],
      "name": "Approval",
      "type": "event"
    },
    {
      "anonymous": false,
      "inputs": [
        {
          "indexed": true,
          "internalType": "address",
          "name": "owner",
          "type": "address"
        },
        {
          "indexed": true,
          "internalType": "address",
          "name": "operator",
          "type": "address"
        },
        {
          "indexed": false,
          "internalType": "bool",
          "name": "approved",
          "type": "bool"
        }
      ],
      "name": "ApprovalForAll",
      "type": "event"
    },
    {
      "anonymous": false,
      "inputs": [
        {
          "indexed": false,
          "internalType": "uint256",
          "name": "amount",
          "type": "uint256"
        },
        {
          "indexed": false,
          "internalType": "address",
          "name": "depositor",
          "type": "address"
        }
      ],
      "name": "DepositedEthers",
      "type": "event"
    },
    {
      "anonymous": false,
      "inputs": [
        {
          "indexed": false,
          "internalType": "uint256",
          "name": "newAmount",
          "type": "uint256"
        }
      ],
      "name": "EtherByRewardEvent",
      "type": "event"
    },
    {
      "anonymous": false,
      "inputs": [
        {
          "indexed": false,
          "internalType": "uint256",
          "name": "tokenId",
          "type": "uint256"
        },
        {
          "indexed": false,
          "internalType": "string",
          "name": "tokenUri",
          "type": "string"
        }
      ],
      "name": "NewReward",
      "type": "event"
    },
    {
      "anonymous": false,
      "inputs": [
        {
          "indexed": true,
          "internalType": "address",
          "name": "previousOwner",
          "type": "address"
        },
        {
          "indexed": true,
          "internalType": "address",
          "name": "newOwner",
          "type": "address"
        }
      ],
      "name": "OwnershipTransferred",
      "type": "event"
    },
    {
      "anonymous": false,
      "inputs": [],
      "name": "RaiseDistributed",
      "type": "event"
    },
    {
      "anonymous": false,
      "inputs": [
        {
          "indexed": true,
          "internalType": "address",
          "name": "from",
          "type": "address"
        },
        {
          "indexed": true,
          "internalType": "address",
          "name": "to",
          "type": "address"
        },
        {
          "indexed": true,
          "internalType": "uint256",
          "name": "tokenId",
          "type": "uint256"
        }
      ],
      "name": "Transfer",
      "type": "event"
    },
    {
      "stateMutability": "payable",
      "type": "fallback"
    },
    {
      "inputs": [
        {
          "internalType": "address",
          "name": "",
          "type": "address"
        }
      ],
      "name": "allAddresses",
      "outputs": [
        {
          "internalType": "bool",
          "name": "",
          "type": "bool"
        }
      ],
      "stateMutability": "view",
      "type": "function"
    },
    {
      "inputs": [
        {
          "internalType": "uint256",
          "name": "",
          "type": "uint256"
        }
      ],
      "name": "allAddressesArray",
      "outputs": [
        {
          "internalType": "address payable",
          "name": "",
          "type": "address"
        }
      ],
      "stateMutability": "view",
      "type": "function"
    },
    {
      "inputs": [
        {
          "internalType": "address",
          "name": "to",
          "type": "address"
        },
        {
          "internalType": "uint256",
          "name": "tokenId",
          "type": "uint256"
        }
      ],
      "name": "approve",
      "outputs": [],
      "stateMutability": "nonpayable",
      "type": "function"
    },
    {
      "inputs": [
        {
          "internalType": "address",
          "name": "",
          "type": "address"
        }
      ],
      "name": "authorizedMinters",
      "outputs": [
        {
          "internalType": "bool",
          "name": "",
          "type": "bool"
        }
      ],
      "stateMutability": "view",
      "type": "function"
    },
    {
      "inputs": [
        {
          "internalType": "address",
          "name": "owner",
          "type": "address"
        }
      ],
      "name": "balanceOf",
      "outputs": [
        {
          "internalType": "uint256",
          "name": "",
          "type": "uint256"
        }
      ],
      "stateMutability": "view",
      "type": "function"
    },
    {
      "inputs": [
        {
          "internalType": "address",
          "name": "",
          "type": "address"
        }
      ],
      "name": "currentNftByOwner",
      "outputs": [
        {
          "internalType": "uint256",
          "name": "",
          "type": "uint256"
        }
      ],
      "stateMutability": "view",
      "type": "function"
    },
    {
      "inputs": [],
      "name": "etherByReward",
      "outputs": [
        {
          "internalType": "uint256",
          "name": "",
          "type": "uint256"
        }
      ],
      "stateMutability": "view",
      "type": "function"
    },
    {
      "inputs": [
        {
          "internalType": "uint256",
          "name": "tokenId",
          "type": "uint256"
        }
      ],
      "name": "getApproved",
      "outputs": [
        {
          "internalType": "address",
          "name": "",
          "type": "address"
        }
      ],
      "stateMutability": "view",
      "type": "function"
    },
    {
      "inputs": [],
      "name": "governanceToken",
      "outputs": [
        {
          "internalType": "contract CaoToken",
          "name": "",
          "type": "address"
        }
      ],
      "stateMutability": "view",
      "type": "function"
    },
    {
      "inputs": [
        {
          "internalType": "address",
          "name": "owner",
          "type": "address"
        },
        {
          "internalType": "address",
          "name": "operator",
          "type": "address"
        }
      ],
      "name": "isApprovedForAll",
      "outputs": [
        {
          "internalType": "bool",
          "name": "",
          "type": "bool"
        }
      ],
      "stateMutability": "view",
      "type": "function"
    },
    {
      "inputs": [],
      "name": "name",
      "outputs": [
        {
          "internalType": "string",
          "name": "",
          "type": "string"
        }
      ],
      "stateMutability": "view",
      "type": "function"
    },
    {
      "inputs": [],
      "name": "owner",
      "outputs": [
        {
          "internalType": "address",
          "name": "",
          "type": "address"
        }
      ],
      "stateMutability": "view",
      "type": "function"
    },
    {
      "inputs": [
        {
          "internalType": "uint256",
          "name": "tokenId",
          "type": "uint256"
        }
      ],
      "name": "ownerOf",
      "outputs": [
        {
          "internalType": "address",
          "name": "",
          "type": "address"
        }
      ],
      "stateMutability": "view",
      "type": "function"
    },
    {
      "inputs": [],
      "name": "renounceOwnership",
      "outputs": [],
      "stateMutability": "nonpayable",
      "type": "function"
    },
    {
      "inputs": [],
      "name": "requiredEthers",
      "outputs": [
        {
          "internalType": "uint256",
          "name": "",
          "type": "uint256"
        }
      ],
      "stateMutability": "view",
      "type": "function"
    },
    {
      "inputs": [
        {
          "internalType": "address",
          "name": "from",
          "type": "address"
        },
        {
          "internalType": "address",
          "name": "to",
          "type": "address"
        },
        {
          "internalType": "uint256",
          "name": "tokenId",
          "type": "uint256"
        }
      ],
      "name": "safeTransferFrom",
      "outputs": [],
      "stateMutability": "nonpayable",
      "type": "function"
    },
    {
      "inputs": [
        {
          "internalType": "address",
          "name": "from",
          "type": "address"
        },
        {
          "internalType": "address",
          "name": "to",
          "type": "address"
        },
        {
          "internalType": "uint256",
          "name": "tokenId",
          "type": "uint256"
        },
        {
          "internalType": "bytes",
          "name": "_data",
          "type": "bytes"
        }
      ],
      "name": "safeTransferFrom",
      "outputs": [],
      "stateMutability": "nonpayable",
      "type": "function"
    },
    {
      "inputs": [
        {
          "internalType": "address",
          "name": "operator",
          "type": "address"
        },
        {
          "internalType": "bool",
          "name": "approved",
          "type": "bool"
        }
      ],
      "name": "setApprovalForAll",
      "outputs": [],
      "stateMutability": "nonpayable",
      "type": "function"
    },
    {
      "inputs": [],
      "name": "symbol",
      "outputs": [
        {
          "internalType": "string",
          "name": "",
          "type": "string"
        }
      ],
      "stateMutability": "view",
      "type": "function"
    },
    {
      "inputs": [
        {
          "internalType": "uint256",
          "name": "index",
          "type": "uint256"
        }
      ],
      "name": "tokenByIndex",
      "outputs": [
        {
          "internalType": "uint256",
          "name": "",
          "type": "uint256"
        }
      ],
      "stateMutability": "view",
      "type": "function"
    },
    {
      "inputs": [
        {
          "internalType": "address",
          "name": "owner",
          "type": "address"
        },
        {
          "internalType": "uint256",
          "name": "index",
          "type": "uint256"
        }
      ],
      "name": "tokenOfOwnerByIndex",
      "outputs": [
        {
          "internalType": "uint256",
          "name": "",
          "type": "uint256"
        }
      ],
      "stateMutability": "view",
      "type": "function"
    },
    {
      "inputs": [],
      "name": "totalSupply",
      "outputs": [
        {
          "internalType": "uint256",
          "name": "",
          "type": "uint256"
        }
      ],
      "stateMutability": "view",
      "type": "function"
    },
    {
      "inputs": [
        {
          "internalType": "address",
          "name": "from",
          "type": "address"
        },
        {
          "internalType": "address",
          "name": "to",
          "type": "address"
        },
        {
          "internalType": "uint256",
          "name": "tokenId",
          "type": "uint256"
        }
      ],
      "name": "transferFrom",
      "outputs": [],
      "stateMutability": "nonpayable",
      "type": "function"
    },
    {
      "inputs": [
        {
          "internalType": "address",
          "name": "newOwner",
          "type": "address"
        }
      ],
      "name": "transferOwnership",
      "outputs": [],
      "stateMutability": "nonpayable",
      "type": "function"
    },
    {
      "stateMutability": "payable",
      "type": "receive"
    },
    {
      "inputs": [
        {
          "internalType": "uint256",
          "name": "tokenId",
          "type": "uint256"
        }
      ],
      "name": "tokenURI",
      "outputs": [
        {
          "internalType": "string",
          "name": "",
          "type": "string"
        }
      ],
      "stateMutability": "view",
      "type": "function"
    },
    {
      "inputs": [
        {
          "internalType": "bytes4",
          "name": "interfaceId",
          "type": "bytes4"
        }
      ],
      "name": "supportsInterface",
      "outputs": [
        {
          "internalType": "bool",
          "name": "",
          "type": "bool"
        }
      ],
      "stateMutability": "view",
      "type": "function"
    },
    {
      "inputs": [
        {
          "internalType": "address",
          "name": "_minter",
          "type": "address"
        }
      ],
      "name": "addMinter",
      "outputs": [],
      "stateMutability": "nonpayable",
      "type": "function"
    },
    {
      "inputs": [
        {
          "internalType": "address",
          "name": "_minter",
          "type": "address"
        }
      ],
      "name": "removeMinter",
      "outputs": [],
      "stateMutability": "nonpayable",
      "type": "function"
    },
    {
      "inputs": [
        {
          "internalType": "uint256",
          "name": "_newAmount",
          "type": "uint256"
        }
      ],
      "name": "updateEtherByReward",
      "outputs": [],
      "stateMutability": "nonpayable",
      "type": "function"
    },
    {
      "inputs": [
        {
          "internalType": "address payable",
          "name": "_receiver",
          "type": "address"
        },
        {
          "internalType": "uint256",
          "name": "_tokenReward",
          "type": "uint256"
        },
        {
          "internalType": "string",
          "name": "_tokenURI",
          "type": "string"
        }
      ],
      "name": "mint",
      "outputs": [],
      "stateMutability": "nonpayable",
      "type": "function"
    },
    {
      "inputs": [],
      "name": "giveAwayRaise",
      "outputs": [],
      "stateMutability": "nonpayable",
      "type": "function"
    },
    {
      "inputs": [],
      "name": "getEtherBalance",
      "outputs": [
        {
          "internalType": "uint256",
          "name": "",
          "type": "uint256"
        }
      ],
      "stateMutability": "view",
      "type": "function"
    }
  ],
  "bytecode": "0x6080604052600060115566060a24181e40006013553480156200002157600080fd5b5060405162004d2b38038062004d2b8339818101604052810190620000479190620002ee565b8282816000908051906020019062000061929190620001b5565b5080600190805190602001906200007a929190620001b5565b5050506200009d62000091620000e760201b60201c565b620000ef60201b60201c565b80600c60006101000a81548173ffffffffffffffffffffffffffffffffffffffff021916908373ffffffffffffffffffffffffffffffffffffffff16021790555050505062000548565b600033905090565b6000600a60009054906101000a900473ffffffffffffffffffffffffffffffffffffffff16905081600a60006101000a81548173ffffffffffffffffffffffffffffffffffffffff021916908373ffffffffffffffffffffffffffffffffffffffff1602179055508173ffffffffffffffffffffffffffffffffffffffff168173ffffffffffffffffffffffffffffffffffffffff167f8be0079c531659141344cd1fd0a4f28419497f9722a3daafe3b4186f6b6457e060405160405180910390a35050565b828054620001c39062000453565b90600052602060002090601f016020900481019282620001e7576000855562000233565b82601f106200020257805160ff191683800117855562000233565b8280016001018555821562000233579182015b828111156200023257825182559160200191906001019062000215565b5b50905062000242919062000246565b5090565b5b808211156200026157600081600090555060010162000247565b5090565b60006200027c62000276846200039f565b62000376565b9050828152602081018484840111156200029557600080fd5b620002a28482856200041d565b509392505050565b600081519050620002bb816200052e565b92915050565b600082601f830112620002d357600080fd5b8151620002e584826020860162000265565b91505092915050565b6000806000606084860312156200030457600080fd5b600084015167ffffffffffffffff8111156200031f57600080fd5b6200032d86828701620002c1565b935050602084015167ffffffffffffffff8111156200034b57600080fd5b6200035986828701620002c1565b92505060406200036c86828701620002aa565b9150509250925092565b60006200038262000395565b905062000390828262000489565b919050565b6000604051905090565b600067ffffffffffffffff821115620003bd57620003bc620004ee565b5b620003c8826200051d565b9050602081019050919050565b6000620003e282620003fd565b9050919050565b6000620003f682620003d5565b9050919050565b600073ffffffffffffffffffffffffffffffffffffffff82169050919050565b60005b838110156200043d57808201518184015260208101905062000420565b838111156200044d576000848401525b50505050565b600060028204905060018216806200046c57607f821691505b60208210811415620004835762000482620004bf565b5b50919050565b62000494826200051d565b810181811067ffffffffffffffff82111715620004b657620004b5620004ee565b5b80604052505050565b7f4e487b7100000000000000000000000000000000000000000000000000000000600052602260045260246000fd5b7f4e487b7100000000000000000000000000000000000000000000000000000000600052604160045260246000fd5b6000601f19601f8301169050919050565b6200053981620003e9565b81146200054557600080fd5b50565b6147d380620005586000396000f3fe6080604052600436106101e75760003560e01c80638da5cb5b11610102578063c87b56dd11610095578063ea46193e11610064578063ea46193e146107b4578063f2fde38b146107df578063f96dae0a14610808578063fc03d7461461083357610227565b8063c87b56dd146106d4578063cbc641bc14610711578063d3fc98641461074e578063e985e9c51461077757610227565b8063a22cb465116100d1578063a22cb46514610608578063aa2fe91b14610631578063af5996aa1461066e578063b88d4fde146106ab57610227565b80638da5cb5b1461057257806395d89b411461059d578063983b2d56146105c85780639b39c379146105f157610227565b80633092afd51161017a5780636352211e116101495780636352211e146104b857806370a08231146104f5578063715018a61461053257806375a62a4d1461054957610227565b80633092afd5146103fe5780633ce42d691461042757806342842e0e146104525780634f6ccce71461047b57610227565b8063095ea7b3116101b6578063095ea7b31461034457806318160ddd1461036d57806323b872dd146103985780632f745c59146103c157610227565b806301ffc9a714610262578063027907441461029f57806306fdde03146102dc578063081812fc1461030757610227565b36610227577f97f302b4ef7d71ced3f9c2f983f351c154f3137fcea121f5ebe68faee5675893343360405161021d929190613c40565b60405180910390a1005b7f97f302b4ef7d71ced3f9c2f983f351c154f3137fcea121f5ebe68faee56758933433604051610258929190613c40565b60405180910390a1005b34801561026e57600080fd5b50610289600480360381019061028491906133c4565b61085e565b604051610296919061390d565b60405180910390f35b3480156102ab57600080fd5b506102c660048036038101906102c191906131b6565b610870565b6040516102d39190613c25565b60405180910390f35b3480156102e857600080fd5b506102f1610888565b6040516102fe9190613943565b60405180910390f35b34801561031357600080fd5b5061032e60048036038101906103299190613416565b61091a565b60405161033b9190613862565b60405180910390f35b34801561035057600080fd5b5061036b60048036038101906103669190613388565b61099f565b005b34801561037957600080fd5b50610382610ab7565b60405161038f9190613c25565b60405180910390f35b3480156103a457600080fd5b506103bf60048036038101906103ba9190613282565b610ac4565b005b3480156103cd57600080fd5b506103e860048036038101906103e39190613388565b610b24565b6040516103f59190613c25565b60405180910390f35b34801561040a57600080fd5b50610425600480360381019061042091906131b6565b610bc9565b005b34801561043357600080fd5b5061043c610ca0565b6040516104499190613c25565b60405180910390f35b34801561045e57600080fd5b5061047960048036038101906104749190613282565b610ca6565b005b34801561048757600080fd5b506104a2600480360381019061049d9190613416565b610cc6565b6040516104af9190613c25565b60405180910390f35b3480156104c457600080fd5b506104df60048036038101906104da9190613416565b610d5d565b6040516104ec9190613862565b60405180910390f35b34801561050157600080fd5b5061051c600480360381019061051791906131b6565b610e0f565b6040516105299190613c25565b60405180910390f35b34801561053e57600080fd5b50610547610ec7565b005b34801561055557600080fd5b50610570600480360381019061056b9190613416565b610f4f565b005b34801561057e57600080fd5b5061058761100c565b6040516105949190613862565b60405180910390f35b3480156105a957600080fd5b506105b2611036565b6040516105bf9190613943565b60405180910390f35b3480156105d457600080fd5b506105ef60048036038101906105ea91906131b6565b6110c8565b005b3480156105fd57600080fd5b5061060661119f565b005b34801561061457600080fd5b5061062f600480360381019061062a919061334c565b611428565b005b34801561063d57600080fd5b50610658600480360381019061065391906131b6565b61143e565b604051610665919061390d565b60405180910390f35b34801561067a57600080fd5b50610695600480360381019061069091906131b6565b61145e565b6040516106a2919061390d565b60405180910390f35b3480156106b757600080fd5b506106d260048036038101906106cd91906132d1565b61147e565b005b3480156106e057600080fd5b506106fb60048036038101906106f69190613416565b6114e0565b6040516107089190613943565b60405180910390f35b34801561071d57600080fd5b5061073860048036038101906107339190613416565b6114f2565b604051610745919061387d565b60405180910390f35b34801561075a57600080fd5b50610775600480360381019061077091906131df565b611531565b005b34801561078357600080fd5b5061079e60048036038101906107999190613246565b611836565b6040516107ab919061390d565b60405180910390f35b3480156107c057600080fd5b506107c96118ca565b6040516107d69190613c25565b60405180910390f35b3480156107eb57600080fd5b50610806600480360381019061080191906131b6565b6118d2565b005b34801561081457600080fd5b5061081d6119ca565b60405161082a9190613928565b60405180910390f35b34801561083f57600080fd5b506108486119f0565b6040516108559190613c25565b60405180910390f35b6000610869826119f6565b9050919050565b600e6020528060005260406000206000915090505481565b60606000805461089790613f9a565b80601f01602080910402602001604051908101604052809291908181526020018280546108c390613f9a565b80156109105780601f106108e557610100808354040283529160200191610910565b820191906000526020600020905b8154815290600101906020018083116108f357829003601f168201915b5050505050905090565b600061092582611a70565b610964576040517f08c379a000000000000000000000000000000000000000000000000000000000815260040161095b90613b45565b60405180910390fd5b6004600083815260200190815260200160002060009054906101000a900473ffffffffffffffffffffffffffffffffffffffff169050919050565b60006109aa82610d5d565b90508073ffffffffffffffffffffffffffffffffffffffff168373ffffffffffffffffffffffffffffffffffffffff161415610a1b576040517f08c379a0000000000000000000000000000000000000000000000000000000008152600401610a1290613ba5565b60405180910390fd5b8073ffffffffffffffffffffffffffffffffffffffff16610a3a611adc565b73ffffffffffffffffffffffffffffffffffffffff161480610a695750610a6881610a63611adc565b611836565b5b610aa8576040517f08c379a0000000000000000000000000000000000000000000000000000000008152600401610a9f90613a85565b60405180910390fd5b610ab28383611ae4565b505050565b6000600880549050905090565b610ad5610acf611adc565b82611b9d565b610b14576040517f08c379a0000000000000000000000000000000000000000000000000000000008152600401610b0b90613bc5565b60405180910390fd5b610b1f838383611c7b565b505050565b6000610b2f83610e0f565b8210610b70576040517f08c379a0000000000000000000000000000000000000000000000000000000008152600401610b6790613965565b60405180910390fd5b600660008473ffffffffffffffffffffffffffffffffffffffff1673ffffffffffffffffffffffffffffffffffffffff168152602001908152602001600020600083815260200190815260200160002054905092915050565b610bd1611adc565b73ffffffffffffffffffffffffffffffffffffffff16610bef61100c565b73ffffffffffffffffffffffffffffffffffffffff1614610c45576040517f08c379a0000000000000000000000000000000000000000000000000000000008152600401610c3c90613b65565b60405180910390fd5b6000600d60008373ffffffffffffffffffffffffffffffffffffffff1673ffffffffffffffffffffffffffffffffffffffff16815260200190815260200160002060006101000a81548160ff02191690831515021790555050565b60135481565b610cc18383836040518060200160405280600081525061147e565b505050565b6000610cd0610ab7565b8210610d11576040517f08c379a0000000000000000000000000000000000000000000000000000000008152600401610d0890613c05565b60405180910390fd5b60088281548110610d4b577f4e487b7100000000000000000000000000000000000000000000000000000000600052603260045260246000fd5b90600052602060002001549050919050565b6000806002600084815260200190815260200160002060009054906101000a900473ffffffffffffffffffffffffffffffffffffffff169050600073ffffffffffffffffffffffffffffffffffffffff168173ffffffffffffffffffffffffffffffffffffffff161415610e06576040517f08c379a0000000000000000000000000000000000000000000000000000000008152600401610dfd90613ac5565b60405180910390fd5b80915050919050565b60008073ffffffffffffffffffffffffffffffffffffffff168273ffffffffffffffffffffffffffffffffffffffff161415610e80576040517f08c379a0000000000000000000000000000000000000000000000000000000008152600401610e7790613aa5565b60405180910390fd5b600360008373ffffffffffffffffffffffffffffffffffffffff1673ffffffffffffffffffffffffffffffffffffffff168152602001908152602001600020549050919050565b610ecf611adc565b73ffffffffffffffffffffffffffffffffffffffff16610eed61100c565b73ffffffffffffffffffffffffffffffffffffffff1614610f43576040517f08c379a0000000000000000000000000000000000000000000000000000000008152600401610f3a90613b65565b60405180910390fd5b610f4d6000611ee2565b565b610f57611adc565b73ffffffffffffffffffffffffffffffffffffffff16610f7561100c565b73ffffffffffffffffffffffffffffffffffffffff1614610fcb576040517f08c379a0000000000000000000000000000000000000000000000000000000008152600401610fc290613b65565b60405180910390fd5b806013819055507fbef1c2d263cf95f3b6b3ebc968c52bf90f6d34ae51b722638139a8356d3e4257816040516110019190613c25565b60405180910390a150565b6000600a60009054906101000a900473ffffffffffffffffffffffffffffffffffffffff16905090565b60606001805461104590613f9a565b80601f016020809104026020016040519081016040528092919081815260200182805461107190613f9a565b80156110be5780601f10611093576101008083540402835291602001916110be565b820191906000526020600020905b8154815290600101906020018083116110a157829003601f168201915b5050505050905090565b6110d0611adc565b73ffffffffffffffffffffffffffffffffffffffff166110ee61100c565b73ffffffffffffffffffffffffffffffffffffffff1614611144576040517f08c379a000000000000000000000000000000000000000000000000000000000815260040161113b90613b65565b60405180910390fd5b6001600d60008373ffffffffffffffffffffffffffffffffffffffff1673ffffffffffffffffffffffffffffffffffffffff16815260200190815260200160002060006101000a81548160ff02191690831515021790555050565b6111a7611adc565b73ffffffffffffffffffffffffffffffffffffffff166111c561100c565b73ffffffffffffffffffffffffffffffffffffffff161461121b576040517f08c379a000000000000000000000000000000000000000000000000000000000815260040161121290613b65565b60405180910390fd5b601154471015611260576040517f08c379a000000000000000000000000000000000000000000000000000000000815260040161125790613a45565b60405180910390fd5b600060118190555060005b6010805490508110156113f9576000600e6000601084815481106112b8577f4e487b7100000000000000000000000000000000000000000000000000000000600052603260045260246000fd5b9060005260206000200160009054906101000a900473ffffffffffffffffffffffffffffffffffffffff1673ffffffffffffffffffffffffffffffffffffffff1673ffffffffffffffffffffffffffffffffffffffff168152602001908152602001600020549050600081146113e55760108281548110611362577f4e487b7100000000000000000000000000000000000000000000000000000000600052603260045260246000fd5b9060005260206000200160009054906101000a900473ffffffffffffffffffffffffffffffffffffffff1673ffffffffffffffffffffffffffffffffffffffff166108fc826013546113b49190613dea565b9081150290604051600060405180830381858888f193505050501580156113df573d6000803e3d6000fd5b50600090505b5080806113f190613ffd565b91505061126b565b507f13cab1d461b50843e7955d1f78f5df81ad6453693dcfeb44cc51da9c4ee057f360405160405180910390a1565b61143a611433611adc565b8383611fa8565b5050565b600d6020528060005260406000206000915054906101000a900460ff1681565b600f6020528060005260406000206000915054906101000a900460ff1681565b61148f611489611adc565b83611b9d565b6114ce576040517f08c379a00000000000000000000000000000000000000000000000000000000081526004016114c590613bc5565b60405180910390fd5b6114da84848484612115565b50505050565b60606114eb82612171565b9050919050565b6010818154811061150257600080fd5b906000526020600020016000915054906101000a900473ffffffffffffffffffffffffffffffffffffffff1681565b600d60003373ffffffffffffffffffffffffffffffffffffffff1673ffffffffffffffffffffffffffffffffffffffff16815260200190815260200160002060009054906101000a900460ff166115bd576040517f08c379a00000000000000000000000000000000000000000000000000000000081526004016115b490613be5565b60405180910390fd5b600f60008473ffffffffffffffffffffffffffffffffffffffff1673ffffffffffffffffffffffffffffffffffffffff16815260200190815260200160002060009054906101000a900460ff166116ca576001600f60008573ffffffffffffffffffffffffffffffffffffffff1673ffffffffffffffffffffffffffffffffffffffff16815260200190815260200160002060006101000a81548160ff0219169083151502179055506010839080600181540180825580915050600190039060005260206000200160009091909190916101000a81548173ffffffffffffffffffffffffffffffffffffffff021916908373ffffffffffffffffffffffffffffffffffffffff1602179055505b60006116d660126122c3565b90506116e260126122d1565b6116ec84826122e7565b600c60009054906101000a900473ffffffffffffffffffffffffffffffffffffffff1673ffffffffffffffffffffffffffffffffffffffff166340c10f1985856040518363ffffffff1660e01b8152600401611749929190613898565b600060405180830381600087803b15801561176357600080fd5b505af1158015611777573d6000803e3d6000fd5b505050506117858183612305565b6001600e60008673ffffffffffffffffffffffffffffffffffffffff1673ffffffffffffffffffffffffffffffffffffffff16815260200190815260200160002060008282546117d59190613d63565b92505081905550601354601160008282546117f09190613d63565b925050819055507fafe8756db305d883542ec4bfe3721424eb941bba77e39879fd427dae9bd7cfaf8183604051611828929190613c69565b60405180910390a150505050565b6000600560008473ffffffffffffffffffffffffffffffffffffffff1673ffffffffffffffffffffffffffffffffffffffff16815260200190815260200160002060008373ffffffffffffffffffffffffffffffffffffffff1673ffffffffffffffffffffffffffffffffffffffff16815260200190815260200160002060009054906101000a900460ff16905092915050565b600047905090565b6118da611adc565b73ffffffffffffffffffffffffffffffffffffffff166118f861100c565b73ffffffffffffffffffffffffffffffffffffffff161461194e576040517f08c379a000000000000000000000000000000000000000000000000000000000815260040161194590613b65565b60405180910390fd5b600073ffffffffffffffffffffffffffffffffffffffff168173ffffffffffffffffffffffffffffffffffffffff1614156119be576040517f08c379a00000000000000000000000000000000000000000000000000000000081526004016119b5906139a5565b60405180910390fd5b6119c781611ee2565b50565b600c60009054906101000a900473ffffffffffffffffffffffffffffffffffffffff1681565b60115481565b60007f780e9d63000000000000000000000000000000000000000000000000000000007bffffffffffffffffffffffffffffffffffffffffffffffffffffffff1916827bffffffffffffffffffffffffffffffffffffffffffffffffffffffff19161480611a695750611a6882612379565b5b9050919050565b60008073ffffffffffffffffffffffffffffffffffffffff166002600084815260200190815260200160002060009054906101000a900473ffffffffffffffffffffffffffffffffffffffff1673ffffffffffffffffffffffffffffffffffffffff1614159050919050565b600033905090565b816004600083815260200190815260200160002060006101000a81548173ffffffffffffffffffffffffffffffffffffffff021916908373ffffffffffffffffffffffffffffffffffffffff160217905550808273ffffffffffffffffffffffffffffffffffffffff16611b5783610d5d565b73ffffffffffffffffffffffffffffffffffffffff167f8c5be1e5ebec7d5bd14f71427d1e84f3dd0314c0f7b2291e5b200ac8c7c3b92560405160405180910390a45050565b6000611ba882611a70565b611be7576040517f08c379a0000000000000000000000000000000000000000000000000000000008152600401611bde90613a65565b60405180910390fd5b6000611bf283610d5d565b90508073ffffffffffffffffffffffffffffffffffffffff168473ffffffffffffffffffffffffffffffffffffffff161480611c6157508373ffffffffffffffffffffffffffffffffffffffff16611c498461091a565b73ffffffffffffffffffffffffffffffffffffffff16145b80611c725750611c718185611836565b5b91505092915050565b8273ffffffffffffffffffffffffffffffffffffffff16611c9b82610d5d565b73ffffffffffffffffffffffffffffffffffffffff1614611cf1576040517f08c379a0000000000000000000000000000000000000000000000000000000008152600401611ce8906139c5565b60405180910390fd5b600073ffffffffffffffffffffffffffffffffffffffff168273ffffffffffffffffffffffffffffffffffffffff161415611d61576040517f08c379a0000000000000000000000000000000000000000000000000000000008152600401611d5890613a05565b60405180910390fd5b611d6c83838361245b565b611d77600082611ae4565b6001600360008573ffffffffffffffffffffffffffffffffffffffff1673ffffffffffffffffffffffffffffffffffffffff1681526020019081526020016000206000828254611dc79190613e44565b925050819055506001600360008473ffffffffffffffffffffffffffffffffffffffff1673ffffffffffffffffffffffffffffffffffffffff1681526020019081526020016000206000828254611e1e9190613d63565b92505081905550816002600083815260200190815260200160002060006101000a81548173ffffffffffffffffffffffffffffffffffffffff021916908373ffffffffffffffffffffffffffffffffffffffff160217905550808273ffffffffffffffffffffffffffffffffffffffff168473ffffffffffffffffffffffffffffffffffffffff167fddf252ad1be2c89b69c2b068fc378daa952ba7f163c4a11628f55a4df523b3ef60405160405180910390a4611edd83838361246b565b505050565b6000600a60009054906101000a900473ffffffffffffffffffffffffffffffffffffffff16905081600a60006101000a81548173ffffffffffffffffffffffffffffffffffffffff021916908373ffffffffffffffffffffffffffffffffffffffff1602179055508173ffffffffffffffffffffffffffffffffffffffff168173ffffffffffffffffffffffffffffffffffffffff167f8be0079c531659141344cd1fd0a4f28419497f9722a3daafe3b4186f6b6457e060405160405180910390a35050565b8173ffffffffffffffffffffffffffffffffffffffff168373ffffffffffffffffffffffffffffffffffffffff161415612017576040517f08c379a000000000000000000000000000000000000000000000000000000000815260040161200e90613a25565b60405180910390fd5b80600560008573ffffffffffffffffffffffffffffffffffffffff1673ffffffffffffffffffffffffffffffffffffffff16815260200190815260200160002060008473ffffffffffffffffffffffffffffffffffffffff1673ffffffffffffffffffffffffffffffffffffffff16815260200190815260200160002060006101000a81548160ff0219169083151502179055508173ffffffffffffffffffffffffffffffffffffffff168373ffffffffffffffffffffffffffffffffffffffff167f17307eab39ab6107e8899845ad3d59bd9653f200f220920489ca2b5937696c3183604051612108919061390d565b60405180910390a3505050565b612120848484611c7b565b61212c84848484612470565b61216b576040517f08c379a000000000000000000000000000000000000000000000000000000000815260040161216290613985565b60405180910390fd5b50505050565b606061217c82611a70565b6121bb576040517f08c379a00000000000000000000000000000000000000000000000000000000081526004016121b290613b25565b60405180910390fd5b6000600b600084815260200190815260200160002080546121db90613f9a565b80601f016020809104026020016040519081016040528092919081815260200182805461220790613f9a565b80156122545780601f1061222957610100808354040283529160200191612254565b820191906000526020600020905b81548152906001019060200180831161223757829003601f168201915b505050505090506000612265612607565b905060008151141561227b5781925050506122be565b6000825111156122b057808260405160200161229892919061383e565b604051602081830303815290604052925050506122be565b6122b98461261e565b925050505b919050565b600081600001549050919050565b6001816000016000828254019250508190555050565b6123018282604051806020016040528060008152506126c5565b5050565b61230e82611a70565b61234d576040517f08c379a000000000000000000000000000000000000000000000000000000000815260040161234490613ae5565b60405180910390fd5b80600b60008481526020019081526020016000209080519060200190612374929190612fc5565b505050565b60007f80ac58cd000000000000000000000000000000000000000000000000000000007bffffffffffffffffffffffffffffffffffffffffffffffffffffffff1916827bffffffffffffffffffffffffffffffffffffffffffffffffffffffff1916148061244457507f5b5e139f000000000000000000000000000000000000000000000000000000007bffffffffffffffffffffffffffffffffffffffffffffffffffffffff1916827bffffffffffffffffffffffffffffffffffffffffffffffffffffffff1916145b80612454575061245382612720565b5b9050919050565b61246683838361278a565b505050565b505050565b60006124918473ffffffffffffffffffffffffffffffffffffffff1661289e565b156125fa578373ffffffffffffffffffffffffffffffffffffffff1663150b7a026124ba611adc565b8786866040518563ffffffff1660e01b81526004016124dc94939291906138c1565b602060405180830381600087803b1580156124f657600080fd5b505af192505050801561252757506040513d601f19601f8201168201806040525081019061252491906133ed565b60015b6125aa573d8060008114612557576040519150601f19603f3d011682016040523d82523d6000602084013e61255c565b606091505b506000815114156125a2576040517f08c379a000000000000000000000000000000000000000000000000000000000815260040161259990613985565b60405180910390fd5b805181602001fd5b63150b7a0260e01b7bffffffffffffffffffffffffffffffffffffffffffffffffffffffff1916817bffffffffffffffffffffffffffffffffffffffffffffffffffffffff1916149150506125ff565b600190505b949350505050565b606060405180602001604052806000815250905090565b606061262982611a70565b612668576040517f08c379a000000000000000000000000000000000000000000000000000000000815260040161265f90613b85565b60405180910390fd5b6000612672612607565b9050600081511161269257604051806020016040528060008152506126bd565b8061269c846128c1565b6040516020016126ad92919061383e565b6040516020818303038152906040525b915050919050565b6126cf8383612a6e565b6126dc6000848484612470565b61271b576040517f08c379a000000000000000000000000000000000000000000000000000000000815260040161271290613985565b60405180910390fd5b505050565b60007f01ffc9a7000000000000000000000000000000000000000000000000000000007bffffffffffffffffffffffffffffffffffffffffffffffffffffffff1916827bffffffffffffffffffffffffffffffffffffffffffffffffffffffff1916149050919050565b612795838383612c48565b600073ffffffffffffffffffffffffffffffffffffffff168373ffffffffffffffffffffffffffffffffffffffff1614156127d8576127d381612c4d565b612817565b8173ffffffffffffffffffffffffffffffffffffffff168373ffffffffffffffffffffffffffffffffffffffff1614612816576128158382612c96565b5b5b600073ffffffffffffffffffffffffffffffffffffffff168273ffffffffffffffffffffffffffffffffffffffff16141561285a5761285581612e03565b612899565b8273ffffffffffffffffffffffffffffffffffffffff168273ffffffffffffffffffffffffffffffffffffffff1614612898576128978282612f46565b5b5b505050565b6000808273ffffffffffffffffffffffffffffffffffffffff163b119050919050565b60606000821415612909576040518060400160405280600181526020017f30000000000000000000000000000000000000000000000000000000000000008152509050612a69565b600082905060005b6000821461293b57808061292490613ffd565b915050600a826129349190613db9565b9150612911565b60008167ffffffffffffffff81111561297d577f4e487b7100000000000000000000000000000000000000000000000000000000600052604160045260246000fd5b6040519080825280601f01601f1916602001820160405280156129af5781602001600182028036833780820191505090505b5090505b60008514612a62576001826129c89190613e44565b9150600a856129d79190614046565b60306129e39190613d63565b60f81b818381518110612a1f577f4e487b7100000000000000000000000000000000000000000000000000000000600052603260045260246000fd5b60200101907effffffffffffffffffffffffffffffffffffffffffffffffffffffffffffff1916908160001a905350600a85612a5b9190613db9565b94506129b3565b8093505050505b919050565b600073ffffffffffffffffffffffffffffffffffffffff168273ffffffffffffffffffffffffffffffffffffffff161415612ade576040517f08c379a0000000000000000000000000000000000000000000000000000000008152600401612ad590613b05565b60405180910390fd5b612ae781611a70565b15612b27576040517f08c379a0000000000000000000000000000000000000000000000000000000008152600401612b1e906139e5565b60405180910390fd5b612b336000838361245b565b6001600360008473ffffffffffffffffffffffffffffffffffffffff1673ffffffffffffffffffffffffffffffffffffffff1681526020019081526020016000206000828254612b839190613d63565b92505081905550816002600083815260200190815260200160002060006101000a81548173ffffffffffffffffffffffffffffffffffffffff021916908373ffffffffffffffffffffffffffffffffffffffff160217905550808273ffffffffffffffffffffffffffffffffffffffff16600073ffffffffffffffffffffffffffffffffffffffff167fddf252ad1be2c89b69c2b068fc378daa952ba7f163c4a11628f55a4df523b3ef60405160405180910390a4612c446000838361246b565b5050565b505050565b6008805490506009600083815260200190815260200160002081905550600881908060018154018082558091505060019003906000526020600020016000909190919091505550565b60006001612ca384610e0f565b612cad9190613e44565b9050600060076000848152602001908152602001600020549050818114612d92576000600660008673ffffffffffffffffffffffffffffffffffffffff1673ffffffffffffffffffffffffffffffffffffffff168152602001908152602001600020600084815260200190815260200160002054905080600660008773ffffffffffffffffffffffffffffffffffffffff1673ffffffffffffffffffffffffffffffffffffffff168152602001908152602001600020600084815260200190815260200160002081905550816007600083815260200190815260200160002081905550505b6007600084815260200190815260200160002060009055600660008573ffffffffffffffffffffffffffffffffffffffff1673ffffffffffffffffffffffffffffffffffffffff16815260200190815260200160002060008381526020019081526020016000206000905550505050565b60006001600880549050612e179190613e44565b9050600060096000848152602001908152602001600020549050600060088381548110612e6d577f4e487b7100000000000000000000000000000000000000000000000000000000600052603260045260246000fd5b906000526020600020015490508060088381548110612eb5577f4e487b7100000000000000000000000000000000000000000000000000000000600052603260045260246000fd5b906000526020600020018190555081600960008381526020019081526020016000208190555060096000858152602001908152602001600020600090556008805480612f2a577f4e487b7100000000000000000000000000000000000000000000000000000000600052603160045260246000fd5b6001900381819060005260206000200160009055905550505050565b6000612f5183610e0f565b905081600660008573ffffffffffffffffffffffffffffffffffffffff1673ffffffffffffffffffffffffffffffffffffffff168152602001908152602001600020600083815260200190815260200160002081905550806007600084815260200190815260200160002081905550505050565b828054612fd190613f9a565b90600052602060002090601f016020900481019282612ff3576000855561303a565b82601f1061300c57805160ff191683800117855561303a565b8280016001018555821561303a579182015b8281111561303957825182559160200191906001019061301e565b5b509050613047919061304b565b5090565b5b8082111561306457600081600090555060010161304c565b5090565b600061307b61307684613cbe565b613c99565b90508281526020810184848401111561309357600080fd5b61309e848285613f58565b509392505050565b60006130b96130b484613cef565b613c99565b9050828152602081018484840111156130d157600080fd5b6130dc848285613f58565b509392505050565b6000813590506130f38161472a565b92915050565b60008135905061310881614741565b92915050565b60008135905061311d81614758565b92915050565b6000813590506131328161476f565b92915050565b6000815190506131478161476f565b92915050565b600082601f83011261315e57600080fd5b813561316e848260208601613068565b91505092915050565b600082601f83011261318857600080fd5b81356131988482602086016130a6565b91505092915050565b6000813590506131b081614786565b92915050565b6000602082840312156131c857600080fd5b60006131d6848285016130e4565b91505092915050565b6000806000606084860312156131f457600080fd5b6000613202868287016130f9565b9350506020613213868287016131a1565b925050604084013567ffffffffffffffff81111561323057600080fd5b61323c86828701613177565b9150509250925092565b6000806040838503121561325957600080fd5b6000613267858286016130e4565b9250506020613278858286016130e4565b9150509250929050565b60008060006060848603121561329757600080fd5b60006132a5868287016130e4565b93505060206132b6868287016130e4565b92505060406132c7868287016131a1565b9150509250925092565b600080600080608085870312156132e757600080fd5b60006132f5878288016130e4565b9450506020613306878288016130e4565b9350506040613317878288016131a1565b925050606085013567ffffffffffffffff81111561333457600080fd5b6133408782880161314d565b91505092959194509250565b6000806040838503121561335f57600080fd5b600061336d858286016130e4565b925050602061337e8582860161310e565b9150509250929050565b6000806040838503121561339b57600080fd5b60006133a9858286016130e4565b92505060206133ba858286016131a1565b9150509250929050565b6000602082840312156133d657600080fd5b60006133e484828501613123565b91505092915050565b6000602082840312156133ff57600080fd5b600061340d84828501613138565b91505092915050565b60006020828403121561342857600080fd5b6000613436848285016131a1565b91505092915050565b61344881613efe565b82525050565b61345781613e8a565b82525050565b61346681613e78565b82525050565b61347581613e9c565b82525050565b600061348682613d20565b6134908185613d36565b93506134a0818560208601613f67565b6134a981614133565b840191505092915050565b6134bd81613f10565b82525050565b60006134ce82613d2b565b6134d88185613d47565b93506134e8818560208601613f67565b6134f181614133565b840191505092915050565b600061350782613d2b565b6135118185613d58565b9350613521818560208601613f67565b80840191505092915050565b600061353a602b83613d47565b915061354582614144565b604082019050919050565b600061355d603283613d47565b915061356882614193565b604082019050919050565b6000613580602683613d47565b915061358b826141e2565b604082019050919050565b60006135a3602583613d47565b91506135ae82614231565b604082019050919050565b60006135c6601c83613d47565b91506135d182614280565b602082019050919050565b60006135e9602483613d47565b91506135f4826142a9565b604082019050919050565b600061360c601983613d47565b9150613617826142f8565b602082019050919050565b600061362f601483613d47565b915061363a82614321565b602082019050919050565b6000613652602c83613d47565b915061365d8261434a565b604082019050919050565b6000613675603883613d47565b915061368082614399565b604082019050919050565b6000613698602a83613d47565b91506136a3826143e8565b604082019050919050565b60006136bb602983613d47565b91506136c682614437565b604082019050919050565b60006136de602e83613d47565b91506136e982614486565b604082019050919050565b6000613701602083613d47565b915061370c826144d5565b602082019050919050565b6000613724603183613d47565b915061372f826144fe565b604082019050919050565b6000613747602c83613d47565b91506137528261454d565b604082019050919050565b600061376a602083613d47565b91506137758261459c565b602082019050919050565b600061378d602f83613d47565b9150613798826145c5565b604082019050919050565b60006137b0602183613d47565b91506137bb82614614565b604082019050919050565b60006137d3603183613d47565b91506137de82614663565b604082019050919050565b60006137f6601583613d47565b9150613801826146b2565b602082019050919050565b6000613819602c83613d47565b9150613824826146db565b604082019050919050565b61383881613ef4565b82525050565b600061384a82856134fc565b915061385682846134fc565b91508190509392505050565b6000602082019050613877600083018461345d565b92915050565b6000602082019050613892600083018461344e565b92915050565b60006040820190506138ad600083018561343f565b6138ba602083018461382f565b9392505050565b60006080820190506138d6600083018761345d565b6138e3602083018661345d565b6138f0604083018561382f565b8181036060830152613902818461347b565b905095945050505050565b6000602082019050613922600083018461346c565b92915050565b600060208201905061393d60008301846134b4565b92915050565b6000602082019050818103600083015261395d81846134c3565b905092915050565b6000602082019050818103600083015261397e8161352d565b9050919050565b6000602082019050818103600083015261399e81613550565b9050919050565b600060208201905081810360008301526139be81613573565b9050919050565b600060208201905081810360008301526139de81613596565b9050919050565b600060208201905081810360008301526139fe816135b9565b9050919050565b60006020820190508181036000830152613a1e816135dc565b9050919050565b60006020820190508181036000830152613a3e816135ff565b9050919050565b60006020820190508181036000830152613a5e81613622565b9050919050565b60006020820190508181036000830152613a7e81613645565b9050919050565b60006020820190508181036000830152613a9e81613668565b9050919050565b60006020820190508181036000830152613abe8161368b565b9050919050565b60006020820190508181036000830152613ade816136ae565b9050919050565b60006020820190508181036000830152613afe816136d1565b9050919050565b60006020820190508181036000830152613b1e816136f4565b9050919050565b60006020820190508181036000830152613b3e81613717565b9050919050565b60006020820190508181036000830152613b5e8161373a565b9050919050565b60006020820190508181036000830152613b7e8161375d565b9050919050565b60006020820190508181036000830152613b9e81613780565b9050919050565b60006020820190508181036000830152613bbe816137a3565b9050919050565b60006020820190508181036000830152613bde816137c6565b9050919050565b60006020820190508181036000830152613bfe816137e9565b9050919050565b60006020820190508181036000830152613c1e8161380c565b9050919050565b6000602082019050613c3a600083018461382f565b92915050565b6000604082019050613c55600083018561382f565b613c62602083018461345d565b9392505050565b6000604082019050613c7e600083018561382f565b8181036020830152613c9081846134c3565b90509392505050565b6000613ca3613cb4565b9050613caf8282613fcc565b919050565b6000604051905090565b600067ffffffffffffffff821115613cd957613cd8614104565b5b613ce282614133565b9050602081019050919050565b600067ffffffffffffffff821115613d0a57613d09614104565b5b613d1382614133565b9050602081019050919050565b600081519050919050565b600081519050919050565b600082825260208201905092915050565b600082825260208201905092915050565b600081905092915050565b6000613d6e82613ef4565b9150613d7983613ef4565b9250827fffffffffffffffffffffffffffffffffffffffffffffffffffffffffffffffff03821115613dae57613dad614077565b5b828201905092915050565b6000613dc482613ef4565b9150613dcf83613ef4565b925082613ddf57613dde6140a6565b5b828204905092915050565b6000613df582613ef4565b9150613e0083613ef4565b9250817fffffffffffffffffffffffffffffffffffffffffffffffffffffffffffffffff0483118215151615613e3957613e38614077565b5b828202905092915050565b6000613e4f82613ef4565b9150613e5a83613ef4565b925082821015613e6d57613e6c614077565b5b828203905092915050565b6000613e8382613ed4565b9050919050565b6000613e9582613ed4565b9050919050565b60008115159050919050565b60007fffffffff0000000000000000000000000000000000000000000000000000000082169050919050565b600073ffffffffffffffffffffffffffffffffffffffff82169050919050565b6000819050919050565b6000613f0982613f34565b9050919050565b6000613f1b82613f22565b9050919050565b6000613f2d82613ed4565b9050919050565b6000613f3f82613f46565b9050919050565b6000613f5182613ed4565b9050919050565b82818337600083830152505050565b60005b83811015613f85578082015181840152602081019050613f6a565b83811115613f94576000848401525b50505050565b60006002820490506001821680613fb257607f821691505b60208210811415613fc657613fc56140d5565b5b50919050565b613fd582614133565b810181811067ffffffffffffffff82111715613ff457613ff3614104565b5b80604052505050565b600061400882613ef4565b91507fffffffffffffffffffffffffffffffffffffffffffffffffffffffffffffffff82141561403b5761403a614077565b5b600182019050919050565b600061405182613ef4565b915061405c83613ef4565b92508261406c5761406b6140a6565b5b828206905092915050565b7f4e487b7100000000000000000000000000000000000000000000000000000000600052601160045260246000fd5b7f4e487b7100000000000000000000000000000000000000000000000000000000600052601260045260246000fd5b7f4e487b7100000000000000000000000000000000000000000000000000000000600052602260045260246000fd5b7f4e487b7100000000000000000000000000000000000000000000000000000000600052604160045260246000fd5b6000601f19601f8301169050919050565b7f455243373231456e756d657261626c653a206f776e657220696e646578206f7560008201527f74206f6620626f756e6473000000000000000000000000000000000000000000602082015250565b7f4552433732313a207472616e7366657220746f206e6f6e20455243373231526560008201527f63656976657220696d706c656d656e7465720000000000000000000000000000602082015250565b7f4f776e61626c653a206e6577206f776e657220697320746865207a65726f206160008201527f6464726573730000000000000000000000000000000000000000000000000000602082015250565b7f4552433732313a207472616e736665722066726f6d20696e636f72726563742060008201527f6f776e6572000000000000000000000000000000000000000000000000000000602082015250565b7f4552433732313a20746f6b656e20616c7265616479206d696e74656400000000600082015250565b7f4552433732313a207472616e7366657220746f20746865207a65726f2061646460008201527f7265737300000000000000000000000000000000000000000000000000000000602082015250565b7f4552433732313a20617070726f766520746f2063616c6c657200000000000000600082015250565b7f496e73756666696369656e742062616c616e6365000000000000000000000000600082015250565b7f4552433732313a206f70657261746f7220717565727920666f72206e6f6e657860008201527f697374656e7420746f6b656e0000000000000000000000000000000000000000602082015250565b7f4552433732313a20617070726f76652063616c6c6572206973206e6f74206f7760008201527f6e6572206e6f7220617070726f76656420666f7220616c6c0000000000000000602082015250565b7f4552433732313a2062616c616e636520717565727920666f7220746865207a6560008201527f726f206164647265737300000000000000000000000000000000000000000000602082015250565b7f4552433732313a206f776e657220717565727920666f72206e6f6e657869737460008201527f656e7420746f6b656e0000000000000000000000000000000000000000000000602082015250565b7f45524337323155524953746f726167653a2055524920736574206f66206e6f6e60008201527f6578697374656e7420746f6b656e000000000000000000000000000000000000602082015250565b7f4552433732313a206d696e7420746f20746865207a65726f2061646472657373600082015250565b7f45524337323155524953746f726167653a2055524920717565727920666f722060008201527f6e6f6e6578697374656e7420746f6b656e000000000000000000000000000000602082015250565b7f4552433732313a20617070726f76656420717565727920666f72206e6f6e657860008201527f697374656e7420746f6b656e0000000000000000000000000000000000000000602082015250565b7f4f776e61626c653a2063616c6c6572206973206e6f7420746865206f776e6572600082015250565b7f4552433732314d657461646174613a2055524920717565727920666f72206e6f60008201527f6e6578697374656e7420746f6b656e0000000000000000000000000000000000602082015250565b7f4552433732313a20617070726f76616c20746f2063757272656e74206f776e6560008201527f7200000000000000000000000000000000000000000000000000000000000000602082015250565b7f4552433732313a207472616e736665722063616c6c6572206973206e6f74206f60008201527f776e6572206e6f7220617070726f766564000000000000000000000000000000602082015250565b7f4d696e746572206e6f7420617574686f72697a65640000000000000000000000600082015250565b7f455243373231456e756d657261626c653a20676c6f62616c20696e646578206f60008201527f7574206f6620626f756e64730000000000000000000000000000000000000000602082015250565b61473381613e78565b811461473e57600080fd5b50565b61474a81613e8a565b811461475557600080fd5b50565b61476181613e9c565b811461476c57600080fd5b50565b61477881613ea8565b811461478357600080fd5b50565b61478f81613ef4565b811461479a57600080fd5b5056fea26469706673582212208216966e7634b66debb6739a94a264632f872e451a9cecf029b5e47fa7e1074864736f6c63430008010033",
  "immutableReferences": {},
  "source": "// SPDX-License-Identifier: MIT\npragma solidity ^0.8.0;\nimport \"@openzeppelin/contracts/token/ERC721/extensions/ERC721Enumerable.sol\";\nimport \"@openzeppelin/contracts/token/ERC721/extensions/ERC721URIStorage.sol\";\nimport \"@openzeppelin/contracts/access/Ownable.sol\";\nimport \"@openzeppelin/contracts/utils/Counters.sol\";\nimport \"./CaoToken.sol\";\n\ncontract RewardNFT is ERC721Enumerable, Ownable, ERC721URIStorage {\n    using Counters for Counters.Counter;\n\n    CaoToken public governanceToken;\n    mapping(address => bool) public authorizedMinters;\n    mapping(address => uint256) public currentNftByOwner;\n    mapping(address => bool) public allAddresses;\n    address payable[] public allAddressesArray;\n\n    uint256 public requiredEthers = 0;\n    Counters.Counter private _tokenIdCounter;\n    uint256 public etherByReward = 0.0017 ether; // 5\n\n    event EtherByRewardEvent(uint256 newAmount);\n    event RaiseDistributed();\n    event DepositedEthers(uint256 amount, address depositor);\n    event NewReward(uint256 tokenId, string tokenUri);\n\n    constructor(\n        string memory _tokenName,\n        string memory _symbol,\n        CaoToken _caoToken\n    ) ERC721(_tokenName, _symbol) {\n        governanceToken = _caoToken;\n    }\n\n    modifier onlyAuthorizedMinters() {\n        require(authorizedMinters[msg.sender], \"Minter not authorized\");\n        _;\n    }\n\n    function _burn(uint256 tokenId)\n        internal\n        override(ERC721URIStorage, ERC721)\n    {\n        return ERC721URIStorage._burn(tokenId);\n    }\n\n    function tokenURI(uint256 tokenId)\n        public\n        view\n        virtual\n        override(ERC721URIStorage, ERC721)\n        returns (string memory)\n    {\n        return ERC721URIStorage.tokenURI(tokenId);\n    }\n\n    function _beforeTokenTransfer(\n        address from,\n        address to,\n        uint256 tokenId\n    ) internal override(ERC721, ERC721Enumerable) {\n        return ERC721Enumerable._beforeTokenTransfer(from, to, tokenId);\n    }\n\n    function supportsInterface(bytes4 interfaceId) public view override(ERC721, ERC721Enumerable) returns (bool){\n        return ERC721Enumerable.supportsInterface(interfaceId);\n    }\n\n    function addMinter(address _minter) public onlyOwner {\n        authorizedMinters[_minter] = true;\n    }\n\n    function removeMinter(address _minter) public onlyOwner {\n        authorizedMinters[_minter] = false;\n    }\n\n    function updateEtherByReward(uint256 _newAmount) public onlyOwner {\n        etherByReward = _newAmount;\n        emit EtherByRewardEvent(_newAmount);\n    }\n\n    function mint(\n        address payable _receiver,\n        uint256 _tokenReward,\n        string memory _tokenURI\n    ) public onlyAuthorizedMinters {\n        if (!allAddresses[_receiver]) {\n            allAddresses[_receiver] = true;\n            allAddressesArray.push(_receiver);\n        }\n        uint256 tokenId = _tokenIdCounter.current();\n        _tokenIdCounter.increment();\n\n        _safeMint(_receiver, tokenId);\n        governanceToken.mint(_receiver, _tokenReward);\n        _setTokenURI(tokenId, _tokenURI);\n        currentNftByOwner[_receiver] += 1;\n        requiredEthers += etherByReward;\n        emit NewReward(tokenId, _tokenURI);\n    }\n\n    function giveAwayRaise() public onlyOwner {\n        require(\n            address(this).balance >= requiredEthers,\n            \"Insufficient balance\"\n        );\n        requiredEthers = 0;\n        for (uint256 i = 0; i < allAddressesArray.length; i++) {\n            uint256 nftByAddress = currentNftByOwner[allAddressesArray[i]];\n            if (nftByAddress != 0) {\n                allAddressesArray[i].transfer(etherByReward * nftByAddress);\n                nftByAddress = 0;\n            }\n        }\n        emit RaiseDistributed();\n    }\n\n    function getEtherBalance() public view returns (uint256) {\n        return address(this).balance;\n    }\n\n    fallback() external payable {\n        emit DepositedEthers(msg.value, msg.sender);\n    }\n\n    receive() external payable {\n        emit DepositedEthers(msg.value, msg.sender);\n    }\n}\n",
  "sourcePath": "/home/aymeric/Documents/hackathon-dao/dao-project/contracts/RewardNFT.sol",
  "compiler": {
    "name": "solc",
    "version": "0.8.1+commit.df193b15.Emscripten.clang"
  },
  "schemaVersion": "3.4.6",
  "updatedAt": "2022-04-10T07:57:12.896Z",
  "devdoc": {
    "kind": "dev",
    "methods": {
      "approve(address,uint256)": {
        "details": "See {IERC721-approve}."
      },
      "balanceOf(address)": {
        "details": "See {IERC721-balanceOf}."
      },
      "getApproved(uint256)": {
        "details": "See {IERC721-getApproved}."
      },
      "isApprovedForAll(address,address)": {
        "details": "See {IERC721-isApprovedForAll}."
      },
      "name()": {
        "details": "See {IERC721Metadata-name}."
      },
      "owner()": {
        "details": "Returns the address of the current owner."
      },
      "ownerOf(uint256)": {
        "details": "See {IERC721-ownerOf}."
      },
      "renounceOwnership()": {
        "details": "Leaves the contract without owner. It will not be possible to call `onlyOwner` functions anymore. Can only be called by the current owner. NOTE: Renouncing ownership will leave the contract without an owner, thereby removing any functionality that is only available to the owner."
      },
      "safeTransferFrom(address,address,uint256)": {
        "details": "See {IERC721-safeTransferFrom}."
      },
      "safeTransferFrom(address,address,uint256,bytes)": {
        "details": "See {IERC721-safeTransferFrom}."
      },
      "setApprovalForAll(address,bool)": {
        "details": "See {IERC721-setApprovalForAll}."
      },
      "symbol()": {
        "details": "See {IERC721Metadata-symbol}."
      },
      "tokenByIndex(uint256)": {
        "details": "See {IERC721Enumerable-tokenByIndex}."
      },
      "tokenOfOwnerByIndex(address,uint256)": {
        "details": "See {IERC721Enumerable-tokenOfOwnerByIndex}."
      },
      "totalSupply()": {
        "details": "See {IERC721Enumerable-totalSupply}."
      },
      "transferFrom(address,address,uint256)": {
        "details": "See {IERC721-transferFrom}."
      },
      "transferOwnership(address)": {
        "details": "Transfers ownership of the contract to a new account (`newOwner`). Can only be called by the current owner."
      }
    },
    "version": 1
  },
  "userdoc": {
    "kind": "user",
    "methods": {},
    "version": 1
  }
}