{
  "contractName": "TeamNFT",
  "abi": [
    {
      "inputs": [
        {
          "internalType": "string",
          "name": "_tokenName",
          "type": "string"
        },
        {
          "internalType": "string",
          "name": "_symbol",
          "type": "string"
        }
      ],
      "stateMutability": "nonpayable",
      "type": "constructor"
    },
    {
      "anonymous": false,
      "inputs": [
        {
          "indexed": true,
          "internalType": "address",
          "name": "owner",
          "type": "address"
        },
        {
          "indexed": true,
          "internalType": "address",
          "name": "approved",
          "type": "address"
        },
        {
          "indexed": true,
          "internalType": "uint256",
          "name": "tokenId",
          "type": "uint256"
        }
      ],
      "name": "Approval",
      "type": "event"
    },
    {
      "anonymous": false,
      "inputs": [
        {
          "indexed": true,
          "internalType": "address",
          "name": "owner",
          "type": "address"
        },
        {
          "indexed": true,
          "internalType": "address",
          "name": "operator",
          "type": "address"
        },
        {
          "indexed": false,
          "internalType": "bool",
          "name": "approved",
          "type": "bool"
        }
      ],
      "name": "ApprovalForAll",
      "type": "event"
    },
    {
      "anonymous": false,
      "inputs": [
        {
          "indexed": false,
          "internalType": "uint256",
          "name": "tokenId",
          "type": "uint256"
        },
        {
          "indexed": false,
          "internalType": "string",
          "name": "tokenUri",
          "type": "string"
        },
        {
          "indexed": false,
          "internalType": "address",
          "name": "member",
          "type": "address"
        },
        {
          "indexed": false,
          "internalType": "uint256",
          "name": "teamId",
          "type": "uint256"
        }
      ],
      "name": "NewMember",
      "type": "event"
    },
    {
      "anonymous": false,
      "inputs": [
        {
          "indexed": false,
          "internalType": "address",
          "name": "teamLeader",
          "type": "address"
        }
      ],
      "name": "NewTeamLeader",
      "type": "event"
    },
    {
      "anonymous": false,
      "inputs": [
        {
          "indexed": true,
          "internalType": "address",
          "name": "previousOwner",
          "type": "address"
        },
        {
          "indexed": true,
          "internalType": "address",
          "name": "newOwner",
          "type": "address"
        }
      ],
      "name": "OwnershipTransferred",
      "type": "event"
    },
    {
      "anonymous": false,
      "inputs": [
        {
          "indexed": false,
          "internalType": "uint256",
          "name": "teamId",
          "type": "uint256"
        }
      ],
      "name": "TeamCreated",
      "type": "event"
    },
    {
      "anonymous": false,
      "inputs": [
        {
          "indexed": true,
          "internalType": "address",
          "name": "from",
          "type": "address"
        },
        {
          "indexed": true,
          "internalType": "address",
          "name": "to",
          "type": "address"
        },
        {
          "indexed": true,
          "internalType": "uint256",
          "name": "tokenId",
          "type": "uint256"
        }
      ],
      "name": "Transfer",
      "type": "event"
    },
    {
      "inputs": [
        {
          "internalType": "address",
          "name": "",
          "type": "address"
        }
      ],
      "name": "addressInATeam",
      "outputs": [
        {
          "internalType": "bool",
          "name": "",
          "type": "bool"
        }
      ],
      "stateMutability": "view",
      "type": "function",
      "constant": true
    },
    {
      "inputs": [
        {
          "internalType": "address",
          "name": "to",
          "type": "address"
        },
        {
          "internalType": "uint256",
          "name": "tokenId",
          "type": "uint256"
        }
      ],
      "name": "approve",
      "outputs": [],
      "stateMutability": "nonpayable",
      "type": "function"
    },
    {
      "inputs": [
        {
          "internalType": "address",
          "name": "owner",
          "type": "address"
        }
      ],
      "name": "balanceOf",
      "outputs": [
        {
          "internalType": "uint256",
          "name": "",
          "type": "uint256"
        }
      ],
      "stateMutability": "view",
      "type": "function",
      "constant": true
    },
    {
      "inputs": [
        {
          "internalType": "uint256",
          "name": "tokenId",
          "type": "uint256"
        }
      ],
      "name": "getApproved",
      "outputs": [
        {
          "internalType": "address",
          "name": "",
          "type": "address"
        }
      ],
      "stateMutability": "view",
      "type": "function",
      "constant": true
    },
    {
      "inputs": [
        {
          "internalType": "address",
          "name": "owner",
          "type": "address"
        },
        {
          "internalType": "address",
          "name": "operator",
          "type": "address"
        }
      ],
      "name": "isApprovedForAll",
      "outputs": [
        {
          "internalType": "bool",
          "name": "",
          "type": "bool"
        }
      ],
      "stateMutability": "view",
      "type": "function",
      "constant": true
    },
    {
      "inputs": [],
      "name": "name",
      "outputs": [
        {
          "internalType": "string",
          "name": "",
          "type": "string"
        }
      ],
      "stateMutability": "view",
      "type": "function",
      "constant": true
    },
    {
      "inputs": [],
      "name": "owner",
      "outputs": [
        {
          "internalType": "address",
          "name": "",
          "type": "address"
        }
      ],
      "stateMutability": "view",
      "type": "function",
      "constant": true
    },
    {
      "inputs": [
        {
          "internalType": "uint256",
          "name": "tokenId",
          "type": "uint256"
        }
      ],
      "name": "ownerOf",
      "outputs": [
        {
          "internalType": "address",
          "name": "",
          "type": "address"
        }
      ],
      "stateMutability": "view",
      "type": "function",
      "constant": true
    },
    {
      "inputs": [],
      "name": "renounceOwnership",
      "outputs": [],
      "stateMutability": "nonpayable",
      "type": "function"
    },
    {
      "inputs": [
        {
          "internalType": "address",
          "name": "from",
          "type": "address"
        },
        {
          "internalType": "address",
          "name": "to",
          "type": "address"
        },
        {
          "internalType": "uint256",
          "name": "tokenId",
          "type": "uint256"
        }
      ],
      "name": "safeTransferFrom",
      "outputs": [],
      "stateMutability": "nonpayable",
      "type": "function"
    },
    {
      "inputs": [
        {
          "internalType": "address",
          "name": "from",
          "type": "address"
        },
        {
          "internalType": "address",
          "name": "to",
          "type": "address"
        },
        {
          "internalType": "uint256",
          "name": "tokenId",
          "type": "uint256"
        },
        {
          "internalType": "bytes",
          "name": "_data",
          "type": "bytes"
        }
      ],
      "name": "safeTransferFrom",
      "outputs": [],
      "stateMutability": "nonpayable",
      "type": "function"
    },
    {
      "inputs": [
        {
          "internalType": "address",
          "name": "operator",
          "type": "address"
        },
        {
          "internalType": "bool",
          "name": "approved",
          "type": "bool"
        }
      ],
      "name": "setApprovalForAll",
      "outputs": [],
      "stateMutability": "nonpayable",
      "type": "function"
    },
    {
      "inputs": [],
      "name": "symbol",
      "outputs": [
        {
          "internalType": "string",
          "name": "",
          "type": "string"
        }
      ],
      "stateMutability": "view",
      "type": "function",
      "constant": true
    },
    {
      "inputs": [
        {
          "internalType": "uint256",
          "name": "",
          "type": "uint256"
        }
      ],
      "name": "teamById",
      "outputs": [
        {
          "internalType": "uint256",
          "name": "teamId",
          "type": "uint256"
        },
        {
          "internalType": "string",
          "name": "teamName",
          "type": "string"
        },
        {
          "internalType": "uint256",
          "name": "creationDate",
          "type": "uint256"
        },
        {
          "internalType": "uint256",
          "name": "totalMembers",
          "type": "uint256"
        },
        {
          "internalType": "address",
          "name": "teamLeader",
          "type": "address"
        }
      ],
      "stateMutability": "view",
      "type": "function",
      "constant": true
    },
    {
      "inputs": [
        {
          "internalType": "uint256",
          "name": "",
          "type": "uint256"
        }
      ],
      "name": "teamByTokenId",
      "outputs": [
        {
          "internalType": "uint256",
          "name": "",
          "type": "uint256"
        }
      ],
      "stateMutability": "view",
      "type": "function",
      "constant": true
    },
    {
      "inputs": [
        {
          "internalType": "uint256",
          "name": "index",
          "type": "uint256"
        }
      ],
      "name": "tokenByIndex",
      "outputs": [
        {
          "internalType": "uint256",
          "name": "",
          "type": "uint256"
        }
      ],
      "stateMutability": "view",
      "type": "function",
      "constant": true
    },
    {
      "inputs": [
        {
          "internalType": "address",
          "name": "owner",
          "type": "address"
        },
        {
          "internalType": "uint256",
          "name": "index",
          "type": "uint256"
        }
      ],
      "name": "tokenOfOwnerByIndex",
      "outputs": [
        {
          "internalType": "uint256",
          "name": "",
          "type": "uint256"
        }
      ],
      "stateMutability": "view",
      "type": "function",
      "constant": true
    },
    {
      "inputs": [],
      "name": "totalSupply",
      "outputs": [
        {
          "internalType": "uint256",
          "name": "",
          "type": "uint256"
        }
      ],
      "stateMutability": "view",
      "type": "function",
      "constant": true
    },
    {
      "inputs": [
        {
          "internalType": "address",
          "name": "from",
          "type": "address"
        },
        {
          "internalType": "address",
          "name": "to",
          "type": "address"
        },
        {
          "internalType": "uint256",
          "name": "tokenId",
          "type": "uint256"
        }
      ],
      "name": "transferFrom",
      "outputs": [],
      "stateMutability": "nonpayable",
      "type": "function"
    },
    {
      "inputs": [
        {
          "internalType": "address",
          "name": "newOwner",
          "type": "address"
        }
      ],
      "name": "transferOwnership",
      "outputs": [],
      "stateMutability": "nonpayable",
      "type": "function"
    },
    {
      "inputs": [
        {
          "internalType": "uint256",
          "name": "tokenId",
          "type": "uint256"
        }
      ],
      "name": "tokenURI",
      "outputs": [
        {
          "internalType": "string",
          "name": "",
          "type": "string"
        }
      ],
      "stateMutability": "view",
      "type": "function",
      "constant": true
    },
    {
      "inputs": [
        {
          "internalType": "bytes4",
          "name": "interfaceId",
          "type": "bytes4"
        }
      ],
      "name": "supportsInterface",
      "outputs": [
        {
          "internalType": "bool",
          "name": "",
          "type": "bool"
        }
      ],
      "stateMutability": "view",
      "type": "function",
      "constant": true
    },
    {
      "inputs": [
        {
          "internalType": "address",
          "name": "_receiver",
          "type": "address"
        },
        {
          "internalType": "uint256",
          "name": "_teamId",
          "type": "uint256"
        },
        {
          "internalType": "string",
          "name": "_tokenURI",
          "type": "string"
        }
      ],
      "name": "mint",
      "outputs": [],
      "stateMutability": "nonpayable",
      "type": "function"
    },
    {
      "inputs": [
        {
          "internalType": "uint256",
          "name": "_creationDate",
          "type": "uint256"
        },
        {
          "internalType": "address",
          "name": "_teamLeader",
          "type": "address"
        },
        {
          "internalType": "string",
          "name": "_teamName",
          "type": "string"
        },
        {
          "internalType": "string",
          "name": "_tokenURILeader",
          "type": "string"
        }
      ],
      "name": "createTeam",
      "outputs": [],
      "stateMutability": "nonpayable",
      "type": "function"
    },
    {
      "inputs": [
        {
          "internalType": "address",
          "name": "_memberAddress",
          "type": "address"
        },
        {
          "internalType": "uint256",
          "name": "_teamId",
          "type": "uint256"
        }
      ],
      "name": "burn",
      "outputs": [
        {
          "internalType": "bool",
          "name": "",
          "type": "bool"
        }
      ],
      "stateMutability": "nonpayable",
      "type": "function"
    },
    {
      "inputs": [],
      "name": "totalTeam",
      "outputs": [
        {
          "internalType": "uint256",
          "name": "",
          "type": "uint256"
        }
      ],
      "stateMutability": "view",
      "type": "function",
      "constant": true
    }
  ],
  "bytecode": "0x60806040523480156200001157600080fd5b506040516200486238038062004862833981810160405281019062000037919062000285565b818181600090805190602001906200005192919062000163565b5080600190805190602001906200006a92919062000163565b5050506200008d620000816200009560201b60201c565b6200009d60201b60201c565b505062000468565b600033905090565b6000600a60009054906101000a900473ffffffffffffffffffffffffffffffffffffffff16905081600a60006101000a81548173ffffffffffffffffffffffffffffffffffffffff021916908373ffffffffffffffffffffffffffffffffffffffff1602179055508173ffffffffffffffffffffffffffffffffffffffff168173ffffffffffffffffffffffffffffffffffffffff167f8be0079c531659141344cd1fd0a4f28419497f9722a3daafe3b4186f6b6457e060405160405180910390a35050565b82805462000171906200038d565b90600052602060002090601f016020900481019282620001955760008555620001e1565b82601f10620001b057805160ff1916838001178555620001e1565b82800160010185558215620001e1579182015b82811115620001e0578251825591602001919060010190620001c3565b5b509050620001f09190620001f4565b5090565b5b808211156200020f576000816000905550600101620001f5565b5090565b60006200022a620002248462000321565b620002f8565b9050828152602081018484840111156200024357600080fd5b6200025084828562000357565b509392505050565b600082601f8301126200026a57600080fd5b81516200027c84826020860162000213565b91505092915050565b600080604083850312156200029957600080fd5b600083015167ffffffffffffffff811115620002b457600080fd5b620002c28582860162000258565b925050602083015167ffffffffffffffff811115620002e057600080fd5b620002ee8582860162000258565b9150509250929050565b60006200030462000317565b9050620003128282620003c3565b919050565b6000604051905090565b600067ffffffffffffffff8211156200033f576200033e62000428565b5b6200034a8262000457565b9050602081019050919050565b60005b83811015620003775780820151818401526020810190506200035a565b8381111562000387576000848401525b50505050565b60006002820490506001821680620003a657607f821691505b60208210811415620003bd57620003bc620003f9565b5b50919050565b620003ce8262000457565b810181811067ffffffffffffffff82111715620003f057620003ef62000428565b5b80604052505050565b7f4e487b7100000000000000000000000000000000000000000000000000000000600052602260045260246000fd5b7f4e487b7100000000000000000000000000000000000000000000000000000000600052604160045260246000fd5b6000601f19601f8301169050919050565b6143ea80620004786000396000f3fe608060405234801561001057600080fd5b506004361061018e5760003560e01c8063715018a6116100de578063b88d4fde11610097578063cd45356b11610071578063cd45356b146104d3578063d3fc9864146104ef578063e985e9c51461050b578063f2fde38b1461053b5761018e565b8063b88d4fde14610453578063c36d046a1461046f578063c87b56dd146104a35761018e565b8063715018a6146103915780638da5cb5b1461039b57806395d89b41146103b95780639dc29fac146103d7578063a22cb46514610407578063a40b65d1146104235761018e565b80632f745c591161014b5780636352211e116101255780636352211e146102e35780636f3814c514610313578063704abdfa1461034357806370a08231146103615761018e565b80632f745c591461026757806342842e0e146102975780634f6ccce7146102b35761018e565b806301ffc9a71461019357806306fdde03146101c3578063081812fc146101e1578063095ea7b31461021157806318160ddd1461022d57806323b872dd1461024b575b600080fd5b6101ad60048036038101906101a89190613064565b610557565b6040516101ba91906135cf565b60405180910390f35b6101cb610569565b6040516101d891906135ea565b60405180910390f35b6101fb60048036038101906101f691906130b6565b6105fb565b6040516102089190613568565b60405180910390f35b61022b60048036038101906102269190612fc1565b610680565b005b610235610798565b60405161024291906138cc565b60405180910390f35b61026560048036038101906102609190612ebb565b6107a5565b005b610281600480360381019061027c9190612fc1565b610805565b60405161028e91906138cc565b60405180910390f35b6102b160048036038101906102ac9190612ebb565b6108aa565b005b6102cd60048036038101906102c891906130b6565b6108ca565b6040516102da91906138cc565b60405180910390f35b6102fd60048036038101906102f891906130b6565b610961565b60405161030a9190613568565b60405180910390f35b61032d600480360381019061032891906130b6565b610a13565b60405161033a91906138cc565b60405180910390f35b61034b610a2b565b60405161035891906138cc565b60405180910390f35b61037b60048036038101906103769190612e56565b610a3c565b60405161038891906138cc565b60405180910390f35b610399610af4565b005b6103a3610b7c565b6040516103b09190613568565b60405180910390f35b6103c1610ba6565b6040516103ce91906135ea565b60405180910390f35b6103f160048036038101906103ec9190612fc1565b610c38565b6040516103fe91906135cf565b60405180910390f35b610421600480360381019061041c9190612f85565b610d55565b005b61043d60048036038101906104389190612e56565b610d6b565b60405161044a91906135cf565b60405180910390f35b61046d60048036038101906104689190612f0a565b610d8b565b005b610489600480360381019061048491906130b6565b610ded565b60405161049a959493929190613933565b60405180910390f35b6104bd60048036038101906104b891906130b6565b610ecb565b6040516104ca91906135ea565b60405180910390f35b6104ed60048036038101906104e891906130df565b610edd565b005b61050960048036038101906105049190612ffd565b611159565b005b61052560048036038101906105209190612e7f565b61129c565b60405161053291906135cf565b60405180910390f35b61055560048036038101906105509190612e56565b611330565b005b600061056282611428565b9050919050565b60606000805461057890613bc8565b80601f01602080910402602001604051908101604052809291908181526020018280546105a490613bc8565b80156105f15780601f106105c6576101008083540402835291602001916105f1565b820191906000526020600020905b8154815290600101906020018083116105d457829003601f168201915b5050505050905090565b6000610606826114a2565b610645576040517f08c379a000000000000000000000000000000000000000000000000000000000815260040161063c906137ec565b60405180910390fd5b6004600083815260200190815260200160002060009054906101000a900473ffffffffffffffffffffffffffffffffffffffff169050919050565b600061068b82610961565b90508073ffffffffffffffffffffffffffffffffffffffff168373ffffffffffffffffffffffffffffffffffffffff1614156106fc576040517f08c379a00000000000000000000000000000000000000000000000000000000081526004016106f39061384c565b60405180910390fd5b8073ffffffffffffffffffffffffffffffffffffffff1661071b61150e565b73ffffffffffffffffffffffffffffffffffffffff16148061074a57506107498161074461150e565b61129c565b5b610789576040517f08c379a00000000000000000000000000000000000000000000000000000000081526004016107809061370c565b60405180910390fd5b6107938383611516565b505050565b6000600880549050905090565b6107b66107b061150e565b826115cf565b6107f5576040517f08c379a00000000000000000000000000000000000000000000000000000000081526004016107ec9061386c565b60405180910390fd5b6108008383836116ad565b505050565b600061081083610a3c565b8210610851576040517f08c379a00000000000000000000000000000000000000000000000000000000081526004016108489061360c565b60405180910390fd5b600660008473ffffffffffffffffffffffffffffffffffffffff1673ffffffffffffffffffffffffffffffffffffffff168152602001908152602001600020600083815260200190815260200160002054905092915050565b6108c583838360405180602001604052806000815250610d8b565b505050565b60006108d4610798565b8210610915576040517f08c379a000000000000000000000000000000000000000000000000000000000815260040161090c9061388c565b60405180910390fd5b6008828154811061094f577f4e487b7100000000000000000000000000000000000000000000000000000000600052603260045260246000fd5b90600052602060002001549050919050565b6000806002600084815260200190815260200160002060009054906101000a900473ffffffffffffffffffffffffffffffffffffffff169050600073ffffffffffffffffffffffffffffffffffffffff168173ffffffffffffffffffffffffffffffffffffffff161415610a0a576040517f08c379a0000000000000000000000000000000000000000000000000000000008152600401610a019061376c565b60405180910390fd5b80915050919050565b600e6020528060005260406000206000915090505481565b6000610a376010611914565b905090565b60008073ffffffffffffffffffffffffffffffffffffffff168273ffffffffffffffffffffffffffffffffffffffff161415610aad576040517f08c379a0000000000000000000000000000000000000000000000000000000008152600401610aa49061374c565b60405180910390fd5b600360008373ffffffffffffffffffffffffffffffffffffffff1673ffffffffffffffffffffffffffffffffffffffff168152602001908152602001600020549050919050565b610afc61150e565b73ffffffffffffffffffffffffffffffffffffffff16610b1a610b7c565b73ffffffffffffffffffffffffffffffffffffffff1614610b70576040517f08c379a0000000000000000000000000000000000000000000000000000000008152600401610b679061380c565b60405180910390fd5b610b7a6000611922565b565b6000600a60009054906101000a900473ffffffffffffffffffffffffffffffffffffffff16905090565b606060018054610bb590613bc8565b80601f0160208091040260200160405190810160405280929190818152602001828054610be190613bc8565b8015610c2e5780601f10610c0357610100808354040283529160200191610c2e565b820191906000526020600020905b815481529060010190602001808311610c1157829003601f168201915b5050505050905090565b6000813373ffffffffffffffffffffffffffffffffffffffff16600c600083815260200190815260200160002060040160009054906101000a900473ffffffffffffffffffffffffffffffffffffffff1673ffffffffffffffffffffffffffffffffffffffff1614610cdf576040517f08c379a0000000000000000000000000000000000000000000000000000000008152600401610cd69061372c565b60405180910390fd5b6000600d60008673ffffffffffffffffffffffffffffffffffffffff1673ffffffffffffffffffffffffffffffffffffffff16815260200190815260200160002060006101000a81548160ff021916908315150217905550610d4a610d45856000610805565b6119e8565b600191505092915050565b610d67610d6061150e565b83836119f4565b5050565b600d6020528060005260406000206000915054906101000a900460ff1681565b610d9c610d9661150e565b836115cf565b610ddb576040517f08c379a0000000000000000000000000000000000000000000000000000000008152600401610dd29061386c565b60405180910390fd5b610de784848484611b61565b50505050565b600c602052806000526040600020600091509050806000015490806001018054610e1690613bc8565b80601f0160208091040260200160405190810160405280929190818152602001828054610e4290613bc8565b8015610e8f5780601f10610e6457610100808354040283529160200191610e8f565b820191906000526020600020905b815481529060010190602001808311610e7257829003601f168201915b5050505050908060020154908060030154908060040160009054906101000a900473ffffffffffffffffffffffffffffffffffffffff16905085565b6060610ed682611bbd565b9050919050565b610ee561150e565b73ffffffffffffffffffffffffffffffffffffffff16610f03610b7c565b73ffffffffffffffffffffffffffffffffffffffff1614610f59576040517f08c379a0000000000000000000000000000000000000000000000000000000008152600401610f509061380c565b60405180910390fd5b600d60008473ffffffffffffffffffffffffffffffffffffffff1673ffffffffffffffffffffffffffffffffffffffff16815260200190815260200160002060009054906101000a900460ff1615610fe6576040517f08c379a0000000000000000000000000000000000000000000000000000000008152600401610fdd906138ac565b60405180910390fd5b610ff06010611d0f565b6000610ffc6010611914565b90506000600c60008381526020019081526020016000209050858160020181905550818160000181905550848160040160006101000a81548173ffffffffffffffffffffffffffffffffffffffff021916908373ffffffffffffffffffffffffffffffffffffffff16021790555083816001019080519060200190611082929190612c3a565b5060008160030181905550600d60008673ffffffffffffffffffffffffffffffffffffffff1673ffffffffffffffffffffffffffffffffffffffff16815260200190815260200160002060009054906101000a9050506110e3858484611d25565b7f015c069c0e6438bd2d98e0c7b6526d4f7596120b3a6ac20fd43f2aa00450b8138260405161111291906138cc565b60405180910390a17f235aa16e23952c4e47d1e525a9d6aa7689cbe863a6eec76605ca20d909faac6b856040516111499190613568565b60405180910390a1505050505050565b813373ffffffffffffffffffffffffffffffffffffffff16600c600083815260200190815260200160002060040160009054906101000a900473ffffffffffffffffffffffffffffffffffffffff1673ffffffffffffffffffffffffffffffffffffffff16146111fe576040517f08c379a00000000000000000000000000000000000000000000000000000000081526004016111f59061372c565b60405180910390fd5b600d60008573ffffffffffffffffffffffffffffffffffffffff1673ffffffffffffffffffffffffffffffffffffffff16815260200190815260200160002060009054906101000a900460ff161561128b576040517f08c379a0000000000000000000000000000000000000000000000000000000008152600401611282906138ac565b60405180910390fd5b611296848385611d25565b50505050565b6000600560008473ffffffffffffffffffffffffffffffffffffffff1673ffffffffffffffffffffffffffffffffffffffff16815260200190815260200160002060008373ffffffffffffffffffffffffffffffffffffffff1673ffffffffffffffffffffffffffffffffffffffff16815260200190815260200160002060009054906101000a900460ff16905092915050565b61133861150e565b73ffffffffffffffffffffffffffffffffffffffff16611356610b7c565b73ffffffffffffffffffffffffffffffffffffffff16146113ac576040517f08c379a00000000000000000000000000000000000000000000000000000000081526004016113a39061380c565b60405180910390fd5b600073ffffffffffffffffffffffffffffffffffffffff168173ffffffffffffffffffffffffffffffffffffffff16141561141c576040517f08c379a00000000000000000000000000000000000000000000000000000000081526004016114139061364c565b60405180910390fd5b61142581611922565b50565b60007f780e9d63000000000000000000000000000000000000000000000000000000007bffffffffffffffffffffffffffffffffffffffffffffffffffffffff1916827bffffffffffffffffffffffffffffffffffffffffffffffffffffffff1916148061149b575061149a82611dec565b5b9050919050565b60008073ffffffffffffffffffffffffffffffffffffffff166002600084815260200190815260200160002060009054906101000a900473ffffffffffffffffffffffffffffffffffffffff1673ffffffffffffffffffffffffffffffffffffffff1614159050919050565b600033905090565b816004600083815260200190815260200160002060006101000a81548173ffffffffffffffffffffffffffffffffffffffff021916908373ffffffffffffffffffffffffffffffffffffffff160217905550808273ffffffffffffffffffffffffffffffffffffffff1661158983610961565b73ffffffffffffffffffffffffffffffffffffffff167f8c5be1e5ebec7d5bd14f71427d1e84f3dd0314c0f7b2291e5b200ac8c7c3b92560405160405180910390a45050565b60006115da826114a2565b611619576040517f08c379a0000000000000000000000000000000000000000000000000000000008152600401611610906136ec565b60405180910390fd5b600061162483610961565b90508073ffffffffffffffffffffffffffffffffffffffff168473ffffffffffffffffffffffffffffffffffffffff16148061169357508373ffffffffffffffffffffffffffffffffffffffff1661167b846105fb565b73ffffffffffffffffffffffffffffffffffffffff16145b806116a457506116a3818561129c565b5b91505092915050565b8273ffffffffffffffffffffffffffffffffffffffff166116cd82610961565b73ffffffffffffffffffffffffffffffffffffffff1614611723576040517f08c379a000000000000000000000000000000000000000000000000000000000815260040161171a9061366c565b60405180910390fd5b600073ffffffffffffffffffffffffffffffffffffffff168273ffffffffffffffffffffffffffffffffffffffff161415611793576040517f08c379a000000000000000000000000000000000000000000000000000000000815260040161178a906136ac565b60405180910390fd5b61179e838383611ece565b6117a9600082611516565b6001600360008573ffffffffffffffffffffffffffffffffffffffff1673ffffffffffffffffffffffffffffffffffffffff16815260200190815260200160002060008282546117f99190613ade565b925050819055506001600360008473ffffffffffffffffffffffffffffffffffffffff1673ffffffffffffffffffffffffffffffffffffffff16815260200190815260200160002060008282546118509190613a57565b92505081905550816002600083815260200190815260200160002060006101000a81548173ffffffffffffffffffffffffffffffffffffffff021916908373ffffffffffffffffffffffffffffffffffffffff160217905550808273ffffffffffffffffffffffffffffffffffffffff168473ffffffffffffffffffffffffffffffffffffffff167fddf252ad1be2c89b69c2b068fc378daa952ba7f163c4a11628f55a4df523b3ef60405160405180910390a461190f838383611ede565b505050565b600081600001549050919050565b6000600a60009054906101000a900473ffffffffffffffffffffffffffffffffffffffff16905081600a60006101000a81548173ffffffffffffffffffffffffffffffffffffffff021916908373ffffffffffffffffffffffffffffffffffffffff1602179055508173ffffffffffffffffffffffffffffffffffffffff168173ffffffffffffffffffffffffffffffffffffffff167f8be0079c531659141344cd1fd0a4f28419497f9722a3daafe3b4186f6b6457e060405160405180910390a35050565b6119f181611ee3565b50565b8173ffffffffffffffffffffffffffffffffffffffff168373ffffffffffffffffffffffffffffffffffffffff161415611a63576040517f08c379a0000000000000000000000000000000000000000000000000000000008152600401611a5a906136cc565b60405180910390fd5b80600560008573ffffffffffffffffffffffffffffffffffffffff1673ffffffffffffffffffffffffffffffffffffffff16815260200190815260200160002060008473ffffffffffffffffffffffffffffffffffffffff1673ffffffffffffffffffffffffffffffffffffffff16815260200190815260200160002060006101000a81548160ff0219169083151502179055508173ffffffffffffffffffffffffffffffffffffffff168373ffffffffffffffffffffffffffffffffffffffff167f17307eab39ab6107e8899845ad3d59bd9653f200f220920489ca2b5937696c3183604051611b5491906135cf565b60405180910390a3505050565b611b6c8484846116ad565b611b7884848484611f36565b611bb7576040517f08c379a0000000000000000000000000000000000000000000000000000000008152600401611bae9061362c565b60405180910390fd5b50505050565b6060611bc8826114a2565b611c07576040517f08c379a0000000000000000000000000000000000000000000000000000000008152600401611bfe906137cc565b60405180910390fd5b6000600b60008481526020019081526020016000208054611c2790613bc8565b80601f0160208091040260200160405190810160405280929190818152602001828054611c5390613bc8565b8015611ca05780601f10611c7557610100808354040283529160200191611ca0565b820191906000526020600020905b815481529060010190602001808311611c8357829003601f168201915b505050505090506000611cb16120cd565b9050600081511415611cc7578192505050611d0a565b600082511115611cfc578082604051602001611ce4929190613544565b60405160208183030381529060405292505050611d0a565b611d05846120e4565b925050505b919050565b6001816000016000828254019250508190555050565b6000611d31600f611914565b9050611d3d600f611d0f565b611d47848261218b565b611d5181846121a9565b6001600d60008673ffffffffffffffffffffffffffffffffffffffff1673ffffffffffffffffffffffffffffffffffffffff16815260200190815260200160002060006101000a81548160ff0219169083151502179055507fdc4c42bc354eb0053b6544c71c9423dcdea1bd1dfa102a0d8d419bacdb9742d381848685604051611dde94939291906138e7565b60405180910390a150505050565b60007f80ac58cd000000000000000000000000000000000000000000000000000000007bffffffffffffffffffffffffffffffffffffffffffffffffffffffff1916827bffffffffffffffffffffffffffffffffffffffffffffffffffffffff19161480611eb757507f5b5e139f000000000000000000000000000000000000000000000000000000007bffffffffffffffffffffffffffffffffffffffffffffffffffffffff1916827bffffffffffffffffffffffffffffffffffffffffffffffffffffffff1916145b80611ec75750611ec68261221d565b5b9050919050565b611ed9838383612287565b505050565b505050565b611eec8161239b565b6000600b60008381526020019081526020016000208054611f0c90613bc8565b905014611f3357600b60008281526020019081526020016000206000611f329190612cc0565b5b50565b6000611f578473ffffffffffffffffffffffffffffffffffffffff166124b8565b156120c0578373ffffffffffffffffffffffffffffffffffffffff1663150b7a02611f8061150e565b8786866040518563ffffffff1660e01b8152600401611fa29493929190613583565b602060405180830381600087803b158015611fbc57600080fd5b505af1925050508015611fed57506040513d601f19601f82011682018060405250810190611fea919061308d565b60015b612070573d806000811461201d576040519150601f19603f3d011682016040523d82523d6000602084013e612022565b606091505b50600081511415612068576040517f08c379a000000000000000000000000000000000000000000000000000000000815260040161205f9061362c565b60405180910390fd5b805181602001fd5b63150b7a0260e01b7bffffffffffffffffffffffffffffffffffffffffffffffffffffffff1916817bffffffffffffffffffffffffffffffffffffffffffffffffffffffff1916149150506120c5565b600190505b949350505050565b606060405180602001604052806000815250905090565b60606120ef826114a2565b61212e576040517f08c379a00000000000000000000000000000000000000000000000000000000081526004016121259061382c565b60405180910390fd5b60006121386120cd565b905060008151116121585760405180602001604052806000815250612183565b80612162846124db565b604051602001612173929190613544565b6040516020818303038152906040525b915050919050565b6121a5828260405180602001604052806000815250612688565b5050565b6121b2826114a2565b6121f1576040517f08c379a00000000000000000000000000000000000000000000000000000000081526004016121e89061378c565b60405180910390fd5b80600b60008481526020019081526020016000209080519060200190612218929190612c3a565b505050565b60007f01ffc9a7000000000000000000000000000000000000000000000000000000007bffffffffffffffffffffffffffffffffffffffffffffffffffffffff1916827bffffffffffffffffffffffffffffffffffffffffffffffffffffffff1916149050919050565b6122928383836126e3565b600073ffffffffffffffffffffffffffffffffffffffff168373ffffffffffffffffffffffffffffffffffffffff1614156122d5576122d0816126e8565b612314565b8173ffffffffffffffffffffffffffffffffffffffff168373ffffffffffffffffffffffffffffffffffffffff1614612313576123128382612731565b5b5b600073ffffffffffffffffffffffffffffffffffffffff168273ffffffffffffffffffffffffffffffffffffffff161415612357576123528161289e565b612396565b8273ffffffffffffffffffffffffffffffffffffffff168273ffffffffffffffffffffffffffffffffffffffff16146123955761239482826129e1565b5b5b505050565b60006123a682610961565b90506123b481600084611ece565b6123bf600083611516565b6001600360008373ffffffffffffffffffffffffffffffffffffffff1673ffffffffffffffffffffffffffffffffffffffff168152602001908152602001600020600082825461240f9190613ade565b925050819055506002600083815260200190815260200160002060006101000a81549073ffffffffffffffffffffffffffffffffffffffff021916905581600073ffffffffffffffffffffffffffffffffffffffff168273ffffffffffffffffffffffffffffffffffffffff167fddf252ad1be2c89b69c2b068fc378daa952ba7f163c4a11628f55a4df523b3ef60405160405180910390a46124b481600084611ede565b5050565b6000808273ffffffffffffffffffffffffffffffffffffffff163b119050919050565b60606000821415612523576040518060400160405280600181526020017f30000000000000000000000000000000000000000000000000000000000000008152509050612683565b600082905060005b6000821461255557808061253e90613c2b565b915050600a8261254e9190613aad565b915061252b565b60008167ffffffffffffffff811115612597577f4e487b7100000000000000000000000000000000000000000000000000000000600052604160045260246000fd5b6040519080825280601f01601f1916602001820160405280156125c95781602001600182028036833780820191505090505b5090505b6000851461267c576001826125e29190613ade565b9150600a856125f19190613c74565b60306125fd9190613a57565b60f81b818381518110612639577f4e487b7100000000000000000000000000000000000000000000000000000000600052603260045260246000fd5b60200101907effffffffffffffffffffffffffffffffffffffffffffffffffffffffffffff1916908160001a905350600a856126759190613aad565b94506125cd565b8093505050505b919050565b6126928383612a60565b61269f6000848484611f36565b6126de576040517f08c379a00000000000000000000000000000000000000000000000000000000081526004016126d59061362c565b60405180910390fd5b505050565b505050565b6008805490506009600083815260200190815260200160002081905550600881908060018154018082558091505060019003906000526020600020016000909190919091505550565b6000600161273e84610a3c565b6127489190613ade565b905060006007600084815260200190815260200160002054905081811461282d576000600660008673ffffffffffffffffffffffffffffffffffffffff1673ffffffffffffffffffffffffffffffffffffffff168152602001908152602001600020600084815260200190815260200160002054905080600660008773ffffffffffffffffffffffffffffffffffffffff1673ffffffffffffffffffffffffffffffffffffffff168152602001908152602001600020600084815260200190815260200160002081905550816007600083815260200190815260200160002081905550505b6007600084815260200190815260200160002060009055600660008573ffffffffffffffffffffffffffffffffffffffff1673ffffffffffffffffffffffffffffffffffffffff16815260200190815260200160002060008381526020019081526020016000206000905550505050565b600060016008805490506128b29190613ade565b9050600060096000848152602001908152602001600020549050600060088381548110612908577f4e487b7100000000000000000000000000000000000000000000000000000000600052603260045260246000fd5b906000526020600020015490508060088381548110612950577f4e487b7100000000000000000000000000000000000000000000000000000000600052603260045260246000fd5b9060005260206000200181905550816009600083815260200190815260200160002081905550600960008581526020019081526020016000206000905560088054806129c5577f4e487b7100000000000000000000000000000000000000000000000000000000600052603160045260246000fd5b6001900381819060005260206000200160009055905550505050565b60006129ec83610a3c565b905081600660008573ffffffffffffffffffffffffffffffffffffffff1673ffffffffffffffffffffffffffffffffffffffff168152602001908152602001600020600083815260200190815260200160002081905550806007600084815260200190815260200160002081905550505050565b600073ffffffffffffffffffffffffffffffffffffffff168273ffffffffffffffffffffffffffffffffffffffff161415612ad0576040517f08c379a0000000000000000000000000000000000000000000000000000000008152600401612ac7906137ac565b60405180910390fd5b612ad9816114a2565b15612b19576040517f08c379a0000000000000000000000000000000000000000000000000000000008152600401612b109061368c565b60405180910390fd5b612b2560008383611ece565b6001600360008473ffffffffffffffffffffffffffffffffffffffff1673ffffffffffffffffffffffffffffffffffffffff1681526020019081526020016000206000828254612b759190613a57565b92505081905550816002600083815260200190815260200160002060006101000a81548173ffffffffffffffffffffffffffffffffffffffff021916908373ffffffffffffffffffffffffffffffffffffffff160217905550808273ffffffffffffffffffffffffffffffffffffffff16600073ffffffffffffffffffffffffffffffffffffffff167fddf252ad1be2c89b69c2b068fc378daa952ba7f163c4a11628f55a4df523b3ef60405160405180910390a4612c3660008383611ede565b5050565b828054612c4690613bc8565b90600052602060002090601f016020900481019282612c685760008555612caf565b82601f10612c8157805160ff1916838001178555612caf565b82800160010185558215612caf579182015b82811115612cae578251825591602001919060010190612c93565b5b509050612cbc9190612d00565b5090565b508054612ccc90613bc8565b6000825580601f10612cde5750612cfd565b601f016020900490600052602060002090810190612cfc9190612d00565b5b50565b5b80821115612d19576000816000905550600101612d01565b5090565b6000612d30612d2b846139b2565b61398d565b905082815260208101848484011115612d4857600080fd5b612d53848285613b86565b509392505050565b6000612d6e612d69846139e3565b61398d565b905082815260208101848484011115612d8657600080fd5b612d91848285613b86565b509392505050565b600081359050612da881614358565b92915050565b600081359050612dbd8161436f565b92915050565b600081359050612dd281614386565b92915050565b600081519050612de781614386565b92915050565b600082601f830112612dfe57600080fd5b8135612e0e848260208601612d1d565b91505092915050565b600082601f830112612e2857600080fd5b8135612e38848260208601612d5b565b91505092915050565b600081359050612e508161439d565b92915050565b600060208284031215612e6857600080fd5b6000612e7684828501612d99565b91505092915050565b60008060408385031215612e9257600080fd5b6000612ea085828601612d99565b9250506020612eb185828601612d99565b9150509250929050565b600080600060608486031215612ed057600080fd5b6000612ede86828701612d99565b9350506020612eef86828701612d99565b9250506040612f0086828701612e41565b9150509250925092565b60008060008060808587031215612f2057600080fd5b6000612f2e87828801612d99565b9450506020612f3f87828801612d99565b9350506040612f5087828801612e41565b925050606085013567ffffffffffffffff811115612f6d57600080fd5b612f7987828801612ded565b91505092959194509250565b60008060408385031215612f9857600080fd5b6000612fa685828601612d99565b9250506020612fb785828601612dae565b9150509250929050565b60008060408385031215612fd457600080fd5b6000612fe285828601612d99565b9250506020612ff385828601612e41565b9150509250929050565b60008060006060848603121561301257600080fd5b600061302086828701612d99565b935050602061303186828701612e41565b925050604084013567ffffffffffffffff81111561304e57600080fd5b61305a86828701612e17565b9150509250925092565b60006020828403121561307657600080fd5b600061308484828501612dc3565b91505092915050565b60006020828403121561309f57600080fd5b60006130ad84828501612dd8565b91505092915050565b6000602082840312156130c857600080fd5b60006130d684828501612e41565b91505092915050565b600080600080608085870312156130f557600080fd5b600061310387828801612e41565b945050602061311487828801612d99565b935050604085013567ffffffffffffffff81111561313157600080fd5b61313d87828801612e17565b925050606085013567ffffffffffffffff81111561315a57600080fd5b61316687828801612e17565b91505092959194509250565b61317b81613b12565b82525050565b61318a81613b24565b82525050565b600061319b82613a14565b6131a58185613a2a565b93506131b5818560208601613b95565b6131be81613d61565b840191505092915050565b60006131d482613a1f565b6131de8185613a3b565b93506131ee818560208601613b95565b6131f781613d61565b840191505092915050565b600061320d82613a1f565b6132178185613a4c565b9350613227818560208601613b95565b80840191505092915050565b6000613240602b83613a3b565b915061324b82613d72565b604082019050919050565b6000613263603283613a3b565b915061326e82613dc1565b604082019050919050565b6000613286602683613a3b565b915061329182613e10565b604082019050919050565b60006132a9602583613a3b565b91506132b482613e5f565b604082019050919050565b60006132cc601c83613a3b565b91506132d782613eae565b602082019050919050565b60006132ef602483613a3b565b91506132fa82613ed7565b604082019050919050565b6000613312601983613a3b565b915061331d82613f26565b602082019050919050565b6000613335602c83613a3b565b915061334082613f4f565b604082019050919050565b6000613358603883613a3b565b915061336382613f9e565b604082019050919050565b600061337b601e83613a3b565b915061338682613fed565b602082019050919050565b600061339e602a83613a3b565b91506133a982614016565b604082019050919050565b60006133c1602983613a3b565b91506133cc82614065565b604082019050919050565b60006133e4602e83613a3b565b91506133ef826140b4565b604082019050919050565b6000613407602083613a3b565b915061341282614103565b602082019050919050565b600061342a603183613a3b565b91506134358261412c565b604082019050919050565b600061344d602c83613a3b565b91506134588261417b565b604082019050919050565b6000613470602083613a3b565b915061347b826141ca565b602082019050919050565b6000613493602f83613a3b565b915061349e826141f3565b604082019050919050565b60006134b6602183613a3b565b91506134c182614242565b604082019050919050565b60006134d9603183613a3b565b91506134e482614291565b604082019050919050565b60006134fc602c83613a3b565b9150613507826142e0565b604082019050919050565b600061351f601183613a3b565b915061352a8261432f565b602082019050919050565b61353e81613b7c565b82525050565b60006135508285613202565b915061355c8284613202565b91508190509392505050565b600060208201905061357d6000830184613172565b92915050565b60006080820190506135986000830187613172565b6135a56020830186613172565b6135b26040830185613535565b81810360608301526135c48184613190565b905095945050505050565b60006020820190506135e46000830184613181565b92915050565b6000602082019050818103600083015261360481846131c9565b905092915050565b6000602082019050818103600083015261362581613233565b9050919050565b6000602082019050818103600083015261364581613256565b9050919050565b6000602082019050818103600083015261366581613279565b9050919050565b600060208201905081810360008301526136858161329c565b9050919050565b600060208201905081810360008301526136a5816132bf565b9050919050565b600060208201905081810360008301526136c5816132e2565b9050919050565b600060208201905081810360008301526136e581613305565b9050919050565b6000602082019050818103600083015261370581613328565b9050919050565b600060208201905081810360008301526137258161334b565b9050919050565b600060208201905081810360008301526137458161336e565b9050919050565b6000602082019050818103600083015261376581613391565b9050919050565b60006020820190508181036000830152613785816133b4565b9050919050565b600060208201905081810360008301526137a5816133d7565b9050919050565b600060208201905081810360008301526137c5816133fa565b9050919050565b600060208201905081810360008301526137e58161341d565b9050919050565b6000602082019050818103600083015261380581613440565b9050919050565b6000602082019050818103600083015261382581613463565b9050919050565b6000602082019050818103600083015261384581613486565b9050919050565b60006020820190508181036000830152613865816134a9565b9050919050565b60006020820190508181036000830152613885816134cc565b9050919050565b600060208201905081810360008301526138a5816134ef565b9050919050565b600060208201905081810360008301526138c581613512565b9050919050565b60006020820190506138e16000830184613535565b92915050565b60006080820190506138fc6000830187613535565b818103602083015261390e81866131c9565b905061391d6040830185613172565b61392a6060830184613535565b95945050505050565b600060a0820190506139486000830188613535565b818103602083015261395a81876131c9565b90506139696040830186613535565b6139766060830185613535565b6139836080830184613172565b9695505050505050565b60006139976139a8565b90506139a38282613bfa565b919050565b6000604051905090565b600067ffffffffffffffff8211156139cd576139cc613d32565b5b6139d682613d61565b9050602081019050919050565b600067ffffffffffffffff8211156139fe576139fd613d32565b5b613a0782613d61565b9050602081019050919050565b600081519050919050565b600081519050919050565b600082825260208201905092915050565b600082825260208201905092915050565b600081905092915050565b6000613a6282613b7c565b9150613a6d83613b7c565b9250827fffffffffffffffffffffffffffffffffffffffffffffffffffffffffffffffff03821115613aa257613aa1613ca5565b5b828201905092915050565b6000613ab882613b7c565b9150613ac383613b7c565b925082613ad357613ad2613cd4565b5b828204905092915050565b6000613ae982613b7c565b9150613af483613b7c565b925082821015613b0757613b06613ca5565b5b828203905092915050565b6000613b1d82613b5c565b9050919050565b60008115159050919050565b60007fffffffff0000000000000000000000000000000000000000000000000000000082169050919050565b600073ffffffffffffffffffffffffffffffffffffffff82169050919050565b6000819050919050565b82818337600083830152505050565b60005b83811015613bb3578082015181840152602081019050613b98565b83811115613bc2576000848401525b50505050565b60006002820490506001821680613be057607f821691505b60208210811415613bf457613bf3613d03565b5b50919050565b613c0382613d61565b810181811067ffffffffffffffff82111715613c2257613c21613d32565b5b80604052505050565b6000613c3682613b7c565b91507fffffffffffffffffffffffffffffffffffffffffffffffffffffffffffffffff821415613c6957613c68613ca5565b5b600182019050919050565b6000613c7f82613b7c565b9150613c8a83613b7c565b925082613c9a57613c99613cd4565b5b828206905092915050565b7f4e487b7100000000000000000000000000000000000000000000000000000000600052601160045260246000fd5b7f4e487b7100000000000000000000000000000000000000000000000000000000600052601260045260246000fd5b7f4e487b7100000000000000000000000000000000000000000000000000000000600052602260045260246000fd5b7f4e487b7100000000000000000000000000000000000000000000000000000000600052604160045260246000fd5b6000601f19601f8301169050919050565b7f455243373231456e756d657261626c653a206f776e657220696e646578206f7560008201527f74206f6620626f756e6473000000000000000000000000000000000000000000602082015250565b7f4552433732313a207472616e7366657220746f206e6f6e20455243373231526560008201527f63656976657220696d706c656d656e7465720000000000000000000000000000602082015250565b7f4f776e61626c653a206e6577206f776e657220697320746865207a65726f206160008201527f6464726573730000000000000000000000000000000000000000000000000000602082015250565b7f4552433732313a207472616e736665722066726f6d20696e636f72726563742060008201527f6f776e6572000000000000000000000000000000000000000000000000000000602082015250565b7f4552433732313a20746f6b656e20616c7265616479206d696e74656400000000600082015250565b7f4552433732313a207472616e7366657220746f20746865207a65726f2061646460008201527f7265737300000000000000000000000000000000000000000000000000000000602082015250565b7f4552433732313a20617070726f766520746f2063616c6c657200000000000000600082015250565b7f4552433732313a206f70657261746f7220717565727920666f72206e6f6e657860008201527f697374656e7420746f6b656e0000000000000000000000000000000000000000602082015250565b7f4552433732313a20617070726f76652063616c6c6572206973206e6f74206f7760008201527f6e6572206e6f7220617070726f76656420666f7220616c6c0000000000000000602082015250565b7f43616c6c6572206d75737420626520746865207465616d206c65616465720000600082015250565b7f4552433732313a2062616c616e636520717565727920666f7220746865207a6560008201527f726f206164647265737300000000000000000000000000000000000000000000602082015250565b7f4552433732313a206f776e657220717565727920666f72206e6f6e657869737460008201527f656e7420746f6b656e0000000000000000000000000000000000000000000000602082015250565b7f45524337323155524953746f726167653a2055524920736574206f66206e6f6e60008201527f6578697374656e7420746f6b656e000000000000000000000000000000000000602082015250565b7f4552433732313a206d696e7420746f20746865207a65726f2061646472657373600082015250565b7f45524337323155524953746f726167653a2055524920717565727920666f722060008201527f6e6f6e6578697374656e7420746f6b656e000000000000000000000000000000602082015250565b7f4552433732313a20617070726f76656420717565727920666f72206e6f6e657860008201527f697374656e7420746f6b656e0000000000000000000000000000000000000000602082015250565b7f4f776e61626c653a2063616c6c6572206973206e6f7420746865206f776e6572600082015250565b7f4552433732314d657461646174613a2055524920717565727920666f72206e6f60008201527f6e6578697374656e7420746f6b656e0000000000000000000000000000000000602082015250565b7f4552433732313a20617070726f76616c20746f2063757272656e74206f776e6560008201527f7200000000000000000000000000000000000000000000000000000000000000602082015250565b7f4552433732313a207472616e736665722063616c6c6572206973206e6f74206f60008201527f776e6572206e6f7220617070726f766564000000000000000000000000000000602082015250565b7f455243373231456e756d657261626c653a20676c6f62616c20696e646578206f60008201527f7574206f6620626f756e64730000000000000000000000000000000000000000602082015250565b7f416c726561647920696e2061207465616d000000000000000000000000000000600082015250565b61436181613b12565b811461436c57600080fd5b50565b61437881613b24565b811461438357600080fd5b50565b61438f81613b30565b811461439a57600080fd5b50565b6143a681613b7c565b81146143b157600080fd5b5056fea264697066735822122087d2eb7cc57ab655cdeae7deb4e92ba6cad233e937d839aea81a128a6109a45064736f6c63430008010033",
  "immutableReferences": {},
  "source": "// SPDX-License-Identifier: MIT\npragma solidity ^0.8.0;\nimport \"@openzeppelin/contracts/token/ERC721/extensions/ERC721Enumerable.sol\";\nimport \"@openzeppelin/contracts/token/ERC721/extensions/ERC721URIStorage.sol\";\nimport \"@openzeppelin/contracts/access/Ownable.sol\";\nimport \"@openzeppelin/contracts/utils/Counters.sol\";\n\ncontract TeamNFT is ERC721Enumerable, Ownable, ERC721URIStorage {\n    using Counters for Counters.Counter;\n\n    struct Team {\n        uint256 teamId;\n        string teamName;\n        uint256 creationDate;\n        uint256 totalMembers;\n        address teamLeader;\n    }\n    mapping(uint256 => Team) public teamById;\n    mapping(address => bool) public addressInATeam;\n    mapping(uint256 => uint256) public teamByTokenId;\n\n    Counters.Counter private _tokenIdCounter;\n    Counters.Counter private _teamCounter;\n\n    event TeamCreated(uint256 teamId);\n    event NewTeamLeader(address teamLeader);\n    event NewMember(uint256 tokenId, string tokenUri, address member, uint256 teamId);\n\n    constructor(string memory _tokenName, string memory _symbol)\n        ERC721(_tokenName, _symbol)\n    // solhint-disable-next-line no-empty-blocks\n    {\n\n    }\n\n    function _burn(uint256 tokenId)\n        internal\n        override(ERC721URIStorage, ERC721)\n    {\n        return ERC721URIStorage._burn(tokenId);\n    }\n\n    modifier onlyTeamLeader(uint256 _teamId) {\n        require(\n            teamById[_teamId].teamLeader == msg.sender,\n            \"Caller must be the team leader\"\n        );\n        _;\n    }\n\n    function tokenURI(uint256 tokenId)\n        public\n        view\n        virtual\n        override(ERC721URIStorage, ERC721)\n        returns (string memory)\n    {\n        return ERC721URIStorage.tokenURI(tokenId);\n    }\n\n    function _beforeTokenTransfer(\n        address from,\n        address to,\n        uint256 tokenId\n    ) internal override(ERC721, ERC721Enumerable) {\n        return ERC721Enumerable._beforeTokenTransfer(from, to, tokenId);\n    }\n\n    function supportsInterface(bytes4 interfaceId)\n        public\n        view\n        override(ERC721, ERC721Enumerable)\n        returns (bool)\n    {\n        return ERC721Enumerable.supportsInterface(interfaceId);\n    }\n\n    function mint(\n        address _receiver,\n        uint256 _teamId,\n        string memory _tokenURI\n    ) public onlyTeamLeader(_teamId) {\n        require(!addressInATeam[_receiver], \"Already in a team\");\n       _mintNft(_receiver, _tokenURI, _teamId);\n    }\n\n    function _mintNft(address _receiver, string memory _tokenURI, uint256 _teamId) private {\n        uint256 tokenId = _tokenIdCounter.current();\n        _tokenIdCounter.increment();\n        _safeMint(_receiver, tokenId);\n        _setTokenURI(tokenId, _tokenURI);\n        addressInATeam[_receiver] = true;\n        emit NewMember(tokenId, _tokenURI, _receiver, _teamId);\n    }\n\n    function createTeam(\n        uint256 _creationDate,\n        address _teamLeader,\n        string memory _teamName,\n        string memory _tokenURILeader\n    ) public onlyOwner {\n        require(!addressInATeam[_teamLeader], \"Already in a team\");\n        _teamCounter.increment();\n        uint256 teamId = _teamCounter.current();\n        Team storage newTeam = teamById[teamId];\n        newTeam.creationDate = _creationDate;\n        newTeam.teamId = teamId;\n        newTeam.teamLeader = _teamLeader;\n        newTeam.teamName = _teamName;\n        newTeam.totalMembers = 0;\n        addressInATeam[_teamLeader];\n        _mintNft(_teamLeader, _tokenURILeader, teamId);\n        emit TeamCreated(teamId);\n        emit NewTeamLeader(_teamLeader);\n    }\n\n    function burn(address _memberAddress, uint256 _teamId)\n        public\n        onlyTeamLeader(_teamId)\n        returns (bool)\n    {\n        addressInATeam[_memberAddress] = false;\n        _burn(tokenOfOwnerByIndex(_memberAddress, 0));\n        return true;\n    }\n\n    function totalTeam() public view returns (uint256) {\n        return _teamCounter.current();\n    }\n}\n",
  "sourcePath": "/home/aymeric/Documents/hackathon-dao/dao-project/contracts/TeamNFT.sol",
  "compiler": {
    "name": "solc",
    "version": "0.8.1+commit.df193b15.Emscripten.clang"
  },
  "schemaVersion": "3.4.6",
  "updatedAt": "2022-04-10T10:12:45.897Z",
  "networkType": "ethereum",
  "devdoc": {
    "kind": "dev",
    "methods": {
      "approve(address,uint256)": {
        "details": "See {IERC721-approve}."
      },
      "balanceOf(address)": {
        "details": "See {IERC721-balanceOf}."
      },
      "getApproved(uint256)": {
        "details": "See {IERC721-getApproved}."
      },
      "isApprovedForAll(address,address)": {
        "details": "See {IERC721-isApprovedForAll}."
      },
      "name()": {
        "details": "See {IERC721Metadata-name}."
      },
      "owner()": {
        "details": "Returns the address of the current owner."
      },
      "ownerOf(uint256)": {
        "details": "See {IERC721-ownerOf}."
      },
      "renounceOwnership()": {
        "details": "Leaves the contract without owner. It will not be possible to call `onlyOwner` functions anymore. Can only be called by the current owner. NOTE: Renouncing ownership will leave the contract without an owner, thereby removing any functionality that is only available to the owner."
      },
      "safeTransferFrom(address,address,uint256)": {
        "details": "See {IERC721-safeTransferFrom}."
      },
      "safeTransferFrom(address,address,uint256,bytes)": {
        "details": "See {IERC721-safeTransferFrom}."
      },
      "setApprovalForAll(address,bool)": {
        "details": "See {IERC721-setApprovalForAll}."
      },
      "symbol()": {
        "details": "See {IERC721Metadata-symbol}."
      },
      "tokenByIndex(uint256)": {
        "details": "See {IERC721Enumerable-tokenByIndex}."
      },
      "tokenOfOwnerByIndex(address,uint256)": {
        "details": "See {IERC721Enumerable-tokenOfOwnerByIndex}."
      },
      "totalSupply()": {
        "details": "See {IERC721Enumerable-totalSupply}."
      },
      "transferFrom(address,address,uint256)": {
        "details": "See {IERC721-transferFrom}."
      },
      "transferOwnership(address)": {
        "details": "Transfers ownership of the contract to a new account (`newOwner`). Can only be called by the current owner."
      }
    },
    "version": 1
  },
  "userdoc": {
    "kind": "user",
    "methods": {},
    "version": 1
  }
}